{
  "contractName": "bcaiReputation",
  "abi": [
    {
      "constant": true,
      "inputs": [
        {
          "internalType": "address",
          "name": "",
          "type": "address"
        }
      ],
      "name": "ratings",
      "outputs": [
        {
          "internalType": "uint128",
          "name": "numRatings",
          "type": "uint128"
        },
        {
          "internalType": "uint128",
          "name": "avgRating",
          "type": "uint128"
        },
        {
          "internalType": "bool",
          "name": "newUser",
          "type": "bool"
        }
      ],
      "payable": false,
      "stateMutability": "view",
      "type": "function"
    },
    {
      "constant": false,
      "inputs": [
        {
          "internalType": "address",
          "name": "user",
          "type": "address"
        },
        {
          "internalType": "uint128",
          "name": "rating",
          "type": "uint128"
        }
      ],
      "name": "addRating",
      "outputs": [],
      "payable": false,
      "stateMutability": "nonpayable",
      "type": "function"
    },
    {
      "constant": true,
      "inputs": [
        {
          "internalType": "address",
          "name": "user",
          "type": "address"
        }
      ],
      "name": "getNumRatings",
      "outputs": [
        {
          "internalType": "uint128",
          "name": "",
          "type": "uint128"
        }
      ],
      "payable": false,
      "stateMutability": "view",
      "type": "function"
    },
    {
      "constant": true,
      "inputs": [
        {
          "internalType": "address",
          "name": "user",
          "type": "address"
        }
      ],
      "name": "getAvgRating",
      "outputs": [
        {
          "internalType": "uint128",
          "name": "",
          "type": "uint128"
        }
      ],
      "payable": false,
      "stateMutability": "view",
      "type": "function"
    },
    {
      "constant": true,
      "inputs": [
        {
          "internalType": "address",
          "name": "user",
          "type": "address"
        }
      ],
      "name": "getLastFive",
      "outputs": [
        {
          "internalType": "uint128[5]",
          "name": "",
          "type": "uint128[5]"
        }
      ],
      "payable": false,
      "stateMutability": "view",
      "type": "function"
    }
  ],
  "bytecode": "0x608060405234801561001057600080fd5b50610d0d806100206000396000f3fe608060405234801561001057600080fd5b50600436106100575760003560e01c80630ad879c31461005c57806313df83211461008c5780638c05bb08146100bc5780639e01dfbb146100d8578063a2ec67011461010a575b600080fd5b61007660048036036100719190810190610aa7565b61013a565b6040516100839190610ba8565b60405180910390f35b6100a660048036036100a19190810190610aa7565b61020a565b6040516100b39190610bc3565b60405180910390f35b6100d660048036036100d19190810190610ad0565b610271565b005b6100f260048036036100ed9190810190610aa7565b610985565b60405161010193929190610bde565b60405180910390f35b610124600480360361011f9190810190610aa7565b6109f4565b6040516101319190610bc3565b60405180910390f35b610142610a5b565b6000808373ffffffffffffffffffffffffffffffffffffffff1673ffffffffffffffffffffffffffffffffffffffff1681526020019081526020016000206001016005806020026040519081016040528092919082600580156101fe576020028201916000905b82829054906101000a90046fffffffffffffffffffffffffffffffff166fffffffffffffffffffffffffffffffff1681526020019060100190602082600f010492830192600103820291508084116101a95790505b50505050509050919050565b60008060008373ffffffffffffffffffffffffffffffffffffffff1673ffffffffffffffffffffffffffffffffffffffff16815260200190815260200160002060000160109054906101000a90046fffffffffffffffffffffffffffffffff169050919050565b60008060008473ffffffffffffffffffffffffffffffffffffffff1673ffffffffffffffffffffffffffffffffffffffff16815260200190815260200160002060000160009054906101000a90046fffffffffffffffffffffffffffffffff166fffffffffffffffffffffffffffffffff16146107db5760016000808473ffffffffffffffffffffffffffffffffffffffff1673ffffffffffffffffffffffffffffffffffffffff16815260200190815260200160002060000160009054906101000a90046fffffffffffffffffffffffffffffffff16016fffffffffffffffffffffffffffffffff166000808473ffffffffffffffffffffffffffffffffffffffff1673ffffffffffffffffffffffffffffffffffffffff16815260200190815260200160002060000160109054906101000a90046fffffffffffffffffffffffffffffffff166000808573ffffffffffffffffffffffffffffffffffffffff1673ffffffffffffffffffffffffffffffffffffffff16815260200190815260200160002060000160009054906101000a90046fffffffffffffffffffffffffffffffff160282016fffffffffffffffffffffffffffffffff168161043357fe5b046000808473ffffffffffffffffffffffffffffffffffffffff1673ffffffffffffffffffffffffffffffffffffffff16815260200190815260200160002060000160106101000a8154816fffffffffffffffffffffffffffffffff02191690836fffffffffffffffffffffffffffffffff1602179055506000808373ffffffffffffffffffffffffffffffffffffffff1673ffffffffffffffffffffffffffffffffffffffff168152602001908152602001600020600001600081819054906101000a90046fffffffffffffffffffffffffffffffff168092919060010191906101000a8154816fffffffffffffffffffffffffffffffff02191690836fffffffffffffffffffffffffffffffff160217905550506000600490505b60008160ff1614610673576000808473ffffffffffffffffffffffffffffffffffffffff1673ffffffffffffffffffffffffffffffffffffffff1681526020019081526020016000206001016001820360ff16600581106105ad57fe5b600291828204019190066010029054906101000a90046fffffffffffffffffffffffffffffffff166000808573ffffffffffffffffffffffffffffffffffffffff1673ffffffffffffffffffffffffffffffffffffffff1681526020019081526020016000206001018260ff166005811061062457fe5b600291828204019190066010026101000a8154816fffffffffffffffffffffffffffffffff02191690836fffffffffffffffffffffffffffffffff160217905550808060019003915050610550565b50806000808473ffffffffffffffffffffffffffffffffffffffff1673ffffffffffffffffffffffffffffffffffffffff1681526020019081526020016000206001016000600581106106c257fe5b600291828204019190066010026101000a8154816fffffffffffffffffffffffffffffffff02191690836fffffffffffffffffffffffffffffffff16021790555060056000808473ffffffffffffffffffffffffffffffffffffffff1673ffffffffffffffffffffffffffffffffffffffff16815260200190815260200160002060000160009054906101000a90046fffffffffffffffffffffffffffffffff166fffffffffffffffffffffffffffffffff1614156107d65760008060008473ffffffffffffffffffffffffffffffffffffffff1673ffffffffffffffffffffffffffffffffffffffff16815260200190815260200160002060040160006101000a81548160ff0219169083151502179055505b610981565b806000808473ffffffffffffffffffffffffffffffffffffffff1673ffffffffffffffffffffffffffffffffffffffff16815260200190815260200160002060000160106101000a8154816fffffffffffffffffffffffffffffffff02191690836fffffffffffffffffffffffffffffffff160217905550806000808473ffffffffffffffffffffffffffffffffffffffff1673ffffffffffffffffffffffffffffffffffffffff1681526020019081526020016000206001016000600581106108a157fe5b600291828204019190066010026101000a8154816fffffffffffffffffffffffffffffffff02191690836fffffffffffffffffffffffffffffffff1602179055506000808373ffffffffffffffffffffffffffffffffffffffff1673ffffffffffffffffffffffffffffffffffffffff168152602001908152602001600020600001600081819054906101000a90046fffffffffffffffffffffffffffffffff168092919060010191906101000a8154816fffffffffffffffffffffffffffffffff02191690836fffffffffffffffffffffffffffffffff160217905550505b5050565b60006020528060005260406000206000915090508060000160009054906101000a90046fffffffffffffffffffffffffffffffff16908060000160109054906101000a90046fffffffffffffffffffffffffffffffff16908060040160009054906101000a900460ff16905083565b60008060008373ffffffffffffffffffffffffffffffffffffffff1673ffffffffffffffffffffffffffffffffffffffff16815260200190815260200160002060000160009054906101000a90046fffffffffffffffffffffffffffffffff169050919050565b6040518060a00160405280600590602082028038833980820191505090505090565b600081359050610a8c81610c9c565b92915050565b600081359050610aa181610cb3565b92915050565b600060208284031215610ab957600080fd5b6000610ac784828501610a7d565b91505092915050565b60008060408385031215610ae357600080fd5b6000610af185828601610a7d565b9250506020610b0285828601610a92565b9150509250929050565b6000610b188383610b8a565b60208301905092915050565b610b2d81610c1f565b610b378184610c37565b9250610b4282610c15565b8060005b83811015610b73578151610b5a8782610b0c565b9650610b6583610c2a565b925050600181019050610b46565b505050505050565b610b8481610c54565b82525050565b610b9381610c60565b82525050565b610ba281610c60565b82525050565b600060a082019050610bbd6000830184610b24565b92915050565b6000602082019050610bd86000830184610b99565b92915050565b6000606082019050610bf36000830186610b99565b610c006020830185610b99565b610c0d6040830184610b7b565b949350505050565b6000819050919050565b600060059050919050565b6000602082019050919050565b600081905092915050565b6000610c4d82610c7c565b9050919050565b60008115159050919050565b60006fffffffffffffffffffffffffffffffff82169050919050565b600073ffffffffffffffffffffffffffffffffffffffff82169050919050565b610ca581610c42565b8114610cb057600080fd5b50565b610cbc81610c60565b8114610cc757600080fd5b5056fea365627a7a723158205231af053b12f8211d23904e47686da7714f3eda9f47853c38f8c1a73d1c18c16c6578706572696d656e74616cf564736f6c63430005100040",
  "source": "pragma solidity >=0.4.22 <0.6.0;\npragma experimental ABIEncoderV2;\n//IDEAS\n//Date - could keep track of the date/time of their last job\n//New users - should not be treated as behaving badly because they have no ratings\n\ncontract bcaiReputation {\n    \n    mapping (address => reputation) public ratings; //user address -> reputation struct\n    \n    struct reputation{\n        uint128 numRatings;\n        uint128 avgRating;\n        uint128[5] lastFive;\n        bool newUser;\n    }\n    \n    function addRating (address user, uint128 rating) public {\n        if(ratings[user].numRatings != 0){\n            ratings[user].avgRating = (rating + (ratings[user].numRatings * ratings[user].avgRating)) / (ratings[user].numRatings + 1);\n            ratings[user].numRatings++;\n            for(uint8 i = 4; i != 0; i--){//shift the array so we can add newest rating\n                ratings[user].lastFive[i] = ratings[user].lastFive[i - 1];\n            }\n            ratings[user].lastFive[0] = rating;\n            \n            if(ratings[user].numRatings == 5){\n                ratings[user].newUser = false;\n            }\n        }\n        else {//this is their first rating, simpler logic\n            ratings[user].avgRating = rating;\n            ratings[user].lastFive[0] = rating;\n            ratings[user].numRatings++;\n        }\n    }\n    \n    function getNumRatings (address user) public view returns(uint128){\n        return ratings[user].numRatings;\n    }\n    \n    function getAvgRating (address user) public view returns(uint128){\n        return ratings[user].avgRating;\n    }\n    \n    function getLastFive (address user) public view returns(uint128 [5] memory) {\n        return ratings[user].lastFive;\n    }\n    \n}\n",
  "sourcePath": "/home/landry/Desktop/BCAI/bcai_deploy/contracts/reputation.sol",
  "compiler": {
    "name": "solc",
    "version": "0.5.16+commit.9c3226ce.Emscripten.clang"
  },
  "schemaVersion": "3.0.22",
  "updatedAt": "2020-02-04T15:50:24.674Z",
  "devdoc": {
    "methods": {}
  },
  "userdoc": {
    "methods": {}
  }
}