{
  "contractName": "bcaiReputation",
  "abi": [
    {
      "constant": true,
      "inputs": [
        {
          "name": "",
          "type": "address"
        }
      ],
      "name": "ratings",
      "outputs": [
        {
          "name": "numRatings",
          "type": "uint128"
        },
        {
          "name": "avgRating",
          "type": "uint128"
        },
        {
          "name": "newUser",
          "type": "bool"
        }
      ],
      "payable": false,
      "stateMutability": "view",
      "type": "function"
    },
    {
      "constant": false,
      "inputs": [
        {
          "name": "user",
          "type": "address"
        },
        {
          "name": "rating",
          "type": "uint128"
        }
      ],
      "name": "addRating",
      "outputs": [],
      "payable": false,
      "stateMutability": "nonpayable",
      "type": "function"
    },
    {
      "constant": true,
      "inputs": [
        {
          "name": "user",
          "type": "address"
        }
      ],
      "name": "getNumRatings",
      "outputs": [
        {
          "name": "",
          "type": "uint128"
        }
      ],
      "payable": false,
      "stateMutability": "view",
      "type": "function"
    },
    {
      "constant": true,
      "inputs": [
        {
          "name": "user",
          "type": "address"
        }
      ],
      "name": "getAvgRating",
      "outputs": [
        {
          "name": "",
          "type": "uint128"
        }
      ],
      "payable": false,
      "stateMutability": "view",
      "type": "function"
    },
    {
      "constant": true,
      "inputs": [
        {
          "name": "user",
          "type": "address"
        }
      ],
      "name": "getLastFive",
      "outputs": [
        {
          "name": "",
          "type": "uint128[5]"
        }
      ],
      "payable": false,
      "stateMutability": "view",
      "type": "function"
    }
  ],
  "bytecode": "0x608060405234801561001057600080fd5b50610d12806100206000396000f3fe608060405260043610610067576000357c0100000000000000000000000000000000000000000000000000000000900480630ad879c31461006c57806313df8321146100a95780638c05bb08146100e65780639e01dfbb1461010f578063a2ec67011461014e575b600080fd5b34801561007857600080fd5b50610093600480360361008e9190810190610b05565b61018b565b6040516100a09190610bd3565b60405180910390f35b3480156100b557600080fd5b506100d060048036036100cb9190810190610b05565b61025b565b6040516100dd9190610bee565b60405180910390f35b3480156100f257600080fd5b5061010d60048036036101089190810190610b2e565b6102c2565b005b34801561011b57600080fd5b5061013660048036036101319190810190610b05565b6109e4565b60405161014593929190610c09565b60405180910390f35b34801561015a57600080fd5b5061017560048036036101709190810190610b05565b610a53565b6040516101829190610bee565b60405180910390f35b610193610aba565b6000808373ffffffffffffffffffffffffffffffffffffffff1673ffffffffffffffffffffffffffffffffffffffff16815260200190815260200160002060010160058060200260405190810160405280929190826005801561024f576020028201916000905b82829054906101000a90046fffffffffffffffffffffffffffffffff166fffffffffffffffffffffffffffffffff1681526020019060100190602082600f010492830192600103820291508084116101fa5790505b50505050509050919050565b60008060008373ffffffffffffffffffffffffffffffffffffffff1673ffffffffffffffffffffffffffffffffffffffff16815260200190815260200160002060000160109054906101000a90046fffffffffffffffffffffffffffffffff169050919050565b60008060008473ffffffffffffffffffffffffffffffffffffffff1673ffffffffffffffffffffffffffffffffffffffff16815260200190815260200160002060000160009054906101000a90046fffffffffffffffffffffffffffffffff166fffffffffffffffffffffffffffffffff161415156108385760016000808473ffffffffffffffffffffffffffffffffffffffff1673ffffffffffffffffffffffffffffffffffffffff16815260200190815260200160002060000160009054906101000a90046fffffffffffffffffffffffffffffffff16016fffffffffffffffffffffffffffffffff166000808473ffffffffffffffffffffffffffffffffffffffff1673ffffffffffffffffffffffffffffffffffffffff16815260200190815260200160002060000160109054906101000a90046fffffffffffffffffffffffffffffffff166000808573ffffffffffffffffffffffffffffffffffffffff1673ffffffffffffffffffffffffffffffffffffffff16815260200190815260200160002060000160009054906101000a90046fffffffffffffffffffffffffffffffff160282016fffffffffffffffffffffffffffffffff1681151561048857fe5b046000808473ffffffffffffffffffffffffffffffffffffffff1673ffffffffffffffffffffffffffffffffffffffff16815260200190815260200160002060000160106101000a8154816fffffffffffffffffffffffffffffffff02191690836fffffffffffffffffffffffffffffffff1602179055506000808373ffffffffffffffffffffffffffffffffffffffff1673ffffffffffffffffffffffffffffffffffffffff168152602001908152602001600020600001600081819054906101000a90046fffffffffffffffffffffffffffffffff168092919060010191906101000a8154816fffffffffffffffffffffffffffffffff02191690836fffffffffffffffffffffffffffffffff160217905550506000600490505b60008160ff161415156106ce576000808473ffffffffffffffffffffffffffffffffffffffff1673ffffffffffffffffffffffffffffffffffffffff1681526020019081526020016000206001016001820360ff1660058110151561060657fe5b600291828204019190066010029054906101000a90046fffffffffffffffffffffffffffffffff166000808573ffffffffffffffffffffffffffffffffffffffff1673ffffffffffffffffffffffffffffffffffffffff1681526020019081526020016000206001018260ff1660058110151561067f57fe5b600291828204019190066010026101000a8154816fffffffffffffffffffffffffffffffff02191690836fffffffffffffffffffffffffffffffff1602179055508080600190039150506105a5565b50806000808473ffffffffffffffffffffffffffffffffffffffff1673ffffffffffffffffffffffffffffffffffffffff168152602001908152602001600020600101600060058110151561071f57fe5b600291828204019190066010026101000a8154816fffffffffffffffffffffffffffffffff02191690836fffffffffffffffffffffffffffffffff16021790555060056000808473ffffffffffffffffffffffffffffffffffffffff1673ffffffffffffffffffffffffffffffffffffffff16815260200190815260200160002060000160009054906101000a90046fffffffffffffffffffffffffffffffff166fffffffffffffffffffffffffffffffff1614156108335760008060008473ffffffffffffffffffffffffffffffffffffffff1673ffffffffffffffffffffffffffffffffffffffff16815260200190815260200160002060040160006101000a81548160ff0219169083151502179055505b6109e0565b806000808473ffffffffffffffffffffffffffffffffffffffff1673ffffffffffffffffffffffffffffffffffffffff16815260200190815260200160002060000160106101000a8154816fffffffffffffffffffffffffffffffff02191690836fffffffffffffffffffffffffffffffff160217905550806000808473ffffffffffffffffffffffffffffffffffffffff1673ffffffffffffffffffffffffffffffffffffffff168152602001908152602001600020600101600060058110151561090057fe5b600291828204019190066010026101000a8154816fffffffffffffffffffffffffffffffff02191690836fffffffffffffffffffffffffffffffff1602179055506000808373ffffffffffffffffffffffffffffffffffffffff1673ffffffffffffffffffffffffffffffffffffffff168152602001908152602001600020600001600081819054906101000a90046fffffffffffffffffffffffffffffffff168092919060010191906101000a8154816fffffffffffffffffffffffffffffffff02191690836fffffffffffffffffffffffffffffffff160217905550505b5050565b60006020528060005260406000206000915090508060000160009054906101000a90046fffffffffffffffffffffffffffffffff16908060000160109054906101000a90046fffffffffffffffffffffffffffffffff16908060040160009054906101000a900460ff16905083565b60008060008373ffffffffffffffffffffffffffffffffffffffff1673ffffffffffffffffffffffffffffffffffffffff16815260200190815260200160002060000160009054906101000a90046fffffffffffffffffffffffffffffffff169050919050565b60a060405190810160405280600590602082028038833980820191505090505090565b6000610ae98235610caa565b905092915050565b6000610afd8235610cbc565b905092915050565b600060208284031215610b1757600080fd5b6000610b2584828501610add565b91505092915050565b60008060408385031215610b4157600080fd5b6000610b4f85828601610add565b9250506020610b6085828601610af1565b9150509250929050565b610b7381610c4a565b610b7c82610c40565b60005b82811015610bae57610b92858351610bc4565b610b9b82610c55565b9150602085019450600181019050610b7f565b5050505050565b610bbe81610c62565b82525050565b610bcd81610c6e565b82525050565b600060a082019050610be86000830184610b6a565b92915050565b6000602082019050610c036000830184610bc4565b92915050565b6000606082019050610c1e6000830186610bc4565b610c2b6020830185610bc4565b610c386040830184610bb5565b949350505050565b6000819050919050565b600060059050919050565b6000602082019050919050565b60008115159050919050565b60006fffffffffffffffffffffffffffffffff82169050919050565b600073ffffffffffffffffffffffffffffffffffffffff82169050919050565b6000610cb582610c8a565b9050919050565b60006fffffffffffffffffffffffffffffffff8216905091905056fea265627a7a72305820ee1063d3b0048e510d5127cf4cfd33270d481baa839bae4932467d3e7e1bcee16c6578706572696d656e74616cf50037",
  "source": "/////////////////////////////////////////////////////////////////////////////////////\n//version 3.0.0\n//Author: Taurus, Samuel Pritchett\n//Copyright: tlu4@lsu.edu\n//\n//update from 2.1 -> 3.0, keep alignment with the project version v3.0, which is a stable release version.\n//NOTE: at the time Aug, 2019 the amount of contract code is close to its limit,\n//      adding more functions may result in a failure in deployment.\n//update Apr. 2019: fixed validateReqeust Logic: validator list is updated when selection,\n//      signature list is updated when result submitted, to avoid multi-submission\n//      did not change function parameter, should not break anything.\n///////////////////////////////////////////////////////////////////////////////////////\n//NOTE:\n//This design uses account address as the identifier, meaning each address could only have one req/prov associated.\n//When submit new or update existing req/prov, previous record are overwriten.\n//Each address could only have one req or prov, not at same time.\n\n//TODO: add conflict detection of the address. Check whether existing req or prov from your address is 'not complete',(being proccessed).\n//TODO: Aug.2019, add a hard-reset function. Totally remove one request or stop provider from the pool\n//      , no matter their status (being processed or pending), because sometimes, one will stuck in the pool.\n////////////////////////////////////////////////////////////////////////////////////\n\npragma solidity >=0.5.1;\npragma experimental ABIEncoderV2;           //enable returning self-defined type, used in helper return provider and request\n                                            //do not disable, provider is returned for debuging reason.\ncontract bcaiReputation {\n\n    mapping (address => reputation) public ratings; //user address -> reputation struct\n\n    struct reputation{\n        uint128 numRatings;\n        uint128 avgRating;\n        uint128[5] lastFive;\n        bool newUser;\n    }\n\n    //Final version this needs to be internal\n    function addRating (address user, uint128 rating) public {\n        if(ratings[user].numRatings != 0){\n            ratings[user].avgRating = (rating + (ratings[user].numRatings * ratings[user].avgRating)) / (ratings[user].numRatings + 1);\n            ratings[user].numRatings++;\n            for(uint8 i = 4; i != 0; i--){//shift the array so we can add newest rating\n                ratings[user].lastFive[i] = ratings[user].lastFive[i - 1];\n            }\n            ratings[user].lastFive[0] = rating;\n\n            if(ratings[user].numRatings == 5){\n                ratings[user].newUser = false;\n            }\n        }\n        else {//this is their first rating, simpler logic\n            ratings[user].avgRating = rating;\n            ratings[user].lastFive[0] = rating;\n            ratings[user].numRatings++;\n        }\n    }\n\n    function getNumRatings (address user) public view returns(uint128){\n        return ratings[user].numRatings;\n    }\n\n    function getAvgRating (address user) public view returns(uint128){\n        return ratings[user].avgRating;\n    }\n\n    function getLastFive (address user) public view returns(uint128[5] memory) {\n        return ratings[user].lastFive;\n    }\n\n}\n\ncontract TaskContract is bcaiReputation{\n\n    mapping (address => Provider) public providerList;   //provAddr => provider struct\n    mapping (address => Request)  public requestList;    //reqAddr => request struct\n\n    struct Request {\n        uint256 blockNumber;                //record the time of submission\n        address payable provider;           //record the provider assigned to this request\n        uint64  time;                       //maximum time requirements                 TODO: determine the unit and format\n        uint16  target;                     //target 0-100.00                           TODO: determine the unit and format\n        uint256 price;                      //the max amount he willing to pay          TODO: determine the unit and format\n        bytes   dataID;                     //dataID used to fetch the off-chain data, interact with ipfs\n        bytes   resultID;                   //dataID to fetch the off-chain result, via ipfs\n        uint64  numValidations;             //user defined the number of validation, TODO: fix this as 3\n        address payable[] validators;       //validators' addr, update when assigned the task to validators\n        bool[]  signatures;                 //true or false array, update only when validator submit result\n        bool    isValid;                    //the final flag\n        byte    status;                     //one byte indicating the status: 0: 'pending', 1:'providing', 2: 'validating', 3: 'complete'\n    }\n\n    struct Provider {\n        uint256 blockNumber;                //record the time of submission\n        uint64  maxTime;                    //maxTime of Prov's should be larger than Req's to successfully assign\n        uint16  maxTarget;                  //max target he can provide\n        uint256 minPrice;                   //lowest price he can accept\n        bool    available;                  //if ready to be assigned\n    }\n\n    //should try best to reduce type of events in order to remove unnecessary confusion. -> reuse events with same format\n    //no need seperate events for each type, just put whatever info passed in bytes info\n    event IPFSInfo          (address payable reqAddr, bytes info, bytes extra);\n    event SystemInfo        (address payable reqAddr, bytes info);          //systemInfo is only informative, not trigger anything.\n    event PairingInfo       (address payable reqAddr, address payable provAddr, bytes info);\n    //NOTE: [by TaoLu] extra here are actually dataID, which can also be accessed via reqAddr.\n    //      extra may not be necessary but it makes easier of app to handle info. This retains the tradeoff of gas cost and easyness.\n    event PairingInfoLong   (address payable reqAddr, address payable provAddr, bytes info, bytes extra);\n\n\n    //Pools stores the address of req or prov, thus indicate the stages.\n    address payable[] providerPool;        //provAddr only when more providers > req, or empty\n    address payable[] pendingPool;         //reqAddr only when more requests > prov, or empty\n    address payable[] providingPool;       //reqAddr\n    address payable[] validatingPool;      //reqAddr\n    /////////////////////////////////////////////////////////////////////////////////////\n\n    // Function called to become a provider. Add address on List, and Pool if not instantly assigned.\n    // TIPS on gas cost: don't create local copy and write back, modify the storage directly.\n    //      gas cost 165K without event / 167K with event / 92K overwrite\n    function startProviding(uint64 maxTime, uint16 maxTarget, uint64 minPrice) public returns (bool) {\n        if(providerList[msg.sender].blockNumber == 0){                  //if this is new\n            providerList[msg.sender].blockNumber = block.number;\n            providerList[msg.sender].maxTime = maxTime;\n            providerList[msg.sender].maxTarget = maxTarget;\n            providerList[msg.sender].minPrice = minPrice;\n            providerList[msg.sender].available = true;\n\n            providerPool.push(msg.sender);\n            emit SystemInfo (msg.sender, \"Provider Added\");\n            return true;\n        }\n        else {                                                          //this address has been recorded before\n            return updateProvider(maxTime, maxTarget, minPrice);        //this could be an update\n        }\n    }\n    // Stop a provider. Must be sent from the provider address or it will be failed.\n    function stopProviding() public returns (bool) {\n        // If the sender is currently an active provider\n        if (providerList[msg.sender].available == true){               //can only stop available provider\n            delete providerList[msg.sender];                           //delete from List\n            emit SystemInfo(msg.sender, 'Provider Stopped');\n            return ArrayPop(providerPool, msg.sender);                 //delete from Pool\n        }\n        else{\n            emit SystemInfo(msg.sender, 'Provider Unable to Stop');\n            return false;\n        }\n    }\n    //update a provider, you must know the provAddr and must sent from right addr\n    function updateProvider(uint64 maxTime, uint16 maxTarget, uint64 minPrice) public returns (bool) {\n        if(providerList[msg.sender].available == true){                //can only modify available provider\n            providerList[msg.sender].blockNumber = block.number;\n            providerList[msg.sender].maxTime = maxTime;\n            providerList[msg.sender].maxTarget = maxTarget;\n            providerList[msg.sender].minPrice = minPrice;\n            emit SystemInfo(msg.sender,'Provider Updated');\n            return true;\n        }\n        else{\n            emit SystemInfo(msg.sender, 'Provider Unable to Update');\n            return false;\n        }\n    }\n\n    // Send a request from user to blockchain. Assumes price is including the cost for verification\n    // NOTE: use bytes memory as argument will increase the gas cost, one alternative will be uint type, may consifer in future.\n    function startRequest(uint64 time, uint16 target, uint64 price, bytes memory dataID) public payable returns (bool) {\n        if(requestList[msg.sender].blockNumber == 0){   //never submitted before\n            //register on List\n            requestList[msg.sender].blockNumber = block.number;\n            requestList[msg.sender].provider = address(0);\n            //requestList[msg.sender].validator = address(0);\n            requestList[msg.sender].time = time;\n            requestList[msg.sender].target = target;\n            requestList[msg.sender].price = price;\n            requestList[msg.sender].dataID = dataID;\n            requestList[msg.sender].numValidations = 1;//fixed 3 for testing reasons >> TL: changed this to demo settings\n            requestList[msg.sender].status = '0';       //pending = 0x30, is in ascii not number 0\n            pendingPool.push(msg.sender);\n            emit IPFSInfo (msg.sender, \"Request Added\", dataID);\n            return true;\n        } else {    //submitted before\n            return updateRequest(time, target, price, dataID);\n        }\n    }\n    function stopRequest() public returns (bool){\n        if (requestList[msg.sender].status == '0'){          //can only cancel owned pending request, ('0' = 0x30)\n            delete requestList[msg.sender];                  //delete from List\n            emit SystemInfo(msg.sender, 'Request Stopped');\n            return ArrayPop(pendingPool, msg.sender);        //delete from Pool\n        }\n        else{\n            emit SystemInfo(msg.sender, 'Request Unable to Stop');\n            return false;\n        }\n    }\n    function updateRequest(uint64 time, uint16 target, uint64 price, bytes memory dataID) public payable returns (bool) {\n        if(requestList[msg.sender].status == '0' ){                   //can only update pending request\n            requestList[msg.sender].blockNumber = block.number;\n            requestList[msg.sender].time = time;\n            requestList[msg.sender].target = target;\n            requestList[msg.sender].price = price;\n            requestList[msg.sender].dataID = dataID;\n            emit SystemInfo(msg.sender, 'Request Updated');\n            return true;\n        }\n        else{\n            emit SystemInfo(msg.sender, 'Request Unable to Update');\n            return false;\n        }\n    }\n\n\n    //Add provAddr to request as a provider if they are available and their prices match up\n    //     Called by user who wants to choose provAddr to work for them\n    //     Returns '0' on success, '1' on failure\n    function chooseProvider(address payable provAddr) public returns (byte){\n        if(requestList[msg.sender].status == '0'){ //Since this is ascii '0' its actually 0x30, users who have not submitted a task shouldn't get through here\n            if(providerList[provAddr].available == true && providerList[provAddr].minPrice <= requestList[msg.sender].price){ //if chosen provider is in the providerPool and their prices match\n                \n                providerList[provAddr].available = false;\n                ArrayPop(providerPool, provAddr);\n\n                requestList[msg.sender].provider = provAddr;\n                requestList[msg.sender].status = '1';\n                ArrayPop(pendingPool, msg.sender);\n                providingPool.push(msg.sender);                \n\n                emit PairingInfoLong(msg.sender, provAddr, \"Request Assigned\", requestList[msg.sender].dataID);\n                return '0';\n            }\n            else{\n                emit SystemInfo(msg.sender, 'Chosen provider is not available to work');\n                return '1';\n            }\n        }\n        else if(requestList[msg.sender].status == '2' && requestList[msg.sender].provider != provAddr){\n            providerList[provAddr].available = false;\n            ArrayPop(providerPool, provAddr);\n\n            requestList[msg.sender].validators.push(provAddr);\n            requestList[msg.sender].signatures.push(false);\n            emit PairingInfoLong(msg.sender, provAddr, 'Validation Assigned to Provider', requestList[msg.sender].resultID);\n            return '0';\n        }\n        else{\n            if(requestList[msg.sender].status == '1'){\n                emit SystemInfo(msg.sender, 'Your request already has a provider assigned');\n            }\n            else{\n                emit SystemInfo(msg.sender, 'You do not have a request');\n            }\n            return '1';\n        }\n    }\n\n    // Search in the requestPool, find a job for current provider. Triggered by startProviding\n    // Returns: note: return value all in ascii format\n    //          0: successfully assigned\n    //          1: searched all providers but find no match\n    //          2: no available provider right now\n    //          3: failure during poping pool\n    // function assignProvider(address payable provAddr) private returns (byte){\n    //     if(pendingPool.length == 0) return '2';     //no pending requests\n    //     else {   //search throught the requestPool\n    //         for (uint64 i = 0; i < pendingPool.length; i++){\n    //             address payable reqAddr = pendingPool[i];\n    //             if( (reqAddr != address(0) && requestList[reqAddr].status != '1') &&\n    //                 requestList[reqAddr].time <= providerList[provAddr].maxTime &&\n    //                 requestList[reqAddr].target <= providerList[provAddr].maxTarget &&\n    //                 requestList[reqAddr].price >= providerList[provAddr].minPrice){\n    //                     //meet the requirement, assign the task\n    //                     //update provider\n    //                     providerList[provAddr].available = false;\n    //                     ArrayPop(providerPool, provAddr);\n    //                     //update request\n    //                     requestList[reqAddr].provider = provAddr;\n    //                     requestList[reqAddr].status = '1';    //providing\n    //                     ArrayPop(pendingPool, reqAddr);\n    //                     providingPool.push(reqAddr);\n    //                     //status move from pending to providing\n    //                     emit PairingInfoLong(reqAddr, provAddr, \"Request Assigned\", requestList[reqAddr].dataID);\n    //                     return '0';\n    //             }\n    //         }\n    //         //after for loop and no match\n    //         return '1';\n    //     }\n    // }\n\n    // Assigning one task to one of the available providers. Only called from requestTask (private)\n    // Search in the providerPool, if no match in the end, return false\n    //could only assign one task at a time\n    //auto sel the first searching result for now, no comparation between multiple availability.\n    //TODO: need ot add preference next patch\n    // Returns: 0: successfully assigned\n    //          1: searched all providers but find no match\n    //          2: no available provider right now\n    //          3: failure during poping pool\n    // function assignRequest(address payable reqAddr) private returns (byte) {\n    //     //provider availability is checked in pool not in list\n    //     if (providerPool.length == 0)   return '2';\n    //     else {            //if any provider in pool\n    //         for (uint64 i = 0; i < providerPool.length; i++) {\n    //             address payable provAddr = providerPool[i];   // save the provider's addr, reusable and save gas cost\n    //             if (provAddr != address(0) && providerList[provAddr].available == true){\n    //                 // Check if request conditions meet the providers requirements\n    //                 if (requestList[reqAddr].target <= providerList[provAddr].maxTarget &&\n    //                     requestList[reqAddr].time <= providerList[provAddr].maxTime &&\n    //                     requestList[reqAddr].price >= providerList[provAddr].minPrice) {\n    //                     //update provider:\n    //                     providerList[provAddr].available = false;\n    //                     ArrayPop(providerPool, provAddr);\n    //                     //update request\n    //                     requestList[reqAddr].provider = provAddr;\n    //                     requestList[reqAddr].status = '1';    //providing\n    //                     ArrayPop(pendingPool, reqAddr);\n    //                     providingPool.push(reqAddr);\n    //                     // Let provider listen for this event to see he was selected\n    //                     emit PairingInfoLong(reqAddr, provAddr, \"Request Assigned\", requestList[reqAddr].dataID);\n    //                     return '0';\n    //                 }\n    //             }\n    //         }\n    //         return '1';\n    //     }\n    // }\n\n    // Provider will call this when they are done and the result data is available.\n    // This will invoke the validation stage. Only when the request got enough validators,\n    // that req could be moved from pool and marked. Or that req stays providing\n    function completeRequest(address payable reqAddr, bytes memory resultID) public returns (bool) {\n        // Confirm msg.sender is actually the provider of the task he claims\n        if (msg.sender == requestList[reqAddr].provider) {\n            //change request obj\n            requestList[reqAddr].status = '2';    //validating\n            requestList[reqAddr].resultID = resultID;\n            //move from providing pool to validating Pool.\n            ArrayPop(providingPool, reqAddr);\n            validatingPool.push(reqAddr);\n            //release provider (not necessarily depend on provider) back into providerPool\n            providerList[msg.sender].available = true;\n            providerPool.push(msg.sender);\n            emit IPFSInfo(reqAddr, 'Request Computation Completed',requestList[reqAddr].resultID);\n            //start validation process\n            return true;\n        }\n        else {\n            return false;\n        }\n    }\n\n    // Called by completeRequest before finalizing stuff. NOTE: must have no validators right now\n    // Try to find as many as possible qualified validators\n    // Returns false if there wasnt enough free providers to send out the required number of validation requests\n    // need validation from 1/10 of nodes -- could change\n    // function validateRequest(address payable reqAddr) private returns (bool) {\n    //     uint64 validatorsFound = 0;\n    //     //select # of available provider from the pool and force em to do the validation\n    //     for (uint64 i = 1; i <= providerPool.length; i++) {\n    //         address payable provAddr = providerPool[i - 1]; //get provider ID\n    //         //TODO: check whether selected validator capable with parameters (time, accuracy,....)\n    //         if(provAddr != requestList[reqAddr].provider){   //validator and computer cannot be same\n    //             emit PairingInfoLong(reqAddr, provAddr, 'Validation Assigned to Provider', requestList[reqAddr].resultID);\n    //             validatorsFound++;\n    //             //remove the providers availablity and pop from pool\n    //             requestList[reqAddr].validators.push(provAddr);\n    //             requestList[reqAddr].signatures.push(false);    //push false to hold position\n    //             providerList[provAddr].available = false;\n    //             ArrayPop(providerPool, provAddr);\n    //             i--;\n\n    //         } else continue;    //skip the provider/computer itself\n    //         //check whether got enough validator\n    //         if(validatorsFound < requestList[reqAddr].numValidations){\n    //             continue;\n    //         }\n    //         else{       //enough validator\n    //             emit SystemInfo(reqAddr, 'Enough Validators');\n    //             return true;\n    //         }\n    //         //loop until certain # of validators selected\n    //     }\n    //     //exit loop without enough validators\n    //     emit SystemInfo(reqAddr, 'Not Enough Validators');\n    //     return false;\n    // }\n\n    // needs to be more secure by ensuring the submission is coming from someone legit\n    // similar to completeTask but this will sign the validation list of the target Task\n    // TODO: the money part is ommited for now\n    function submitValidation(address payable reqAddr, bool result) public returns (bool) {\n        if(msg.sender != requestList[reqAddr].provider) {     //validator cannot be provider\n            for (uint64 i = 0; i<requestList[reqAddr].validators.length; i++){\n                if(requestList[reqAddr].validators[i] == msg.sender &&  // vali must be previous validator assigned\n                requestList[reqAddr].signatures[i] == false){        // not yet signed\n                    requestList[reqAddr].signatures[i] = result;        //length is matched, this prevent multi-submission and can update his own\n                    providerList[msg.sender].available = true;          //release validator\n                    providerPool.push(msg.sender);\n                    emit PairingInfo(reqAddr, msg.sender, 'Validator Signed');\n                }\n                else continue;   //either submitted already or not find , go for next\n            }\n            checkValidation(reqAddr);\n        }\n        else   //submit vali from provider\n            return false;\n\n    }\n\n    //TODO: what if result is invalid\n    function checkValidation(address payable reqAddr) private returns (bool) {\n        bool flag = false;\n        uint64 successCount = 0;\n        for (uint64 i = 0; i<requestList[reqAddr].signatures.length; i++) {\n           if (requestList[reqAddr].signatures[i] == true) successCount += 1;\n        }\n        if (successCount >= requestList[reqAddr].numValidations) {\n            requestList[reqAddr].isValid = true; // Task was successfully completed!\n            emit IPFSInfo(reqAddr, 'Validation Complete', requestList[reqAddr].resultID);\n        }\n        return flag;\n    }\n\n\n    // called by startProviding if the validatingPool is not empty\n    // assigns the new provider to validate a task\n    // IDEA: Could be modified so that any available provider could call. For now it assumes only used on new providers in startProviding\n    // function findValidation(address payable provAddr) private {\n    //     for(uint64 i = 0; i < validatingPool.length; i++){  //search the entire validatingpool\n    //         address payable reqAddr = validatingPool[i]; //set reqAddr current task\n    //         if(requestList[reqAddr].numValidations > requestList[reqAddr].validators.length){ //check to see if the task has enough validators\n    //             //since the provAddr is a new provider, we don't need to check if he is already a validator, should be impossible unless bug exists\n    //             if(provAddr != requestList[reqAddr].provider){ //check to make sure he is not the privider\n    //                 emit PairingInfoLong(reqAddr, provAddr, 'Validation Assigned to Provider',requestList[reqAddr].resultID);\n    //                 requestList[reqAddr].validators.push(provAddr);\n    //                 requestList[reqAddr].signatures.push(false);    //extend length to match length of validator list\n    //                 providerList[provAddr].available = false;\n    //                 ArrayPop(providerPool, provAddr);\n\n    //                 //alert task owner if their task now has enough validators\n    //                 if(requestList[validatingPool[i]].validators.length == requestList[validatingPool[i]].numValidations){\n    //                     emit SystemInfo(reqAddr, 'Enough Validators');\n    //                 }\n    //                 break;\n    //             }\n    //             //else he is provider, did nothing\n    //         }\n    //         else continue; //this req has already got enough, check next\n    //     }\n    // }\n\n    // finalize the completed result, move everything out of current pools\n    function finalizeRequest(address payable reqAddr, bool toRate, uint8 rating) public returns (bool) {\n        if(requestList[reqAddr].isValid){\n            ArrayPop(validatingPool, reqAddr);\n            if(toRate){ //If user wishes to, let them rate the provider\n                addRating(requestList[reqAddr].provider, rating);\n            }\n            delete requestList[reqAddr]; //delete user from mapping\n        }\n    }\n\n\n/////////////////////////////////////////////////////////////////////\n    // Used to dynamically remove elements from array of open provider spaces.\n    // Using a swap and delete method, search for the desired addr throughout the whole array\n    // delete the desired and swap the hole with last element\n    function ArrayPop(address payable[] storage array, address payable target) private returns (bool) {\n        for(uint64 i = 0; i < array.length; i++){\n            if (array[i] == target) {\n                array[i] = array[array.length-1];   //swap last element with hole\n                delete array[array.length-1];       //delete last item\n                array.length -= 1;                  //decrease size\n                return true;\n            }\n        }\n        return false;   //fail to search: no matching in pool\n    }\n    \n    /////////////////////////////////////////////////////////////////////////////////\n    //some helpers defined here\n    //NOTE: these helpers will use up the code space, (in Ethereum code lenght is limited)\n    //      can be removed in future to free up space.\n\n    // function getProvider(address payable ID) public view returns(Provider memory){\n    //     return providerList[ID];\n    // }\n    // function getRequest(address payable ID) public view returns (Request memory){\n\t//     return requestList[ID];\n    // }\n\n    function getProviderPool() public view returns (address payable[] memory){\n        return providerPool;\n    }\n    function getPendingPool() public view returns (address payable[] memory){\n        return pendingPool;\n    }\n    function getValidatingPool() public view returns (address payable[] memory){\n        return validatingPool;\n    }\n    function getProvidingPool() public view returns (address payable[] memory){\n        return providingPool;\n    }\n\n    // function getProviderPoolSize() public view returns (uint256){\n    //     return providerPool.length;\n    // }\n    // function getRequestPoolSize() public view returns (uint256){\n    //     return pendingPool.length;\n    // }\n}\n",
  "sourcePath": "/home/pedriv/Desktop/BCAI/bcai_deploy/contracts/bcai.sol",
  "compiler": {
    "name": "solc",
    "version": "0.5.1+commit.c8a2cb62.Emscripten.clang"
  },
  "schemaVersion": "3.0.23",
  "updatedAt": "2020-04-13T22:10:49.369Z",
  "networkType": "ethereum",
  "devdoc": {
    "methods": {}
  },
  "userdoc": {
    "methods": {}
  }
}