{
  "contractName": "Reputation",
  "abi": [
    {
      "constant": true,
      "inputs": [
        {
          "name": "",
          "type": "address"
        }
      ],
      "name": "ratingList",
      "outputs": [
        {
          "name": "",
          "type": "uint32"
        }
      ],
      "payable": false,
      "stateMutability": "view",
      "type": "function",
      "signature": "0x550e91e6"
    },
    {
      "constant": true,
      "inputs": [],
      "name": "providerCount",
      "outputs": [
        {
          "name": "",
          "type": "uint256"
        }
      ],
      "payable": false,
      "stateMutability": "view",
      "type": "function",
      "signature": "0x74c83268"
    },
    {
      "inputs": [
        {
          "name": "preDeployed",
          "type": "address"
        }
      ],
      "payable": false,
      "stateMutability": "nonpayable",
      "type": "constructor",
      "signature": "constructor"
    },
    {
      "constant": false,
      "inputs": [
        {
          "name": "provID",
          "type": "address"
        },
        {
          "name": "rating",
          "type": "uint32"
        }
      ],
      "name": "Rate",
      "outputs": [
        {
          "name": "",
          "type": "bool"
        }
      ],
      "payable": false,
      "stateMutability": "nonpayable",
      "type": "function",
      "signature": "0x1a5c493a"
    },
    {
      "constant": false,
      "inputs": [
        {
          "name": "maxTime",
          "type": "uint64"
        },
        {
          "name": "maxTarget",
          "type": "uint16"
        },
        {
          "name": "minPrice",
          "type": "uint64"
        }
      ],
      "name": "remoteStart",
      "outputs": [
        {
          "name": "",
          "type": "bool"
        }
      ],
      "payable": false,
      "stateMutability": "nonpayable",
      "type": "function",
      "signature": "0xc1528d0b"
    },
    {
      "constant": true,
      "inputs": [],
      "name": "localCount",
      "outputs": [
        {
          "name": "",
          "type": "uint256"
        }
      ],
      "payable": false,
      "stateMutability": "view",
      "type": "function",
      "signature": "0xbacf6d6b"
    },
    {
      "constant": true,
      "inputs": [],
      "name": "remoteCount",
      "outputs": [
        {
          "name": "",
          "type": "uint256"
        }
      ],
      "payable": false,
      "stateMutability": "view",
      "type": "function",
      "signature": "0xb9c29d03"
    }
  ],
  "bytecode": "0x608060405234801561001057600080fd5b506040516020806105b58339810180604052602081101561003057600080fd5b8101908080519060200190929190505050600060018190555080600260006101000a81548173ffffffffffffffffffffffffffffffffffffffff021916908373ffffffffffffffffffffffffffffffffffffffff1602179055505061051b8061009a6000396000f3fe608060405260043610610078576000357c0100000000000000000000000000000000000000000000000000000000900463ffffffff1680631a5c493a1461007d578063550e91e6146100f657806374c8326814610167578063b9c29d0314610192578063bacf6d6b146101bd578063c1528d0b146101e8575b600080fd5b34801561008957600080fd5b506100dc600480360360408110156100a057600080fd5b81019080803573ffffffffffffffffffffffffffffffffffffffff169060200190929190803563ffffffff169060200190929190505050610267565b604051808215151515815260200191505060405180910390f35b34801561010257600080fd5b506101456004803603602081101561011957600080fd5b81019080803573ffffffffffffffffffffffffffffffffffffffff1690602001909291905050506102e0565b604051808263ffffffff1663ffffffff16815260200191505060405180910390f35b34801561017357600080fd5b5061017c610303565b6040518082815260200191505060405180910390f35b34801561019e57600080fd5b506101a7610309565b6040518082815260200191505060405180910390f35b3480156101c957600080fd5b506101d26103cf565b6040518082815260200191505060405180910390f35b3480156101f457600080fd5b5061024d6004803603606081101561020b57600080fd5b81019080803567ffffffffffffffff169060200190929190803561ffff169060200190929190803567ffffffffffffffff1690602001909291905050506103d9565b604051808215151515815260200191505060405180910390f35b6000816000808573ffffffffffffffffffffffffffffffffffffffff1673ffffffffffffffffffffffffffffffffffffffff16815260200190815260200160002060006101000a81548163ffffffff021916908363ffffffff160217905550600180600082825401925050819055506001905092915050565b60006020528060005260406000206000915054906101000a900463ffffffff1681565b60015481565b6000600260009054906101000a900473ffffffffffffffffffffffffffffffffffffffff1673ffffffffffffffffffffffffffffffffffffffff166346ce41756040518163ffffffff167c010000000000000000000000000000000000000000000000000000000002815260040160206040518083038186803b15801561038f57600080fd5b505afa1580156103a3573d6000803e3d6000fd5b505050506040513d60208110156103b957600080fd5b8101908080519060200190929190505050905090565b6000600154905090565b6000600260009054906101000a900473ffffffffffffffffffffffffffffffffffffffff1673ffffffffffffffffffffffffffffffffffffffff16632ddfdbcc8585856040518463ffffffff167c0100000000000000000000000000000000000000000000000000000000028152600401808467ffffffffffffffff1667ffffffffffffffff1681526020018361ffff1661ffff1681526020018267ffffffffffffffff1667ffffffffffffffff1681526020019350505050602060405180830381600087803b1580156104ac57600080fd5b505af11580156104c0573d6000803e3d6000fd5b505050506040513d60208110156104d657600080fd5b810190808051906020019092919050505050939250505056fea165627a7a7230582070b11d2eb329493d05701fc4780a8ed6691005ddcc2808c75285bd4fa6b2c0900029",
  "source": "// version 0.1\n// Taurus @2019\n// This is an example of how to set up multiple contract that can call each other\n// goal:\n// 1. contract can call a remote function\n// 2. both contract can call each other\n\n\n//NOTE: [Tutorial] https://medium.com/@blockchain101/calling-the-function-of-another-contract-in-solidity-f9edfa921f4c\n\n\npragma solidity ^0.5.0;\n//pragma experimental ABIEncoderV2;           //enable returning self-defined type, used in helper return provider and request\n                                            //do not disable, provider is returned for debuging reason.\n\n\n//declare the existing contract before use it.\n// Option 1: use import\n//import './bcai.sol';     //file name must match\n// Option 2: declare whatever you need\ncontract TaskContract{\n    function startProviding(uint64 maxTime, uint16 maxTarget, uint64 minPrice) public returns (bool);\n    function getProviderCount() public view returns (uint256);\n}\n\n\n\ncontract Reputation {\n    //list\n    mapping (address => uint32)   public ratingList;   //provAddr => provider struct\n\n    //ID - counter\n    uint256 public providerCount;                       //+1 each time;\n\n    TaskContract tc;      //declare an existing contract object\n\n    constructor(address preDeployed) public {                               //sol 5.0 syntax\n        providerCount = 0;\n        tc = TaskContract(preDeployed);     // instanciate a contract using address\n        //NOTE instantiate can also be done within local functions, but will require sending address as well\n    }\n\n\n    // an example of local function can be call by outside to modify local mapping\n    function Rate(address provID, uint32 rating) public returns (bool){\n        ratingList[provID] = rating;\n        providerCount += 1;\n        return true;\n    }\n\n    // an exapme of calling an existing contract (ex. BCAI)\n    function remoteStart(uint64 maxTime, uint16 maxTarget, uint64 minPrice) public returns (bool){\n        tc.startProviding(maxTime, maxTarget, minPrice);\n    }\n\n    function localCount() public view returns (uint256){\n        return providerCount;\n    }\n\n    function remoteCount() public view returns (uint256){\n        return tc.getProviderCount();\n    }\n\n}\n\n//NOTE: Now don't forget to check the deploy script at ./migrations/2_deploy_contracts.js",
  "sourcePath": "/home/taurus/blockchain/BCAI/bcai_deploy/contracts/reputation.sol",
  "compiler": {
    "name": "solc",
    "version": "0.5.0+commit.1d4f565a.Emscripten.clang"
  },
  "schemaVersion": "3.0.0-beta.2",
  "updatedAt": "2019-09-16T18:56:50.254Z",
  "devdoc": {
    "methods": {}
  },
  "userdoc": {
    "methods": {}
  }
}