{
  "contractName": "TaskContract",
  "abi": [
    {
      "constant": true,
      "inputs": [
        {
          "name": "",
          "type": "address"
        }
      ],
      "name": "requestList",
      "outputs": [
        {
          "name": "blockNumber",
          "type": "uint256"
        },
        {
          "name": "provider",
          "type": "address"
        },
        {
          "name": "deposit",
          "type": "uint256"
        },
        {
          "name": "price",
          "type": "uint256"
        },
        {
          "name": "dataID",
          "type": "bytes"
        },
        {
          "name": "resultID",
          "type": "bytes"
        },
        {
          "name": "validator",
          "type": "address"
        },
        {
          "name": "signature",
          "type": "bool"
        },
        {
          "name": "isValid",
          "type": "bool"
        },
        {
          "name": "status",
          "type": "bytes1"
        }
      ],
      "payable": false,
      "stateMutability": "view",
      "type": "function"
    },
    {
      "constant": true,
      "inputs": [
        {
          "name": "user",
          "type": "address"
        }
      ],
      "name": "getLastFive",
      "outputs": [
        {
          "name": "",
          "type": "uint128[5]"
        }
      ],
      "payable": false,
      "stateMutability": "view",
      "type": "function"
    },
    {
      "constant": true,
      "inputs": [
        {
          "name": "",
          "type": "address"
        }
      ],
      "name": "providerList",
      "outputs": [
        {
          "name": "blockNumber",
          "type": "uint256"
        },
        {
          "name": "available",
          "type": "bool"
        }
      ],
      "payable": false,
      "stateMutability": "view",
      "type": "function"
    },
    {
      "constant": true,
      "inputs": [
        {
          "name": "user",
          "type": "address"
        }
      ],
      "name": "getAvgRating",
      "outputs": [
        {
          "name": "",
          "type": "uint128"
        }
      ],
      "payable": false,
      "stateMutability": "view",
      "type": "function"
    },
    {
      "constant": true,
      "inputs": [
        {
          "name": "",
          "type": "address"
        }
      ],
      "name": "ratings",
      "outputs": [
        {
          "name": "numRatings",
          "type": "uint128"
        },
        {
          "name": "avgRating",
          "type": "uint128"
        },
        {
          "name": "newUser",
          "type": "bool"
        }
      ],
      "payable": false,
      "stateMutability": "view",
      "type": "function"
    },
    {
      "constant": true,
      "inputs": [
        {
          "name": "user",
          "type": "address"
        }
      ],
      "name": "getNumRatings",
      "outputs": [
        {
          "name": "",
          "type": "uint128"
        }
      ],
      "payable": false,
      "stateMutability": "view",
      "type": "function"
    },
    {
      "anonymous": false,
      "inputs": [
        {
          "indexed": false,
          "name": "reqAddr",
          "type": "address"
        },
        {
          "indexed": false,
          "name": "info",
          "type": "bytes"
        },
        {
          "indexed": false,
          "name": "extra",
          "type": "bytes"
        }
      ],
      "name": "IPFSInfo",
      "type": "event"
    },
    {
      "anonymous": false,
      "inputs": [
        {
          "indexed": false,
          "name": "reqAddr",
          "type": "address"
        },
        {
          "indexed": false,
          "name": "info",
          "type": "bytes"
        }
      ],
      "name": "SystemInfo",
      "type": "event"
    },
    {
      "anonymous": false,
      "inputs": [
        {
          "indexed": false,
          "name": "reqAddr",
          "type": "address"
        },
        {
          "indexed": false,
          "name": "provAddr",
          "type": "address"
        },
        {
          "indexed": false,
          "name": "info",
          "type": "bytes"
        }
      ],
      "name": "PairingInfo",
      "type": "event"
    },
    {
      "anonymous": false,
      "inputs": [
        {
          "indexed": false,
          "name": "reqAddr",
          "type": "address"
        },
        {
          "indexed": false,
          "name": "provAddr",
          "type": "address"
        },
        {
          "indexed": false,
          "name": "info",
          "type": "bytes"
        },
        {
          "indexed": false,
          "name": "extra",
          "type": "bytes"
        }
      ],
      "name": "PairingInfoLong",
      "type": "event"
    },
    {
      "constant": false,
      "inputs": [],
      "name": "startProviding",
      "outputs": [
        {
          "name": "",
          "type": "bool"
        }
      ],
      "payable": false,
      "stateMutability": "nonpayable",
      "type": "function"
    },
    {
      "constant": false,
      "inputs": [],
      "name": "stopProviding",
      "outputs": [
        {
          "name": "",
          "type": "bool"
        }
      ],
      "payable": false,
      "stateMutability": "nonpayable",
      "type": "function"
    },
    {
      "constant": false,
      "inputs": [
        {
          "name": "dataID",
          "type": "bytes"
        }
      ],
      "name": "startRequest",
      "outputs": [
        {
          "name": "",
          "type": "bool"
        }
      ],
      "payable": true,
      "stateMutability": "payable",
      "type": "function"
    },
    {
      "constant": false,
      "inputs": [],
      "name": "stopRequest",
      "outputs": [
        {
          "name": "",
          "type": "bool"
        }
      ],
      "payable": false,
      "stateMutability": "nonpayable",
      "type": "function"
    },
    {
      "constant": false,
      "inputs": [
        {
          "name": "dataID",
          "type": "bytes"
        }
      ],
      "name": "updateRequest",
      "outputs": [
        {
          "name": "",
          "type": "bool"
        }
      ],
      "payable": true,
      "stateMutability": "payable",
      "type": "function"
    },
    {
      "constant": false,
      "inputs": [
        {
          "name": "provAddr",
          "type": "address"
        }
      ],
      "name": "chooseProvider",
      "outputs": [
        {
          "name": "",
          "type": "bytes1"
        }
      ],
      "payable": false,
      "stateMutability": "nonpayable",
      "type": "function"
    },
    {
      "constant": false,
      "inputs": [
        {
          "name": "reqAddr",
          "type": "address"
        },
        {
          "name": "resultID",
          "type": "bytes"
        }
      ],
      "name": "completeRequest",
      "outputs": [
        {
          "name": "",
          "type": "bool"
        }
      ],
      "payable": false,
      "stateMutability": "nonpayable",
      "type": "function"
    },
    {
      "constant": false,
      "inputs": [
        {
          "name": "reqAddr",
          "type": "address"
        },
        {
          "name": "result",
          "type": "bool"
        }
      ],
      "name": "submitValidation",
      "outputs": [
        {
          "name": "",
          "type": "bool"
        }
      ],
      "payable": false,
      "stateMutability": "nonpayable",
      "type": "function"
    },
    {
      "constant": false,
      "inputs": [
        {
          "name": "reqAddr",
          "type": "address"
        },
        {
          "name": "toRate",
          "type": "bool"
        },
        {
          "name": "rating",
          "type": "uint8"
        }
      ],
      "name": "finalizeRequest",
      "outputs": [
        {
          "name": "",
          "type": "bool"
        }
      ],
      "payable": false,
      "stateMutability": "nonpayable",
      "type": "function"
    },
    {
      "constant": true,
      "inputs": [],
      "name": "getProviderPool",
      "outputs": [
        {
          "name": "",
          "type": "address[]"
        }
      ],
      "payable": false,
      "stateMutability": "view",
      "type": "function"
    },
    {
      "constant": true,
      "inputs": [],
      "name": "getPendingPool",
      "outputs": [
        {
          "name": "",
          "type": "address[]"
        }
      ],
      "payable": false,
      "stateMutability": "view",
      "type": "function"
    },
    {
      "constant": true,
      "inputs": [],
      "name": "getValidatingPool",
      "outputs": [
        {
          "name": "",
          "type": "address[]"
        }
      ],
      "payable": false,
      "stateMutability": "view",
      "type": "function"
    },
    {
      "constant": true,
      "inputs": [],
      "name": "getProvidingPool",
      "outputs": [
        {
          "name": "",
          "type": "address[]"
        }
      ],
      "payable": false,
      "stateMutability": "view",
      "type": "function"
    }
  ],
  "bytecode": "0x6080604052662386f26fc1000060015534801561001b57600080fd5b506145d38061002b6000396000f3fe608060405260043610610101576000357c010000000000000000000000000000000000000000000000000000000090048063040d2762146101065780630708799e146101315780630ad879c3146101775780630e1e4a3c146101b457806313df8321146101f25780631dc8c80e1461022f5780631f1dab451461025a57806332c5200d146102855780633432d0f5146102b05780634e6472dc146102ed5780636ca43b8d1461032a5780639e01dfbb146103675780639e723b97146103a6578063a2ec6701146103d1578063a9ecaae71461040e578063aacee7df14610439578063b277493414610469578063c067744714610494578063ca8a37b3146104d1575b600080fd5b34801561011257600080fd5b5061011b610501565b6040516101289190614224565b60405180910390f35b34801561013d57600080fd5b506101586004803603610153919081019061362d565b610747565b60405161016e9a999897969594939291906142cc565b60405180910390f35b34801561018357600080fd5b5061019e6004803603610199919081019061362d565b610951565b6040516101ab9190614209565b60405180910390f35b3480156101c057600080fd5b506101db60048036036101d6919081019061362d565b610a21565b6040516101e9929190614376565b60405180910390f35b3480156101fe57600080fd5b506102196004803603610214919081019061362d565b610a52565b604051610226919061427a565b60405180910390f35b34801561023b57600080fd5b50610244610ab9565b6040516102519190614224565b60405180910390f35b34801561026657600080fd5b5061026f610c51565b60405161027c91906141e7565b60405180910390f35b34801561029157600080fd5b5061029a610cdf565b6040516102a791906141e7565b60405180910390f35b3480156102bc57600080fd5b506102d760048036036102d2919081019061367f565b610d6d565b6040516102e49190614224565b60405180910390f35b3480156102f957600080fd5b50610314600480360361030f9190810190613656565b611483565b604051610321919061423f565b60405180910390f35b34801561033657600080fd5b50610351600480360361034c919081019061370a565b611d1f565b60405161035e9190614224565b60405180910390f35b34801561037357600080fd5b5061038e6004803603610389919081019061362d565b61206a565b60405161039d93929190614295565b60405180910390f35b3480156103b257600080fd5b506103bb6120d9565b6040516103c891906141e7565b60405180910390f35b3480156103dd57600080fd5b506103f860048036036103f3919081019061362d565b612167565b604051610405919061427a565b60405180910390f35b34801561041a57600080fd5b506104236121ce565b60405161043091906141e7565b60405180910390f35b610453600480360361044e919081019061375e565b61225c565b6040516104609190614224565b60405180910390f35b34801561047557600080fd5b5061047e612435565b60405161048b9190614224565b60405180910390f35b3480156104a057600080fd5b506104bb60048036036104b691908101906136bb565b612579565b6040516104c89190614224565b60405180910390f35b6104eb60048036036104e6919081019061375e565b61275e565b6040516104f89190614224565b60405180910390f35b60007f3000000000000000000000000000000000000000000000000000000000000000600360003373ffffffffffffffffffffffffffffffffffffffff1673ffffffffffffffffffffffffffffffffffffffff16815260200190815260200160002060060160169054906101000a90047f0100000000000000000000000000000000000000000000000000000000000000027effffffffffffffffffffffffffffffffffffffffffffffffffffffffffffff1916141561070857600360003373ffffffffffffffffffffffffffffffffffffffff1673ffffffffffffffffffffffffffffffffffffffff1681526020019081526020016000206000808201600090556001820160006101000a81549073ffffffffffffffffffffffffffffffffffffffff02191690556002820160009055600382016000905560048201600061064a919061344b565b60058201600061065a919061344b565b6006820160006101000a81549073ffffffffffffffffffffffffffffffffffffffff02191690556006820160146101000a81549060ff02191690556006820160156101000a81549060ff02191690556006820160166101000a81549060ff021916905550507fa332e7b06782060530f8d1575fcf83b5e831fe3dd09c85e53b0351a7c38ceeac336040516106ee9190613f52565b60405180910390a1610701600533612b78565b9050610744565b7fa332e7b06782060530f8d1575fcf83b5e831fe3dd09c85e53b0351a7c38ceeac336040516107379190613f80565b60405180910390a1600090505b90565b60036020528060005260406000206000915090508060000154908060010160009054906101000a900473ffffffffffffffffffffffffffffffffffffffff1690806002015490806003015490806004018054600181600116156101000203166002900480601f01602080910402602001604051908101604052809291908181526020018280546001816001161561010002031660029004801561082b5780601f106108005761010080835404028352916020019161082b565b820191906000526020600020905b81548152906001019060200180831161080e57829003601f168201915b505050505090806005018054600181600116156101000203166002900480601f0160208091040260200160405190810160405280929190818152602001828054600181600116156101000203166002900480156108c95780601f1061089e576101008083540402835291602001916108c9565b820191906000526020600020905b8154815290600101906020018083116108ac57829003601f168201915b5050505050908060060160009054906101000a900473ffffffffffffffffffffffffffffffffffffffff16908060060160149054906101000a900460ff16908060060160159054906101000a900460ff16908060060160169054906101000a90047f01000000000000000000000000000000000000000000000000000000000000000290508a565b610959613493565b6000808373ffffffffffffffffffffffffffffffffffffffff1673ffffffffffffffffffffffffffffffffffffffff168152602001908152602001600020600101600580602002604051908101604052809291908260058015610a15576020028201916000905b82829054906101000a90046fffffffffffffffffffffffffffffffff166fffffffffffffffffffffffffffffffff1681526020019060100190602082600f010492830192600103820291508084116109c05790505b50505050509050919050565b60026020528060005260406000206000915090508060000154908060010160009054906101000a900460ff16905082565b60008060008373ffffffffffffffffffffffffffffffffffffffff1673ffffffffffffffffffffffffffffffffffffffff16815260200190815260200160002060000160109054906101000a90046fffffffffffffffffffffffffffffffff169050919050565b600080600260003373ffffffffffffffffffffffffffffffffffffffff1673ffffffffffffffffffffffffffffffffffffffff168152602001908152602001600020600001541415610c4d5743600260003373ffffffffffffffffffffffffffffffffffffffff1673ffffffffffffffffffffffffffffffffffffffff168152602001908152602001600020600001819055506001600260003373ffffffffffffffffffffffffffffffffffffffff1673ffffffffffffffffffffffffffffffffffffffff16815260200190815260200160002060010160006101000a81548160ff02191690831515021790555060043390806001815401808255809150509060018203906000526020600020016000909192909190916101000a81548173ffffffffffffffffffffffffffffffffffffffff021916908373ffffffffffffffffffffffffffffffffffffffff160217905550507fa332e7b06782060530f8d1575fcf83b5e831fe3dd09c85e53b0351a7c38ceeac33604051610c3c919061404d565b60405180910390a160019050610c4e565b5b90565b60606006805480602002602001604051908101604052809291908181526020018280548015610cd557602002820191906000526020600020905b8160009054906101000a900473ffffffffffffffffffffffffffffffffffffffff1673ffffffffffffffffffffffffffffffffffffffff1681526020019060010190808311610c8b575b5050505050905090565b60606007805480602002602001604051908101604052809291908181526020018280548015610d6357602002820191906000526020600020905b8160009054906101000a900473ffffffffffffffffffffffffffffffffffffffff1673ffffffffffffffffffffffffffffffffffffffff1681526020019060010190808311610d19575b5050505050905090565b6000600360008473ffffffffffffffffffffffffffffffffffffffff1673ffffffffffffffffffffffffffffffffffffffff16815260200190815260200160002060010160009054906101000a900473ffffffffffffffffffffffffffffffffffffffff1673ffffffffffffffffffffffffffffffffffffffff163373ffffffffffffffffffffffffffffffffffffffff16141515611473573373ffffffffffffffffffffffffffffffffffffffff16600360008573ffffffffffffffffffffffffffffffffffffffff1673ffffffffffffffffffffffffffffffffffffffff16815260200190815260200160002060060160009054906101000a900473ffffffffffffffffffffffffffffffffffffffff1673ffffffffffffffffffffffffffffffffffffffff16148015610ef6575060001515600360008573ffffffffffffffffffffffffffffffffffffffff1673ffffffffffffffffffffffffffffffffffffffff16815260200190815260200160002060060160149054906101000a900460ff161515145b1561146e57600360008473ffffffffffffffffffffffffffffffffffffffff1673ffffffffffffffffffffffffffffffffffffffff16815260200190815260200160002060030154600360008573ffffffffffffffffffffffffffffffffffffffff1673ffffffffffffffffffffffffffffffffffffffff1681526020019081526020016000206002015410151561129f57600360008473ffffffffffffffffffffffffffffffffffffffff1673ffffffffffffffffffffffffffffffffffffffff16815260200190815260200160002060010160009054906101000a900473ffffffffffffffffffffffffffffffffffffffff1673ffffffffffffffffffffffffffffffffffffffff166108fc600360008673ffffffffffffffffffffffffffffffffffffffff1673ffffffffffffffffffffffffffffffffffffffff168152602001908152602001600020600301549081150290604051600060405180830381858888f19350505050158015611072573d6000803e3d6000fd5b507fa332e7b06782060530f8d1575fcf83b5e831fe3dd09c85e53b0351a7c38ceeac600360008573ffffffffffffffffffffffffffffffffffffffff1673ffffffffffffffffffffffffffffffffffffffff16815260200190815260200160002060010160009054906101000a900473ffffffffffffffffffffffffffffffffffffffff1660405161110491906140a9565b60405180910390a1600360008473ffffffffffffffffffffffffffffffffffffffff1673ffffffffffffffffffffffffffffffffffffffff16815260200190815260200160002060030154600360008573ffffffffffffffffffffffffffffffffffffffff1673ffffffffffffffffffffffffffffffffffffffff1681526020019081526020016000206002015410151561129e578273ffffffffffffffffffffffffffffffffffffffff166108fc600360008673ffffffffffffffffffffffffffffffffffffffff1673ffffffffffffffffffffffffffffffffffffffff16815260200190815260200160002060030154600360008773ffffffffffffffffffffffffffffffffffffffff1673ffffffffffffffffffffffffffffffffffffffff16815260200190815260200160002060020154039081150290604051600060405180830381858888f19350505050158015611265573d6000803e3d6000fd5b507fa332e7b06782060530f8d1575fcf83b5e831fe3dd09c85e53b0351a7c38ceeac836040516112959190613ff1565b60405180910390a15b5b81600360008573ffffffffffffffffffffffffffffffffffffffff1673ffffffffffffffffffffffffffffffffffffffff16815260200190815260200160002060060160146101000a81548160ff0219169083151502179055506001600260003373ffffffffffffffffffffffffffffffffffffffff1673ffffffffffffffffffffffffffffffffffffffff16815260200190815260200160002060010160006101000a81548160ff02191690831515021790555060043390806001815401808255809150509060018203906000526020600020016000909192909190916101000a81548173ffffffffffffffffffffffffffffffffffffffff021916908373ffffffffffffffffffffffffffffffffffffffff160217905550507f654163525cabcfa0ce95ecb1f232c75746c89688c42e7e2d52df90d770fc9e5783336040516113eb929190613e69565b60405180910390a17fecb395b2a2ceb57177a24a711e761771826a6a5c10c88fcba80bceca4a92e44683600360008673ffffffffffffffffffffffffffffffffffffffff1673ffffffffffffffffffffffffffffffffffffffff168152602001908152602001600020600501604051611465929190614105565b60405180910390a15b61147c565b6000905061147d565b5b92915050565b60007f3000000000000000000000000000000000000000000000000000000000000000600360003373ffffffffffffffffffffffffffffffffffffffff1673ffffffffffffffffffffffffffffffffffffffff16815260200190815260200160002060060160169054906101000a90047f0100000000000000000000000000000000000000000000000000000000000000027effffffffffffffffffffffffffffffffffffffffffffffffffffffffffffff191614156118915760011515600260008473ffffffffffffffffffffffffffffffffffffffff1673ffffffffffffffffffffffffffffffffffffffff16815260200190815260200160002060010160009054906101000a900460ff1615151415611832576000600260008473ffffffffffffffffffffffffffffffffffffffff1673ffffffffffffffffffffffffffffffffffffffff16815260200190815260200160002060010160006101000a81548160ff0219169083151502179055506115ff600483612b78565b5081600360003373ffffffffffffffffffffffffffffffffffffffff1673ffffffffffffffffffffffffffffffffffffffff16815260200190815260200160002060010160006101000a81548173ffffffffffffffffffffffffffffffffffffffff021916908373ffffffffffffffffffffffffffffffffffffffff1602179055507f3100000000000000000000000000000000000000000000000000000000000000600360003373ffffffffffffffffffffffffffffffffffffffff1673ffffffffffffffffffffffffffffffffffffffff16815260200190815260200160002060060160166101000a81548160ff02191690837f010000000000000000000000000000000000000000000000000000000000000090040217905550611727600533612b78565b5060063390806001815401808255809150509060018203906000526020600020016000909192909190916101000a81548173ffffffffffffffffffffffffffffffffffffffff021916908373ffffffffffffffffffffffffffffffffffffffff160217905550507f2b88768874d596259d3041253784b3217c58817182fb311f4152008bc32b6f393383600360003373ffffffffffffffffffffffffffffffffffffffff1673ffffffffffffffffffffffffffffffffffffffff16815260200190815260200160002060040160405161180293929190613ea5565b60405180910390a17f30000000000000000000000000000000000000000000000000000000000000009050611d1a565b7fa332e7b06782060530f8d1575fcf83b5e831fe3dd09c85e53b0351a7c38ceeac336040516118619190614176565b60405180910390a17f31000000000000000000000000000000000000000000000000000000000000009050611d1a565b7f3200000000000000000000000000000000000000000000000000000000000000600360003373ffffffffffffffffffffffffffffffffffffffff1673ffffffffffffffffffffffffffffffffffffffff16815260200190815260200160002060060160169054906101000a90047f0100000000000000000000000000000000000000000000000000000000000000027effffffffffffffffffffffffffffffffffffffffffffffffffffffffffffff19161480156119de57508173ffffffffffffffffffffffffffffffffffffffff16600360003373ffffffffffffffffffffffffffffffffffffffff1673ffffffffffffffffffffffffffffffffffffffff16815260200190815260200160002060010160009054906101000a900473ffffffffffffffffffffffffffffffffffffffff1673ffffffffffffffffffffffffffffffffffffffff1614155b15611bca576000600260008473ffffffffffffffffffffffffffffffffffffffff1673ffffffffffffffffffffffffffffffffffffffff16815260200190815260200160002060010160006101000a81548160ff021916908315150217905550611a49600483612b78565b5081600360003373ffffffffffffffffffffffffffffffffffffffff1673ffffffffffffffffffffffffffffffffffffffff16815260200190815260200160002060060160006101000a81548173ffffffffffffffffffffffffffffffffffffffff021916908373ffffffffffffffffffffffffffffffffffffffff1602179055506000600360003373ffffffffffffffffffffffffffffffffffffffff1673ffffffffffffffffffffffffffffffffffffffff16815260200190815260200160002060060160146101000a81548160ff0219169083151502179055507f2b88768874d596259d3041253784b3217c58817182fb311f4152008bc32b6f393383600360003373ffffffffffffffffffffffffffffffffffffffff1673ffffffffffffffffffffffffffffffffffffffff168152602001908152602001600020600501604051611b9a93929190613e18565b60405180910390a17f30000000000000000000000000000000000000000000000000000000000000009050611d1a565b7f3100000000000000000000000000000000000000000000000000000000000000600360003373ffffffffffffffffffffffffffffffffffffffff1673ffffffffffffffffffffffffffffffffffffffff16815260200190815260200160002060060160169054906101000a90047f0100000000000000000000000000000000000000000000000000000000000000027effffffffffffffffffffffffffffffffffffffffffffffffffffffffffffff19161415611cbe577fa332e7b06782060530f8d1575fcf83b5e831fe3dd09c85e53b0351a7c38ceeac33604051611cb19190614148565b60405180910390a1611cf6565b7fa332e7b06782060530f8d1575fcf83b5e831fe3dd09c85e53b0351a7c38ceeac33604051611ced919061401f565b60405180910390a15b7f310000000000000000000000000000000000000000000000000000000000000090505b919050565b6000600360008473ffffffffffffffffffffffffffffffffffffffff1673ffffffffffffffffffffffffffffffffffffffff16815260200190815260200160002060010160009054906101000a900473ffffffffffffffffffffffffffffffffffffffff1673ffffffffffffffffffffffffffffffffffffffff163373ffffffffffffffffffffffffffffffffffffffff16141561205f577f3200000000000000000000000000000000000000000000000000000000000000600360008573ffffffffffffffffffffffffffffffffffffffff1673ffffffffffffffffffffffffffffffffffffffff16815260200190815260200160002060060160166101000a81548160ff02191690837f01000000000000000000000000000000000000000000000000000000000000009004021790555081600360008573ffffffffffffffffffffffffffffffffffffffff1673ffffffffffffffffffffffffffffffffffffffff1681526020019081526020016000206005019080519060200190611ea89291906134b6565b50611eb4600684612b78565b5060078390806001815401808255809150509060018203906000526020600020016000909192909190916101000a81548173ffffffffffffffffffffffffffffffffffffffff021916908373ffffffffffffffffffffffffffffffffffffffff160217905550506001600260003373ffffffffffffffffffffffffffffffffffffffff1673ffffffffffffffffffffffffffffffffffffffff16815260200190815260200160002060010160006101000a81548160ff02191690831515021790555060043390806001815401808255809150509060018203906000526020600020016000909192909190916101000a81548173ffffffffffffffffffffffffffffffffffffffff021916908373ffffffffffffffffffffffffffffffffffffffff160217905550507fecb395b2a2ceb57177a24a711e761771826a6a5c10c88fcba80bceca4a92e44683600360008673ffffffffffffffffffffffffffffffffffffffff1673ffffffffffffffffffffffffffffffffffffffff16815260200190815260200160002060050160405161204e929190613fae565b60405180910390a160019050612064565b600090505b92915050565b60006020528060005260406000206000915090508060000160009054906101000a90046fffffffffffffffffffffffffffffffff16908060000160109054906101000a90046fffffffffffffffffffffffffffffffff16908060040160009054906101000a900460ff16905083565b6060600480548060200260200160405190810160405280929190818152602001828054801561215d57602002820191906000526020600020905b8160009054906101000a900473ffffffffffffffffffffffffffffffffffffffff1673ffffffffffffffffffffffffffffffffffffffff1681526020019060010190808311612113575b5050505050905090565b60008060008373ffffffffffffffffffffffffffffffffffffffff1673ffffffffffffffffffffffffffffffffffffffff16815260200190815260200160002060000160009054906101000a90046fffffffffffffffffffffffffffffffff169050919050565b6060600580548060200260200160405190810160405280929190818152602001828054801561225257602002820191906000526020600020905b8160009054906101000a900473ffffffffffffffffffffffffffffffffffffffff1673ffffffffffffffffffffffffffffffffffffffff1681526020019060010190808311612208575b5050505050905090565b60007f3000000000000000000000000000000000000000000000000000000000000000600360003373ffffffffffffffffffffffffffffffffffffffff1673ffffffffffffffffffffffffffffffffffffffff16815260200190815260200160002060060160169054906101000a90047f0100000000000000000000000000000000000000000000000000000000000000027effffffffffffffffffffffffffffffffffffffffffffffffffffffffffffff191614156123f45743600360003373ffffffffffffffffffffffffffffffffffffffff1673ffffffffffffffffffffffffffffffffffffffff1681526020019081526020016000206000018190555081600360003373ffffffffffffffffffffffffffffffffffffffff1673ffffffffffffffffffffffffffffffffffffffff16815260200190815260200160002060040190805190602001906123b39291906134b6565b507fa332e7b06782060530f8d1575fcf83b5e831fe3dd09c85e53b0351a7c38ceeac336040516123e39190613f24565b60405180910390a160019050612430565b7fa332e7b06782060530f8d1575fcf83b5e831fe3dd09c85e53b0351a7c38ceeac336040516124239190613ef6565b60405180910390a1600090505b919050565b600060011515600260003373ffffffffffffffffffffffffffffffffffffffff1673ffffffffffffffffffffffffffffffffffffffff16815260200190815260200160002060010160009054906101000a900460ff161515141561253a57600260003373ffffffffffffffffffffffffffffffffffffffff1673ffffffffffffffffffffffffffffffffffffffff1681526020019081526020016000206000808201600090556001820160006101000a81549060ff021916905550507fa332e7b06782060530f8d1575fcf83b5e831fe3dd09c85e53b0351a7c38ceeac33604051612520919061407b565b60405180910390a1612533600433612b78565b9050612576565b7fa332e7b06782060530f8d1575fcf83b5e831fe3dd09c85e53b0351a7c38ceeac3360405161256991906140d7565b60405180910390a1600090505b90565b6000600360008573ffffffffffffffffffffffffffffffffffffffff1673ffffffffffffffffffffffffffffffffffffffff16815260200190815260200160002060060160159054906101000a900460ff1615612757576125db600785612b78565b50821561265257612651600360008673ffffffffffffffffffffffffffffffffffffffff1673ffffffffffffffffffffffffffffffffffffffff16815260200190815260200160002060010160009054906101000a900473ffffffffffffffffffffffffffffffffffffffff168360ff16612d29565b5b600360008573ffffffffffffffffffffffffffffffffffffffff1673ffffffffffffffffffffffffffffffffffffffff1681526020019081526020016000206000808201600090556001820160006101000a81549073ffffffffffffffffffffffffffffffffffffffff0219169055600282016000905560038201600090556004820160006126e1919061344b565b6005820160006126f1919061344b565b6006820160006101000a81549073ffffffffffffffffffffffffffffffffffffffff02191690556006820160146101000a81549060ff02191690556006820160156101000a81549060ff02191690556006820160166101000a81549060ff021916905550505b9392505050565b600060015434101515156127a7576040517f08c379a000000000000000000000000000000000000000000000000000000000815260040161279e9061425a565b60405180910390fd5b6000600360003373ffffffffffffffffffffffffffffffffffffffff1673ffffffffffffffffffffffffffffffffffffffff168152602001908152602001600020600001541415612b675743600360003373ffffffffffffffffffffffffffffffffffffffff1673ffffffffffffffffffffffffffffffffffffffff168152602001908152602001600020600001819055506000600360003373ffffffffffffffffffffffffffffffffffffffff1673ffffffffffffffffffffffffffffffffffffffff16815260200190815260200160002060010160006101000a81548173ffffffffffffffffffffffffffffffffffffffff021916908373ffffffffffffffffffffffffffffffffffffffff1602179055506000600360003373ffffffffffffffffffffffffffffffffffffffff1673ffffffffffffffffffffffffffffffffffffffff16815260200190815260200160002060060160006101000a81548173ffffffffffffffffffffffffffffffffffffffff021916908373ffffffffffffffffffffffffffffffffffffffff16021790555034600360003373ffffffffffffffffffffffffffffffffffffffff1673ffffffffffffffffffffffffffffffffffffffff16815260200190815260200160002060020181905550600154600360003373ffffffffffffffffffffffffffffffffffffffff1673ffffffffffffffffffffffffffffffffffffffff1681526020019081526020016000206003018190555081600360003373ffffffffffffffffffffffffffffffffffffffff1673ffffffffffffffffffffffffffffffffffffffff1681526020019081526020016000206004019080519060200190612a239291906134b6565b507f3000000000000000000000000000000000000000000000000000000000000000600360003373ffffffffffffffffffffffffffffffffffffffff1673ffffffffffffffffffffffffffffffffffffffff16815260200190815260200160002060060160166101000a81548160ff02191690837f01000000000000000000000000000000000000000000000000000000000000009004021790555060053390806001815401808255809150509060018203906000526020600020016000909192909190916101000a81548173ffffffffffffffffffffffffffffffffffffffff021916908373ffffffffffffffffffffffffffffffffffffffff160217905550507fecb395b2a2ceb57177a24a711e761771826a6a5c10c88fcba80bceca4a92e4463383604051612b569291906141a4565b60405180910390a160019050612b73565b612b708261225c565b90505b919050565b600080600090505b83805490508167ffffffffffffffff161015612d1d578273ffffffffffffffffffffffffffffffffffffffff16848267ffffffffffffffff16815481101515612bc557fe5b9060005260206000200160009054906101000a900473ffffffffffffffffffffffffffffffffffffffff1673ffffffffffffffffffffffffffffffffffffffff161415612d1057836001858054905003815481101515612c2157fe5b9060005260206000200160009054906101000a900473ffffffffffffffffffffffffffffffffffffffff16848267ffffffffffffffff16815481101515612c6457fe5b9060005260206000200160006101000a81548173ffffffffffffffffffffffffffffffffffffffff021916908373ffffffffffffffffffffffffffffffffffffffff160217905550836001858054905003815481101515612cc157fe5b9060005260206000200160006101000a81549073ffffffffffffffffffffffffffffffffffffffff021916905560018481818054905003915081612d059190613536565b506001915050612d23565b8080600101915050612b80565b50600090505b92915050565b60008060008473ffffffffffffffffffffffffffffffffffffffff1673ffffffffffffffffffffffffffffffffffffffff16815260200190815260200160002060000160009054906101000a90046fffffffffffffffffffffffffffffffff166fffffffffffffffffffffffffffffffff1614151561329f5760016000808473ffffffffffffffffffffffffffffffffffffffff1673ffffffffffffffffffffffffffffffffffffffff16815260200190815260200160002060000160009054906101000a90046fffffffffffffffffffffffffffffffff16016fffffffffffffffffffffffffffffffff166000808473ffffffffffffffffffffffffffffffffffffffff1673ffffffffffffffffffffffffffffffffffffffff16815260200190815260200160002060000160109054906101000a90046fffffffffffffffffffffffffffffffff166000808573ffffffffffffffffffffffffffffffffffffffff1673ffffffffffffffffffffffffffffffffffffffff16815260200190815260200160002060000160009054906101000a90046fffffffffffffffffffffffffffffffff160282016fffffffffffffffffffffffffffffffff16811515612eef57fe5b046000808473ffffffffffffffffffffffffffffffffffffffff1673ffffffffffffffffffffffffffffffffffffffff16815260200190815260200160002060000160106101000a8154816fffffffffffffffffffffffffffffffff02191690836fffffffffffffffffffffffffffffffff1602179055506000808373ffffffffffffffffffffffffffffffffffffffff1673ffffffffffffffffffffffffffffffffffffffff168152602001908152602001600020600001600081819054906101000a90046fffffffffffffffffffffffffffffffff168092919060010191906101000a8154816fffffffffffffffffffffffffffffffff02191690836fffffffffffffffffffffffffffffffff160217905550506000600490505b60008160ff16141515613135576000808473ffffffffffffffffffffffffffffffffffffffff1673ffffffffffffffffffffffffffffffffffffffff1681526020019081526020016000206001016001820360ff1660058110151561306d57fe5b600291828204019190066010029054906101000a90046fffffffffffffffffffffffffffffffff166000808573ffffffffffffffffffffffffffffffffffffffff1673ffffffffffffffffffffffffffffffffffffffff1681526020019081526020016000206001018260ff166005811015156130e657fe5b600291828204019190066010026101000a8154816fffffffffffffffffffffffffffffffff02191690836fffffffffffffffffffffffffffffffff16021790555080806001900391505061300c565b50806000808473ffffffffffffffffffffffffffffffffffffffff1673ffffffffffffffffffffffffffffffffffffffff168152602001908152602001600020600101600060058110151561318657fe5b600291828204019190066010026101000a8154816fffffffffffffffffffffffffffffffff02191690836fffffffffffffffffffffffffffffffff16021790555060056000808473ffffffffffffffffffffffffffffffffffffffff1673ffffffffffffffffffffffffffffffffffffffff16815260200190815260200160002060000160009054906101000a90046fffffffffffffffffffffffffffffffff166fffffffffffffffffffffffffffffffff16141561329a5760008060008473ffffffffffffffffffffffffffffffffffffffff1673ffffffffffffffffffffffffffffffffffffffff16815260200190815260200160002060040160006101000a81548160ff0219169083151502179055505b613447565b806000808473ffffffffffffffffffffffffffffffffffffffff1673ffffffffffffffffffffffffffffffffffffffff16815260200190815260200160002060000160106101000a8154816fffffffffffffffffffffffffffffffff02191690836fffffffffffffffffffffffffffffffff160217905550806000808473ffffffffffffffffffffffffffffffffffffffff1673ffffffffffffffffffffffffffffffffffffffff168152602001908152602001600020600101600060058110151561336757fe5b600291828204019190066010026101000a8154816fffffffffffffffffffffffffffffffff02191690836fffffffffffffffffffffffffffffffff1602179055506000808373ffffffffffffffffffffffffffffffffffffffff1673ffffffffffffffffffffffffffffffffffffffff168152602001908152602001600020600001600081819054906101000a90046fffffffffffffffffffffffffffffffff168092919060010191906101000a8154816fffffffffffffffffffffffffffffffff02191690836fffffffffffffffffffffffffffffffff160217905550505b5050565b50805460018160011615610100020316600290046000825580601f106134715750613490565b601f01602090049060005260206000209081019061348f9190613562565b5b50565b60a060405190810160405280600590602082028038833980820191505090505090565b828054600181600116156101000203166002900490600052602060002090601f016020900481019282601f106134f757805160ff1916838001178555613525565b82800160010185558215613525579182015b82811115613524578251825591602001919060010190613509565b5b5090506135329190613562565b5090565b81548183558181111561355d5781836000526020600020918201910161355c9190613562565b5b505050565b61358491905b80821115613580576000816000905550600101613568565b5090565b90565b60006135938235614509565b905092915050565b60006135a7823561451b565b905092915050565b60006135bb823561452d565b905092915050565b600082601f83011215156135d657600080fd5b81356135e96135e4826143cc565b61439f565b9150808252602083016020830185838301111561360557600080fd5b613610838284614546565b50505092915050565b60006136258235614539565b905092915050565b60006020828403121561363f57600080fd5b600061364d84828501613587565b91505092915050565b60006020828403121561366857600080fd5b60006136768482850161359b565b91505092915050565b6000806040838503121561369257600080fd5b60006136a08582860161359b565b92505060206136b1858286016135af565b9150509250929050565b6000806000606084860312156136d057600080fd5b60006136de8682870161359b565b93505060206136ef868287016135af565b925050604061370086828701613619565b9150509250925092565b6000806040838503121561371d57600080fd5b600061372b8582860161359b565b925050602083013567ffffffffffffffff81111561374857600080fd5b613754858286016135c3565b9150509250929050565b60006020828403121561377057600080fd5b600082013567ffffffffffffffff81111561378a57600080fd5b613796848285016135c3565b91505092915050565b6137a881614479565b82525050565b6137b781614467565b82525050565b60006137c882614421565b8084526020840193506137da836143f8565b60005b8281101561380c576137f086835161379f565b6137f98261444d565b91506020860195506001810190506137dd565b50849250505092915050565b6138218161442c565b61382a82614405565b60005b8281101561385c57613840858351613dfa565b6138498261445a565b915060208501945060018101905061382d565b5050505050565b61386c8161448b565b82525050565b61387b81614497565b82525050565b600061388c82614442565b8084526138a0816020860160208601614555565b6138a981614588565b602085010191505092915050565b60006138c282614437565b8084526138d6816020860160208601614555565b6138df81614588565b602085010191505092915050565b60008154600181166000811461390a576001811461392a5761396b565b607f600283041680865260ff19831660208701526040860193505061396b565b600282048086526020860195506139408561440f565b60005b8281101561396257815481890152600182019150602081019050613943565b80880195505050505b505092915050565b6000601882527f5265717565737420556e61626c6520746f2055706461746500000000000000006020830152604082019050919050565b6000601082527f4e6f7420656e6f756768206574686572000000000000000000000000000000006020830152604082019050919050565b6000600f82527f52657175657374205570646174656400000000000000000000000000000000006020830152604082019050919050565b6000601f82527f56616c69646174696f6e2041737369676e656420746f2050726f7669646572006020830152604082019050919050565b6000600f82527f526571756573742053746f7070656400000000000000000000000000000000006020830152604082019050919050565b6000601682527f5265717565737420556e61626c6520746f2053746f70000000000000000000006020830152604082019050919050565b6000601d82527f5265717565737420436f6d7075746174696f6e20436f6d706c657465640000006020830152604082019050919050565b6000602b82527f596f7520686176652072656369657665642070617274206f6620796f7572206460208301527f65706f736974206261636b0000000000000000000000000000000000000000006040830152606082019050919050565b6000601982527f596f7520646f206e6f74206861766520612072657175657374000000000000006020830152604082019050919050565b6000600e82527f50726f76696465722041646465640000000000000000000000000000000000006020830152604082019050919050565b6000601082527f50726f76696465722053746f70706564000000000000000000000000000000006020830152604082019050919050565b6000601282527f596f752068617665206265656e207061696400000000000000000000000000006020830152604082019050919050565b6000601082527f56616c696461746f72205369676e6564000000000000000000000000000000006020830152604082019050919050565b6000601782527f50726f766964657220556e61626c6520746f2053746f700000000000000000006020830152604082019050919050565b6000601082527f526571756573742041737369676e6564000000000000000000000000000000006020830152604082019050919050565b6000601382527f56616c69646174696f6e20436f6d706c657465000000000000000000000000006020830152604082019050919050565b6000602c82527f596f7572207265717565737420616c72656164792068617320612070726f766960208301527f6465722061737369676e656400000000000000000000000000000000000000006040830152606082019050919050565b6000602882527f43686f73656e2070726f7669646572206973206e6f7420617661696c61626c6560208301527f20746f20776f726b0000000000000000000000000000000000000000000000006040830152606082019050919050565b6000600d82527f52657175657374204164646564000000000000000000000000000000000000006020830152604082019050919050565b613e03816144c3565b82525050565b613e12816144ff565b82525050565b6000608082019050613e2d600083018661379f565b613e3a602083018561379f565b8181036040830152613e4b81613a18565b90508181036060830152613e5f81846138ed565b9050949350505050565b6000606082019050613e7e600083018561379f565b613e8b602083018461379f565b8181036040830152613e9c81613c2d565b90509392505050565b6000608082019050613eba600083018661379f565b613ec7602083018561379f565b8181036040830152613ed881613c9b565b90508181036060830152613eec81846138ed565b9050949350505050565b6000604082019050613f0b600083018461379f565b8181036020830152613f1c81613973565b905092915050565b6000604082019050613f39600083018461379f565b8181036020830152613f4a816139e1565b905092915050565b6000604082019050613f67600083018461379f565b8181036020830152613f7881613a4f565b905092915050565b6000604082019050613f95600083018461379f565b8181036020830152613fa681613a86565b905092915050565b6000606082019050613fc3600083018561379f565b8181036020830152613fd481613abd565b90508181036040830152613fe881846138ed565b90509392505050565b6000604082019050614006600083018461379f565b818103602083015261401781613af4565b905092915050565b6000604082019050614034600083018461379f565b818103602083015261404581613b51565b905092915050565b6000604082019050614062600083018461379f565b818103602083015261407381613b88565b905092915050565b6000604082019050614090600083018461379f565b81810360208301526140a181613bbf565b905092915050565b60006040820190506140be600083018461379f565b81810360208301526140cf81613bf6565b905092915050565b60006040820190506140ec600083018461379f565b81810360208301526140fd81613c64565b905092915050565b600060608201905061411a600083018561379f565b818103602083015261412b81613cd2565b9050818103604083015261413f81846138ed565b90509392505050565b600060408201905061415d600083018461379f565b818103602083015261416e81613d09565b905092915050565b600060408201905061418b600083018461379f565b818103602083015261419c81613d66565b905092915050565b60006060820190506141b9600083018561379f565b81810360208301526141ca81613dc3565b905081810360408301526141de8184613881565b90509392505050565b6000602082019050818103600083015261420181846137bd565b905092915050565b600060a08201905061421e6000830184613818565b92915050565b60006020820190506142396000830184613863565b92915050565b60006020820190506142546000830184613872565b92915050565b60006020820190508181036000830152614273816139aa565b9050919050565b600060208201905061428f6000830184613dfa565b92915050565b60006060820190506142aa6000830186613dfa565b6142b76020830185613dfa565b6142c46040830184613863565b949350505050565b6000610140820190506142e2600083018d613e09565b6142ef602083018c61379f565b6142fc604083018b613e09565b614309606083018a613e09565b818103608083015261431b81896138b7565b905081810360a083015261432f81886138b7565b905061433e60c08301876137ae565b61434b60e0830186613863565b614359610100830185613863565b614367610120830184613872565b9b9a5050505050505050505050565b600060408201905061438b6000830185613e09565b6143986020830184613863565b9392505050565b6000604051905081810181811067ffffffffffffffff821117156143c257600080fd5b8060405250919050565b600067ffffffffffffffff8211156143e357600080fd5b601f19601f8301169050602081019050919050565b6000602082019050919050565b6000819050919050565b60008160005260206000209050919050565b600081519050919050565b600060059050919050565b600081519050919050565b600081519050919050565b6000602082019050919050565b6000602082019050919050565b6000614472826144df565b9050919050565b6000614484826144df565b9050919050565b60008115159050919050565b60007fff0000000000000000000000000000000000000000000000000000000000000082169050919050565b60006fffffffffffffffffffffffffffffffff82169050919050565b600073ffffffffffffffffffffffffffffffffffffffff82169050919050565b6000819050919050565b6000614514826144df565b9050919050565b6000614526826144df565b9050919050565b60008115159050919050565b600060ff82169050919050565b82818337600083830152505050565b60005b83811015614573578082015181840152602081019050614558565b83811115614582576000848401525b50505050565b6000601f19601f830116905091905056fea265627a7a72305820ed36ba444975fd362e17d113a500ac0cc1b99d3d2ce8b3a847982d5ac4fc0b146c6578706572696d656e74616cf50037",
  "source": "/////////////////////////////////////////////////////////////////////////////////////\n//version 3.0.0\n//Author: Taurus, Samuel Pritchett\n//Copyright: tlu4@lsu.edu\n//\n//update from 2.1 -> 3.0, keep alignment with the project version v3.0, which is a stable release version.\n///////////////////////////////////////////////////////////////////////////////////////\n//NOTE:\n//This design uses account address as the identifier, meaning each address could only have one req/prov associated.\n//When submit new or update existing req/prov, previous record are overwriten.\n//Each address could only have one req or prov, not at same time.\n\n//TODO: add conflict detection of the address. Check whether existing req or prov from your address is 'not complete',(being proccessed).\n//TODO: Aug.2019, add a hard-reset function. Totally remove one request or stop provider from the pool\n//      , no matter their status (being processed or pending), because sometimes, one will stuck in the pool.\n////////////////////////////////////////////////////////////////////////////////////\n\npragma solidity >=0.5.1;\npragma experimental ABIEncoderV2;           //enable returning self-defined type, used in helper return provider and request\n                                            //do not disable, provider is returned for debuging reason.\ncontract bcaiReputation {\n\n    mapping (address => reputation) public ratings; //user address -> reputation struct\n\n    struct reputation{\n        uint128 numRatings;\n        uint128 avgRating;\n        uint128[5] lastFive;\n        bool newUser;\n    }\n\n    function addRating (address user, uint128 rating) internal {\n        if(ratings[user].numRatings != 0){\n            ratings[user].avgRating = (rating + (ratings[user].numRatings * ratings[user].avgRating)) / (ratings[user].numRatings + 1);\n            ratings[user].numRatings++;\n            for(uint8 i = 4; i != 0; i--){//shift the array so we can add newest rating\n                ratings[user].lastFive[i] = ratings[user].lastFive[i - 1];\n            }\n            ratings[user].lastFive[0] = rating;\n\n            if(ratings[user].numRatings == 5){\n                ratings[user].newUser = false;\n            }\n        }\n        else {//this is their first rating, simpler logic\n            ratings[user].avgRating = rating;\n            ratings[user].lastFive[0] = rating;\n            ratings[user].numRatings++;\n        }\n    }\n\n    function getNumRatings (address user) public view returns(uint128){\n        return ratings[user].numRatings;\n    }\n\n    function getAvgRating (address user) public view returns(uint128){\n        return ratings[user].avgRating;\n    }\n\n    function getLastFive (address user) public view returns(uint128[5] memory) {\n        return ratings[user].lastFive;\n    }\n\n}\n\ncontract TaskContract is bcaiReputation{\n\n    uint256 price = 10000000000000000;      // 10000000000000000 Wei = 0.01 ETH\n\n    mapping (address => Provider) public providerList;   //provAddr => provider struct\n    mapping (address => Request)  public requestList;    //reqAddr => request struct\n\n    struct Request {\n        uint256 blockNumber;                //record the time of submission\n        address payable provider;           //record the provider assigned to this request\n        uint256 deposit;                    //the amount he put down for a deposit          \n        uint256 price;                      //the amount of wei provider is owed for the work (set to price for now)\n        bytes   dataID;                     //dataID used to fetch the off-chain data, interact with ipfs\n        bytes   resultID;                   //dataID to fetch the off-chain result, via ipfs\n        address validator;                  //validators' addr, update when assigned the task to validators\n        bool    signature;                  //true or false array, update only when validator submit result\n        bool    isValid;                    //the final flag\n        byte    status;                     //one byte indicating the status: 0: 'pending', 1:'providing', 2: 'validating', 3: 'complete'\n    }\n\n    struct Provider {\n        uint256 blockNumber;                //record the time of submission\n        bool    available;                  //if ready to be assigned\n    }\n\n    //should try best to reduce type of events in order to remove unnecessary confusion. -> reuse events with same format\n    //no need seperate events for each type, just put whatever info passed in bytes info\n    event IPFSInfo          (address payable reqAddr, bytes info, bytes extra);\n    event SystemInfo        (address payable reqAddr, bytes info);          //systemInfo is only informative, not trigger anything.\n    event PairingInfo       (address payable reqAddr, address payable provAddr, bytes info);\n    //NOTE: [by TaoLu] extra here are actually dataID, which can also be accessed via reqAddr.\n    //      extra may not be necessary but it makes easier of app to handle info. This retains the tradeoff of gas cost and easyness.\n    event PairingInfoLong   (address payable reqAddr, address payable provAddr, bytes info, bytes extra);\n\n\n    //Pools stores the address of req or prov, thus indicate the stages.\n    address payable[] providerPool;        //provAddr only when more providers > req, or empty\n    address payable[] pendingPool;         //reqAddr only when more requests > prov, or empty\n    address payable[] providingPool;       //reqAddr\n    address payable[] validatingPool;      //reqAddr\n    /////////////////////////////////////////////////////////////////////////////////////\n\n    // Function called to become a provider. Add address on List, and Pool if not instantly assigned.\n    // TIPS on gas cost: don't create local copy and write back, modify the storage directly.\n    //      gas cost 165K without event / 167K with event / 92K overwrite\n    function startProviding() public returns (bool) {\n        if(providerList[msg.sender].blockNumber == 0){                  //if this is new\n            providerList[msg.sender].blockNumber = block.number;\n            providerList[msg.sender].available = true;\n            providerPool.push(msg.sender);\n            emit SystemInfo (msg.sender, \"Provider Added\");\n            return true;\n        }\n        // else {                                                          //this address has been recorded before\n        //     return updateProvider(maxTime, maxTarget, minPrice);        //this could be an update\n        // }\n    }\n    // Stop a provider. Must be sent from the provider address or it will be failed.\n    function stopProviding() public returns (bool) {\n        // If the sender is currently an active provider\n        if (providerList[msg.sender].available == true){               //can only stop available provider\n            delete providerList[msg.sender];                           //delete from List\n            emit SystemInfo(msg.sender, 'Provider Stopped');\n            return ArrayPop(providerPool, msg.sender);                 //delete from Pool\n        }\n        else{\n            emit SystemInfo(msg.sender, 'Provider Unable to Stop');\n            return false;\n        }\n    }\n\n    //update a provider, you must know the provAddr and must sent from right addr\n    // function updateProvider(uint64 maxTime, uint16 maxTarget, uint64 minPrice) public returns (bool) {\n    //     if(providerList[msg.sender].available == true){                //can only modify available provider\n    //         providerList[msg.sender].blockNumber = block.number;\n    //         providerList[msg.sender].maxTime = maxTime;\n    //         providerList[msg.sender].maxTarget = maxTarget;\n    //         providerList[msg.sender].minPrice = minPrice;\n    //         emit SystemInfo(msg.sender,'Provider Updated');\n    //         return true;\n    //     }\n    //     else{\n    //         emit SystemInfo(msg.sender, 'Provider Unable to Update');\n    //         return false;\n    //     }\n    // }\n\n    // Send a request from user to blockchain. Assumes price is including the cost for verification\n    // NOTE: use bytes memory as argument will increase the gas cost, one alternative will be uint type, may consifer in future.\n    function startRequest(bytes memory dataID) public payable returns (bool) {\n        require(msg.value >= price, 'Not enough ether');\n        if(requestList[msg.sender].blockNumber == 0){   //never submitted before\n            //register on List\n            requestList[msg.sender].blockNumber = block.number;\n            requestList[msg.sender].provider = address(0);\n            requestList[msg.sender].validator = address(0);\n            requestList[msg.sender].deposit = msg.value;          //how much ether was sent to contract by the user, their \"deposit\"\n            requestList[msg.sender].price = price;                //set to price here, in future will need to be calculated and set later\n            requestList[msg.sender].dataID = dataID;\n            requestList[msg.sender].status = '0';       //pending = 0x30, is in ascii not number 0\n            pendingPool.push(msg.sender);\n            emit IPFSInfo (msg.sender, \"Request Added\", dataID);\n            return true;\n        } else {    //submitted before\n            return updateRequest(dataID);\n        }\n    }\n    function stopRequest() public returns (bool){\n        if (requestList[msg.sender].status == '0'){          //can only cancel owned pending request, ('0' = 0x30)\n            delete requestList[msg.sender];                  //delete from List\n            emit SystemInfo(msg.sender, 'Request Stopped');\n            return ArrayPop(pendingPool, msg.sender);        //delete from Pool\n        }\n        else{\n            emit SystemInfo(msg.sender, 'Request Unable to Stop');\n            return false;\n        }\n    }\n    function updateRequest(bytes memory dataID) public payable returns (bool) {\n        if(requestList[msg.sender].status == '0' ){                   //can only update pending request\n            requestList[msg.sender].blockNumber = block.number;\n            requestList[msg.sender].dataID = dataID;\n            emit SystemInfo(msg.sender, 'Request Updated');\n            return true;\n        }\n        else{\n            emit SystemInfo(msg.sender, 'Request Unable to Update');\n            return false;\n        }\n    }\n\n\n    //Add provAddr to request as a provider if they are available and their prices match up\n    //     Called by user who wants to choose provAddr to work for them\n    //     Returns '0' on success, '1' on failure\n    function chooseProvider(address payable provAddr) public returns (byte){\n        if(requestList[msg.sender].status == '0'){ //Since this is ascii '0' its actually 0x30, users who have not submitted a task shouldn't get through here\n            if(providerList[provAddr].available == true){ //if chosen provider is in the providerPool and their prices match\n                \n                providerList[provAddr].available = false;\n                ArrayPop(providerPool, provAddr);\n\n                requestList[msg.sender].provider = provAddr;\n                requestList[msg.sender].status = '1';\n                ArrayPop(pendingPool, msg.sender);\n                providingPool.push(msg.sender);                \n\n                emit PairingInfoLong(msg.sender, provAddr, \"Request Assigned\", requestList[msg.sender].dataID);\n                return '0';\n            }\n            else{\n                emit SystemInfo(msg.sender, 'Chosen provider is not available to work');\n                return '1';\n            }\n        }\n        else if(requestList[msg.sender].status == '2' && requestList[msg.sender].provider != provAddr){\n            providerList[provAddr].available = false;\n            ArrayPop(providerPool, provAddr);\n\n            requestList[msg.sender].validator = provAddr;\n            requestList[msg.sender].signature = false;\n            emit PairingInfoLong(msg.sender, provAddr, 'Validation Assigned to Provider', requestList[msg.sender].resultID);\n            return '0';\n        }\n        else{\n            if(requestList[msg.sender].status == '1'){\n                emit SystemInfo(msg.sender, 'Your request already has a provider assigned');\n            }\n            else{\n                emit SystemInfo(msg.sender, 'You do not have a request');\n            }\n            return '1';\n        }\n    }\n\n    // Provider will call this when they are done and the result data is available.\n    // This will invoke the validation stage. Only when the request got enough validators,\n    // that req could be moved from pool and marked. Or that req stays providing\n    function completeRequest(address payable reqAddr, bytes memory resultID) public returns (bool) {\n        // Confirm msg.sender is actually the provider of the task he claims\n        if (msg.sender == requestList[reqAddr].provider) {\n            //change request obj\n            requestList[reqAddr].status = '2';    //validating\n            requestList[reqAddr].resultID = resultID;\n            //move from providing pool to validating Pool.\n            ArrayPop(providingPool, reqAddr);\n            validatingPool.push(reqAddr);\n            //release provider (not necessarily depend on provider) back into providerPool\n            providerList[msg.sender].available = true;\n            providerPool.push(msg.sender);\n            emit IPFSInfo(reqAddr, 'Request Computation Completed',requestList[reqAddr].resultID);\n            //start validation process\n            return true;\n        }\n        else {\n            return false;\n        }\n    }\n\n    // needs to be more secure by ensuring the submission is coming from someone legit\n    // similar to completeTask but this will sign the validation list of the target Task\n    // TODO: the money part is ommited for now\n    function submitValidation(address payable reqAddr, bool result) public returns (bool) {\n        if(msg.sender != requestList[reqAddr].provider) {     //validator cannot be provider\n            if(requestList[reqAddr].validator == msg.sender && requestList[reqAddr].signature == false){ // this is the validator and no signature yet\n\n                    //The way the project is coded right now, this is gauranteed to run. If this doesn't run something is wrong.\n                    if(requestList[reqAddr].deposit >= requestList[reqAddr].price){ //if the deposit is enough to pay\n                        requestList[reqAddr].provider.transfer(requestList[reqAddr].price); //send price to provider\n                        emit SystemInfo(requestList[reqAddr].provider, 'You have been paid'); //alert provider\n                        if(requestList[reqAddr].deposit >= requestList[reqAddr].price){ //if deposit was greater than price\n                            reqAddr.transfer(requestList[reqAddr].deposit - requestList[reqAddr].price); //return remaining eth back to user\n                            emit SystemInfo(reqAddr, 'You have recieved part of your deposit back'); //alert user\n                        }\n                    }\n                    // else { //deposit was not enough, need more ether\n                    //     emit PairingInfo(reqAddr, requestList[reqAddr].provider, 'Deposit insufficient, )\n                    // }\n\n                    requestList[reqAddr].signature = result;\n                    providerList[msg.sender].available = true;          //release validator\n                    providerPool.push(msg.sender);\n                    emit PairingInfo(reqAddr, msg.sender, 'Validator Signed');\n                    emit IPFSInfo(reqAddr, 'Validation Complete', requestList[reqAddr].resultID);\n                }\n            }\n            \n        else   //submit vali from provider\n            return false;\n    }\n\n    // finalize the completed result, move everything out of current pools\n    function finalizeRequest(address payable reqAddr, bool toRate, uint8 rating) public returns (bool) {\n        if(requestList[reqAddr].isValid){\n            ArrayPop(validatingPool, reqAddr);\n            if(toRate){ //If user wishes to, let them rate the provider\n                addRating(requestList[reqAddr].provider, rating);\n            }\n            delete requestList[reqAddr]; //delete user from mapping\n        }\n    }\n\n/////////////////////////////////////////////////////////////////////\n    // Used to dynamically remove elements from array of open provider spaces.\n    // Using a swap and delete method, search for the desired addr throughout the whole array\n    // delete the desired and swap the hole with last element\n    function ArrayPop(address payable[] storage array, address payable target) private returns (bool) {\n        for(uint64 i = 0; i < array.length; i++){\n            if (array[i] == target) {\n                array[i] = array[array.length-1];   //swap last element with hole\n                delete array[array.length-1];       //delete last item\n                array.length -= 1;                  //decrease size\n                return true;\n            }\n        }\n        return false;   //fail to search: no matching in pool\n    }\n    \n    /////////////////////////////////////////////////////////////////////////////////\n    //some helpers defined here\n    //NOTE: these helpers will use up the code space, (in Ethereum code lenght is limited)\n    //      can be removed in future to free up space.\n\n    // function getProvider(address payable ID) public view returns(Provider memory){\n    //     return providerList[ID];\n    // }\n    // function getRequest(address payable ID) public view returns (Request memory){\n\t//     return requestList[ID];\n    // }\n\n    function getProviderPool() public view returns (address payable[] memory){\n        return providerPool;\n    }\n    function getPendingPool() public view returns (address payable[] memory){\n        return pendingPool;\n    }\n    function getValidatingPool() public view returns (address payable[] memory){\n        return validatingPool;\n    }\n    function getProvidingPool() public view returns (address payable[] memory){\n        return providingPool;\n    }\n\n    // function getProviderPoolSize() public view returns (uint256){\n    //     return providerPool.length;\n    // }\n    // function getRequestPoolSize() public view returns (uint256){\n    //     return pendingPool.length;\n    // }\n}\n",
  "sourcePath": "/home/pedriv/Desktop/BCAI/bcai_deploy/contracts/bcai.sol",
  "compiler": {
    "name": "solc",
    "version": "0.5.1+commit.c8a2cb62.Emscripten.clang"
  },
  "schemaVersion": "3.0.23",
  "updatedAt": "2020-04-23T18:23:34.336Z",
  "networkType": "ethereum",
  "devdoc": {
    "methods": {}
  },
  "userdoc": {
    "methods": {
      "getProviderPool()": {
        "notice": "//////////////////////////////////////////////////////////////////////////////"
      },
      "startProviding()": {
        "notice": "//////////////////////////////////////////////////////////////////////////////////"
      }
    }
  }
}