{
  "contractName": "TaskContract",
  "abi": [
    {
      "constant": true,
      "inputs": [
        {
          "name": "",
          "type": "address"
        }
      ],
      "name": "requestList",
      "outputs": [
        {
          "name": "reqID",
          "type": "uint256"
        },
        {
          "name": "blockNumber",
          "type": "uint256"
        },
        {
          "name": "provider",
          "type": "address"
        },
        {
          "name": "time",
          "type": "uint64"
        },
        {
          "name": "target",
          "type": "uint16"
        },
        {
          "name": "price",
          "type": "uint256"
        },
        {
          "name": "dataID",
          "type": "bytes"
        },
        {
          "name": "resultID",
          "type": "bytes"
        },
        {
          "name": "numValidations",
          "type": "uint64"
        },
        {
          "name": "isValid",
          "type": "bool"
        },
        {
          "name": "status",
          "type": "bytes1"
        }
      ],
      "payable": false,
      "stateMutability": "view",
      "type": "function"
    },
    {
      "constant": true,
      "inputs": [
        {
          "name": "",
          "type": "address"
        }
      ],
      "name": "providerList",
      "outputs": [
        {
          "name": "provID",
          "type": "uint256"
        },
        {
          "name": "blockNumber",
          "type": "uint256"
        },
        {
          "name": "maxTime",
          "type": "uint64"
        },
        {
          "name": "maxTarget",
          "type": "uint16"
        },
        {
          "name": "minPrice",
          "type": "uint256"
        },
        {
          "name": "available",
          "type": "bool"
        }
      ],
      "payable": false,
      "stateMutability": "view",
      "type": "function"
    },
    {
      "constant": true,
      "inputs": [
        {
          "name": "",
          "type": "address"
        }
      ],
      "name": "balanceList",
      "outputs": [
        {
          "name": "",
          "type": "uint256"
        }
      ],
      "payable": false,
      "stateMutability": "view",
      "type": "function"
    },
    {
      "inputs": [],
      "payable": false,
      "stateMutability": "nonpayable",
      "type": "constructor"
    },
    {
      "anonymous": false,
      "inputs": [
        {
          "indexed": false,
          "name": "reqAddr",
          "type": "address"
        },
        {
          "indexed": false,
          "name": "info",
          "type": "bytes"
        },
        {
          "indexed": false,
          "name": "extra",
          "type": "bytes"
        }
      ],
      "name": "IPFSInfo",
      "type": "event"
    },
    {
      "anonymous": false,
      "inputs": [
        {
          "indexed": false,
          "name": "reqAddr",
          "type": "address"
        },
        {
          "indexed": false,
          "name": "info",
          "type": "bytes"
        }
      ],
      "name": "SystemInfo",
      "type": "event"
    },
    {
      "anonymous": false,
      "inputs": [
        {
          "indexed": false,
          "name": "reqAddr",
          "type": "address"
        },
        {
          "indexed": false,
          "name": "provAddr",
          "type": "address"
        },
        {
          "indexed": false,
          "name": "info",
          "type": "bytes"
        }
      ],
      "name": "PairingInfo",
      "type": "event"
    },
    {
      "constant": false,
      "inputs": [
        {
          "name": "maxTime",
          "type": "uint64"
        },
        {
          "name": "maxTarget",
          "type": "uint16"
        },
        {
          "name": "minPrice",
          "type": "uint64"
        }
      ],
      "name": "startProviding",
      "outputs": [
        {
          "name": "",
          "type": "bool"
        }
      ],
      "payable": false,
      "stateMutability": "nonpayable",
      "type": "function"
    },
    {
      "constant": false,
      "inputs": [],
      "name": "stopProviding",
      "outputs": [
        {
          "name": "",
          "type": "bool"
        }
      ],
      "payable": false,
      "stateMutability": "nonpayable",
      "type": "function"
    },
    {
      "constant": false,
      "inputs": [
        {
          "name": "maxTime",
          "type": "uint64"
        },
        {
          "name": "maxTarget",
          "type": "uint16"
        },
        {
          "name": "minPrice",
          "type": "uint64"
        }
      ],
      "name": "updateProvider",
      "outputs": [
        {
          "name": "",
          "type": "bool"
        }
      ],
      "payable": false,
      "stateMutability": "nonpayable",
      "type": "function"
    },
    {
      "constant": false,
      "inputs": [
        {
          "name": "time",
          "type": "uint64"
        },
        {
          "name": "target",
          "type": "uint16"
        },
        {
          "name": "price",
          "type": "uint64"
        },
        {
          "name": "dataID",
          "type": "bytes"
        }
      ],
      "name": "startRequest",
      "outputs": [
        {
          "name": "",
          "type": "bool"
        }
      ],
      "payable": true,
      "stateMutability": "payable",
      "type": "function"
    },
    {
      "constant": false,
      "inputs": [],
      "name": "stopRequest",
      "outputs": [
        {
          "name": "",
          "type": "bool"
        }
      ],
      "payable": false,
      "stateMutability": "nonpayable",
      "type": "function"
    },
    {
      "constant": false,
      "inputs": [
        {
          "name": "time",
          "type": "uint64"
        },
        {
          "name": "target",
          "type": "uint16"
        },
        {
          "name": "price",
          "type": "uint64"
        },
        {
          "name": "dataID",
          "type": "bytes"
        }
      ],
      "name": "updateRequest",
      "outputs": [
        {
          "name": "",
          "type": "bool"
        }
      ],
      "payable": true,
      "stateMutability": "payable",
      "type": "function"
    },
    {
      "constant": false,
      "inputs": [
        {
          "name": "reqAddr",
          "type": "address"
        },
        {
          "name": "resultID",
          "type": "bytes"
        }
      ],
      "name": "completeRequest",
      "outputs": [
        {
          "name": "",
          "type": "bool"
        }
      ],
      "payable": false,
      "stateMutability": "nonpayable",
      "type": "function"
    },
    {
      "constant": false,
      "inputs": [
        {
          "name": "reqAddr",
          "type": "address"
        },
        {
          "name": "result",
          "type": "bool"
        }
      ],
      "name": "submitValidation",
      "outputs": [
        {
          "name": "",
          "type": "bool"
        }
      ],
      "payable": false,
      "stateMutability": "nonpayable",
      "type": "function"
    },
    {
      "constant": true,
      "inputs": [
        {
          "name": "ID",
          "type": "address"
        }
      ],
      "name": "getProvider",
      "outputs": [
        {
          "components": [
            {
              "name": "provID",
              "type": "uint256"
            },
            {
              "name": "blockNumber",
              "type": "uint256"
            },
            {
              "name": "maxTime",
              "type": "uint64"
            },
            {
              "name": "maxTarget",
              "type": "uint16"
            },
            {
              "name": "minPrice",
              "type": "uint256"
            },
            {
              "name": "available",
              "type": "bool"
            }
          ],
          "name": "",
          "type": "tuple"
        }
      ],
      "payable": false,
      "stateMutability": "view",
      "type": "function"
    },
    {
      "constant": true,
      "inputs": [
        {
          "name": "ID",
          "type": "address"
        }
      ],
      "name": "getRequest",
      "outputs": [
        {
          "components": [
            {
              "name": "reqID",
              "type": "uint256"
            },
            {
              "name": "blockNumber",
              "type": "uint256"
            },
            {
              "name": "provider",
              "type": "address"
            },
            {
              "name": "time",
              "type": "uint64"
            },
            {
              "name": "target",
              "type": "uint16"
            },
            {
              "name": "price",
              "type": "uint256"
            },
            {
              "name": "dataID",
              "type": "bytes"
            },
            {
              "name": "resultID",
              "type": "bytes"
            },
            {
              "name": "numValidations",
              "type": "uint64"
            },
            {
              "name": "validators",
              "type": "address[]"
            },
            {
              "name": "signatures",
              "type": "bool[]"
            },
            {
              "name": "isValid",
              "type": "bool"
            },
            {
              "name": "status",
              "type": "bytes1"
            }
          ],
          "name": "",
          "type": "tuple"
        }
      ],
      "payable": false,
      "stateMutability": "view",
      "type": "function"
    },
    {
      "constant": true,
      "inputs": [],
      "name": "getProviderCount",
      "outputs": [
        {
          "name": "",
          "type": "uint256"
        }
      ],
      "payable": false,
      "stateMutability": "view",
      "type": "function"
    },
    {
      "constant": true,
      "inputs": [],
      "name": "getRequestCount",
      "outputs": [
        {
          "name": "",
          "type": "uint256"
        }
      ],
      "payable": false,
      "stateMutability": "view",
      "type": "function"
    },
    {
      "constant": true,
      "inputs": [],
      "name": "getProviderPool",
      "outputs": [
        {
          "name": "",
          "type": "address[]"
        }
      ],
      "payable": false,
      "stateMutability": "view",
      "type": "function"
    },
    {
      "constant": true,
      "inputs": [],
      "name": "getPendingPool",
      "outputs": [
        {
          "name": "",
          "type": "address[]"
        }
      ],
      "payable": false,
      "stateMutability": "view",
      "type": "function"
    },
    {
      "constant": true,
      "inputs": [],
      "name": "getValidatingPool",
      "outputs": [
        {
          "name": "",
          "type": "address[]"
        }
      ],
      "payable": false,
      "stateMutability": "view",
      "type": "function"
    },
    {
      "constant": true,
      "inputs": [],
      "name": "getProvidingPool",
      "outputs": [
        {
          "name": "",
          "type": "address[]"
        }
      ],
      "payable": false,
      "stateMutability": "view",
      "type": "function"
    },
    {
      "constant": true,
      "inputs": [],
      "name": "getProviderPoolSize",
      "outputs": [
        {
          "name": "",
          "type": "uint256"
        }
      ],
      "payable": false,
      "stateMutability": "view",
      "type": "function"
    },
    {
      "constant": true,
      "inputs": [],
      "name": "getRequestPoolSize",
      "outputs": [
        {
          "name": "",
          "type": "uint256"
        }
      ],
      "payable": false,
      "stateMutability": "view",
      "type": "function"
    },
    {
      "constant": true,
      "inputs": [
        {
          "name": "IDList",
          "type": "address[]"
        }
      ],
      "name": "listRequests",
      "outputs": [
        {
          "components": [
            {
              "name": "reqID",
              "type": "uint256"
            },
            {
              "name": "blockNumber",
              "type": "uint256"
            },
            {
              "name": "provider",
              "type": "address"
            },
            {
              "name": "time",
              "type": "uint64"
            },
            {
              "name": "target",
              "type": "uint16"
            },
            {
              "name": "price",
              "type": "uint256"
            },
            {
              "name": "dataID",
              "type": "bytes"
            },
            {
              "name": "resultID",
              "type": "bytes"
            },
            {
              "name": "numValidations",
              "type": "uint64"
            },
            {
              "name": "validators",
              "type": "address[]"
            },
            {
              "name": "signatures",
              "type": "bool[]"
            },
            {
              "name": "isValid",
              "type": "bool"
            },
            {
              "name": "status",
              "type": "bytes1"
            }
          ],
          "name": "",
          "type": "tuple[50]"
        }
      ],
      "payable": false,
      "stateMutability": "view",
      "type": "function"
    },
    {
      "constant": true,
      "inputs": [
        {
          "name": "IDList",
          "type": "address[]"
        }
      ],
      "name": "listProviders",
      "outputs": [
        {
          "components": [
            {
              "name": "provID",
              "type": "uint256"
            },
            {
              "name": "blockNumber",
              "type": "uint256"
            },
            {
              "name": "maxTime",
              "type": "uint64"
            },
            {
              "name": "maxTarget",
              "type": "uint16"
            },
            {
              "name": "minPrice",
              "type": "uint256"
            },
            {
              "name": "available",
              "type": "bool"
            }
          ],
          "name": "",
          "type": "tuple[50]"
        }
      ],
      "payable": false,
      "stateMutability": "view",
      "type": "function"
    }
  ],
  "bytecode": "0x608060405234801561001057600080fd5b5060006003819055506000600481905550615dc380620000316000396000f3fe6080604052600436106101405760003560e01c8063353b2a1f116100b65780636ca43b8d1161006f5780636ca43b8d146104d65780639e723b9714610513578063a9ecaae71461053e578063b277493414610569578063c052c4db14610594578063dafcc3b2146105d157610140565b8063353b2a1f146103b05780633fad1834146103db57806346ce41751461040657806355f21eb7146104315780635c4c8c4e1461046e57806363c1dff71461049957610140565b8063189258de11610108578063189258de146102665780631f1dab45146102a35780632d3272d3146102ce5780632ddfdbcc1461030b57806332c5200d146103485780633432d0f51461037357610140565b8063040d2762146101455780630708799e1461017057806308931765146101b75780630b6dbd5f146101f45780630e1e4a3c14610224575b600080fd5b34801561015157600080fd5b5061015a610601565b60405161016791906158c7565b60405180910390f35b34801561017c57600080fd5b5061019760048036036101929190810190614741565b610858565b6040516101ae9b9a9998979695949392919061593a565b60405180910390f35b3480156101c357600080fd5b506101de60048036036101d99190810190614864565b610a52565b6040516101eb91906158c7565b60405180910390f35b61020e600480360361020991908101906148b3565b610c96565b60405161021b91906158c7565b60405180910390f35b34801561023057600080fd5b5061024b60048036036102469190810190614741565b611122565b60405161025d969594939291906159f3565b60405180910390f35b34801561027257600080fd5b5061028d60048036036102889190810190614741565b61118d565b60405161029a919061591f565b60405180910390f35b3480156102af57600080fd5b506102b86111a5565b6040516102c59190615867565b60405180910390f35b3480156102da57600080fd5b506102f560048036036102f09190810190614823565b611233565b6040516103029190615889565b60405180910390f35b34801561031757600080fd5b50610332600480360361032d9190810190614864565b6112b7565b60405161033f91906158c7565b60405180910390f35b34801561035457600080fd5b5061035d611654565b60405161036a9190615867565b60405180910390f35b34801561037f57600080fd5b5061039a60048036036103959190810190614793565b6116e2565b6040516103a791906158c7565b60405180910390f35b3480156103bc57600080fd5b506103c5611ac3565b6040516103d2919061591f565b60405180910390f35b3480156103e757600080fd5b506103f0611ad0565b6040516103fd919061591f565b60405180910390f35b34801561041257600080fd5b5061041b611ada565b604051610428919061591f565b60405180910390f35b34801561043d57600080fd5b506104586004803603610453919081019061476a565b611ae4565b60405161046591906158e2565b60405180910390f35b34801561047a57600080fd5b50610483611bc7565b604051610490919061591f565b60405180910390f35b3480156104a557600080fd5b506104c060048036036104bb919081019061476a565b611bd4565b6040516104cd91906158fd565b60405180910390f35b3480156104e257600080fd5b506104fd60048036036104f891908101906147cf565b611feb565b60405161050a91906158c7565b60405180910390f35b34801561051f57600080fd5b5061052861231c565b6040516105359190615867565b60405180910390f35b34801561054a57600080fd5b506105536123aa565b6040516105609190615867565b60405180910390f35b34801561057557600080fd5b5061057e612438565b60405161058b91906158c7565b60405180910390f35b3480156105a057600080fd5b506105bb60048036036105b69190810190614823565b6125ba565b6040516105c891906158a5565b60405180910390f35b6105eb60048036036105e691908101906148b3565b61263e565b6040516105f891906158c7565b60405180910390f35b60007f3000000000000000000000000000000000000000000000000000000000000000600160003373ffffffffffffffffffffffffffffffffffffffff1673ffffffffffffffffffffffffffffffffffffffff16815260200190815260200160002060090160019054906101000a900460f81b7effffffffffffffffffffffffffffffffffffffffffffffffffffffffffffff1916141561081957600160003373ffffffffffffffffffffffffffffffffffffffff1673ffffffffffffffffffffffffffffffffffffffff16815260200190815260200160002060008082016000905560018201600090556002820160006101000a81549073ffffffffffffffffffffffffffffffffffffffff02191690556002820160146101000a81549067ffffffffffffffff021916905560028201601c6101000a81549061ffff0219169055600382016000905560048201600061075b9190614243565b60058201600061076b9190614243565b6006820160006101000a81549067ffffffffffffffff0219169055600782016000610796919061428b565b6008820160006107a691906142ac565b6009820160006101000a81549060ff02191690556009820160016101000a81549060ff021916905550507fa332e7b06782060530f8d1575fcf83b5e831fe3dd09c85e53b0351a7c38ceeac336040516107ff919061568a565b60405180910390a1610812600633612912565b9050610855565b7fa332e7b06782060530f8d1575fcf83b5e831fe3dd09c85e53b0351a7c38ceeac3360405161084891906156b8565b60405180910390a1600090505b90565b60016020528060005260406000206000915090508060000154908060010154908060020160009054906101000a900473ffffffffffffffffffffffffffffffffffffffff16908060020160149054906101000a900467ffffffffffffffff169080600201601c9054906101000a900461ffff1690806003015490806004018054600181600116156101000203166002900480601f01602080910402602001604051908101604052809291908181526020018280546001816001161561010002031660029004801561096a5780601f1061093f5761010080835404028352916020019161096a565b820191906000526020600020905b81548152906001019060200180831161094d57829003601f168201915b505050505090806005018054600181600116156101000203166002900480601f016020809104026020016040519081016040528092919081815260200182805460018160011615610100020316600290048015610a085780601f106109dd57610100808354040283529160200191610a08565b820191906000526020600020905b8154815290600101906020018083116109eb57829003601f168201915b5050505050908060060160009054906101000a900467ffffffffffffffff16908060090160009054906101000a900460ff16908060090160019054906101000a900460f81b90508b565b6000600115156000803373ffffffffffffffffffffffffffffffffffffffff1673ffffffffffffffffffffffffffffffffffffffff16815260200190815260200160002060040160009054906101000a900460ff1615151415610c5357436000803373ffffffffffffffffffffffffffffffffffffffff1673ffffffffffffffffffffffffffffffffffffffff16815260200190815260200160002060010181905550836000803373ffffffffffffffffffffffffffffffffffffffff1673ffffffffffffffffffffffffffffffffffffffff16815260200190815260200160002060020160006101000a81548167ffffffffffffffff021916908367ffffffffffffffff160217905550826000803373ffffffffffffffffffffffffffffffffffffffff1673ffffffffffffffffffffffffffffffffffffffff16815260200190815260200160002060020160086101000a81548161ffff021916908361ffff1602179055508167ffffffffffffffff166000803373ffffffffffffffffffffffffffffffffffffffff1673ffffffffffffffffffffffffffffffffffffffff168152602001908152602001600020600301819055507fa332e7b06782060530f8d1575fcf83b5e831fe3dd09c85e53b0351a7c38ceeac33604051610c38919061562e565b60405180910390a1610c4933612abb565b5060019050610c8f565b7fa332e7b06782060530f8d1575fcf83b5e831fe3dd09c85e53b0351a7c38ceeac33604051610c8291906155a4565b60405180910390a1600090505b9392505050565b600080600160003373ffffffffffffffffffffffffffffffffffffffff1673ffffffffffffffffffffffffffffffffffffffff16815260200190815260200160002060010154141561110b57600454600160003373ffffffffffffffffffffffffffffffffffffffff1673ffffffffffffffffffffffffffffffffffffffff1681526020019081526020016000206000018190555043600160003373ffffffffffffffffffffffffffffffffffffffff1673ffffffffffffffffffffffffffffffffffffffff168152602001908152602001600020600101819055506000600160003373ffffffffffffffffffffffffffffffffffffffff1673ffffffffffffffffffffffffffffffffffffffff16815260200190815260200160002060020160006101000a81548173ffffffffffffffffffffffffffffffffffffffff021916908373ffffffffffffffffffffffffffffffffffffffff16021790555084600160003373ffffffffffffffffffffffffffffffffffffffff1673ffffffffffffffffffffffffffffffffffffffff16815260200190815260200160002060020160146101000a81548167ffffffffffffffff021916908367ffffffffffffffff16021790555083600160003373ffffffffffffffffffffffffffffffffffffffff1673ffffffffffffffffffffffffffffffffffffffff168152602001908152602001600020600201601c6101000a81548161ffff021916908361ffff1602179055508267ffffffffffffffff16600160003373ffffffffffffffffffffffffffffffffffffffff1673ffffffffffffffffffffffffffffffffffffffff1681526020019081526020016000206003018190555081600160003373ffffffffffffffffffffffffffffffffffffffff1673ffffffffffffffffffffffffffffffffffffffff1681526020019081526020016000206004019080519060200190610f619291906142d4565b506003600160003373ffffffffffffffffffffffffffffffffffffffff1673ffffffffffffffffffffffffffffffffffffffff16815260200190815260200160002060060160006101000a81548167ffffffffffffffff021916908367ffffffffffffffff1602179055507f3000000000000000000000000000000000000000000000000000000000000000600160003373ffffffffffffffffffffffffffffffffffffffff1673ffffffffffffffffffffffffffffffffffffffff16815260200190815260200160002060090160016101000a81548160ff021916908360f81c021790555060063390806001815401808255809150509060018203906000526020600020016000909192909190916101000a81548173ffffffffffffffffffffffffffffffffffffffff021916908373ffffffffffffffffffffffffffffffffffffffff160217905550507fecb395b2a2ceb57177a24a711e761771826a6a5c10c88fcba80bceca4a92e44633836040516110de929190615824565b60405180910390a16004600081548092919060010191905055506111013361305d565b506001905061111a565b6111178585858561263e565b90505b949350505050565b60006020528060005260406000206000915090508060000154908060010154908060020160009054906101000a900467ffffffffffffffff16908060020160089054906101000a900461ffff16908060030154908060040160009054906101000a900460ff16905086565b60026020528060005260406000206000915090505481565b6060600780548060200260200160405190810160405280929190818152602001828054801561122957602002820191906000526020600020905b8160009054906101000a900473ffffffffffffffffffffffffffffffffffffffff1673ffffffffffffffffffffffffffffffffffffffff16815260200190600101908083116111df575b5050505050905090565b61123b614354565b611243614354565b60008090505b83518167ffffffffffffffff1610156112ad57611282848267ffffffffffffffff168151811061127557fe5b6020026020010151611ae4565b828267ffffffffffffffff166032811061129857fe5b60200201819052508080600101915050611249565b5080915050919050565b6000806000803373ffffffffffffffffffffffffffffffffffffffff1673ffffffffffffffffffffffffffffffffffffffff16815260200190815260200160002060010154141561163f576003546000803373ffffffffffffffffffffffffffffffffffffffff1673ffffffffffffffffffffffffffffffffffffffff16815260200190815260200160002060000181905550436000803373ffffffffffffffffffffffffffffffffffffffff1673ffffffffffffffffffffffffffffffffffffffff16815260200190815260200160002060010181905550836000803373ffffffffffffffffffffffffffffffffffffffff1673ffffffffffffffffffffffffffffffffffffffff16815260200190815260200160002060020160006101000a81548167ffffffffffffffff021916908367ffffffffffffffff160217905550836000803373ffffffffffffffffffffffffffffffffffffffff1673ffffffffffffffffffffffffffffffffffffffff16815260200190815260200160002060020160006101000a81548167ffffffffffffffff021916908367ffffffffffffffff160217905550826000803373ffffffffffffffffffffffffffffffffffffffff1673ffffffffffffffffffffffffffffffffffffffff16815260200190815260200160002060020160086101000a81548161ffff021916908361ffff1602179055508167ffffffffffffffff166000803373ffffffffffffffffffffffffffffffffffffffff1673ffffffffffffffffffffffffffffffffffffffff1681526020019081526020016000206003018190555060016000803373ffffffffffffffffffffffffffffffffffffffff1673ffffffffffffffffffffffffffffffffffffffff16815260200190815260200160002060040160006101000a81548160ff02191690831515021790555060053390806001815401808255809150509060018203906000526020600020016000909192909190916101000a81548173ffffffffffffffffffffffffffffffffffffffff021916908373ffffffffffffffffffffffffffffffffffffffff160217905550507fa332e7b06782060530f8d1575fcf83b5e831fe3dd09c85e53b0351a7c38ceeac336040516115fb9190615729565b60405180910390a160036000815480929190600101919050555060006008805490501461162c5761162b33613694565b5b61163533612abb565b506001905061164d565b61164a848484610a52565b90505b9392505050565b606060088054806020026020016040519081016040528092919081815260200182805480156116d857602002820191906000526020600020905b8160009054906101000a900473ffffffffffffffffffffffffffffffffffffffff1673ffffffffffffffffffffffffffffffffffffffff168152602001906001019080831161168e575b5050505050905090565b6000600160008473ffffffffffffffffffffffffffffffffffffffff1673ffffffffffffffffffffffffffffffffffffffff16815260200190815260200160002060020160009054906101000a900473ffffffffffffffffffffffffffffffffffffffff1673ffffffffffffffffffffffffffffffffffffffff163373ffffffffffffffffffffffffffffffffffffffff1614611ab35760008090505b600160008573ffffffffffffffffffffffffffffffffffffffff1673ffffffffffffffffffffffffffffffffffffffff168152602001908152602001600020600701805490508167ffffffffffffffff161015611aa3573373ffffffffffffffffffffffffffffffffffffffff16600160008673ffffffffffffffffffffffffffffffffffffffff1673ffffffffffffffffffffffffffffffffffffffff1681526020019081526020016000206007018267ffffffffffffffff168154811061184457fe5b9060005260206000200160009054906101000a900473ffffffffffffffffffffffffffffffffffffffff1673ffffffffffffffffffffffffffffffffffffffff1614801561190c575060001515600160008673ffffffffffffffffffffffffffffffffffffffff1673ffffffffffffffffffffffffffffffffffffffff1681526020019081526020016000206008018267ffffffffffffffff16815481106118e857fe5b90600052602060002090602091828204019190069054906101000a900460ff161515145b15611a905782600160008673ffffffffffffffffffffffffffffffffffffffff1673ffffffffffffffffffffffffffffffffffffffff1681526020019081526020016000206008018267ffffffffffffffff168154811061196957fe5b90600052602060002090602091828204019190066101000a81548160ff02191690831515021790555060016000803373ffffffffffffffffffffffffffffffffffffffff1673ffffffffffffffffffffffffffffffffffffffff16815260200190815260200160002060040160006101000a81548160ff02191690831515021790555060053390806001815401808255809150509060018203906000526020600020016000909192909190916101000a81548173ffffffffffffffffffffffffffffffffffffffff021916908373ffffffffffffffffffffffffffffffffffffffff160217905550507f654163525cabcfa0ce95ecb1f232c75746c89688c42e7e2d52df90d770fc9e578433604051611a8392919061552c565b60405180910390a1611a95565b611a96565b5b808060010191505061177f565b50611aad83613b91565b50611abc565b60009050611abd565b5b92915050565b6000600580549050905090565b6000600454905090565b6000600354905090565b611aec614382565b6000808373ffffffffffffffffffffffffffffffffffffffff1673ffffffffffffffffffffffffffffffffffffffff1681526020019081526020016000206040518060c001604052908160008201548152602001600182015481526020016002820160009054906101000a900467ffffffffffffffff1667ffffffffffffffff1667ffffffffffffffff1681526020016002820160089054906101000a900461ffff1661ffff1661ffff168152602001600382015481526020016004820160009054906101000a900460ff1615151515815250509050919050565b6000600680549050905090565b611bdc6143c8565b600160008373ffffffffffffffffffffffffffffffffffffffff1673ffffffffffffffffffffffffffffffffffffffff168152602001908152602001600020604051806101a001604052908160008201548152602001600182015481526020016002820160009054906101000a900473ffffffffffffffffffffffffffffffffffffffff1673ffffffffffffffffffffffffffffffffffffffff1673ffffffffffffffffffffffffffffffffffffffff1681526020016002820160149054906101000a900467ffffffffffffffff1667ffffffffffffffff1667ffffffffffffffff16815260200160028201601c9054906101000a900461ffff1661ffff1661ffff16815260200160038201548152602001600482018054600181600116156101000203166002900480601f016020809104026020016040519081016040528092919081815260200182805460018160011615610100020316600290048015611d865780601f10611d5b57610100808354040283529160200191611d86565b820191906000526020600020905b815481529060010190602001808311611d6957829003601f168201915b50505050508152602001600582018054600181600116156101000203166002900480601f016020809104026020016040519081016040528092919081815260200182805460018160011615610100020316600290048015611e285780601f10611dfd57610100808354040283529160200191611e28565b820191906000526020600020905b815481529060010190602001808311611e0b57829003601f168201915b505050505081526020016006820160009054906101000a900467ffffffffffffffff1667ffffffffffffffff1667ffffffffffffffff16815260200160078201805480602002602001604051908101604052809291908181526020018280548015611ee857602002820191906000526020600020905b8160009054906101000a900473ffffffffffffffffffffffffffffffffffffffff1673ffffffffffffffffffffffffffffffffffffffff1681526020019060010190808311611e9e575b5050505050815260200160088201805480602002602001604051908101604052809291908181526020018280548015611f6557602002820191906000526020600020906000905b82829054906101000a900460ff16151581526020019060010190602082600001049283019260010382029150808411611f2f5790505b505050505081526020016009820160009054906101000a900460ff161515151581526020016009820160019054906101000a900460f81b7effffffffffffffffffffffffffffffffffffffffffffffffffffffffffffff19167effffffffffffffffffffffffffffffffffffffffffffffffffffffffffffff1916815250509050919050565b6000600160008473ffffffffffffffffffffffffffffffffffffffff1673ffffffffffffffffffffffffffffffffffffffff16815260200190815260200160002060020160009054906101000a900473ffffffffffffffffffffffffffffffffffffffff1673ffffffffffffffffffffffffffffffffffffffff163373ffffffffffffffffffffffffffffffffffffffff161415612311577f3200000000000000000000000000000000000000000000000000000000000000600160008573ffffffffffffffffffffffffffffffffffffffff1673ffffffffffffffffffffffffffffffffffffffff16815260200190815260200160002060090160016101000a81548160ff021916908360f81c021790555081600160008573ffffffffffffffffffffffffffffffffffffffff1673ffffffffffffffffffffffffffffffffffffffff16815260200190815260200160002060050190805190602001906121549291906142d4565b50612160600784612912565b5060088390806001815401808255809150509060018203906000526020600020016000909192909190916101000a81548173ffffffffffffffffffffffffffffffffffffffff021916908373ffffffffffffffffffffffffffffffffffffffff1602179055505060016000803373ffffffffffffffffffffffffffffffffffffffff1673ffffffffffffffffffffffffffffffffffffffff16815260200190815260200160002060040160006101000a81548160ff02191690831515021790555060053390806001815401808255809150509060018203906000526020600020016000909192909190916101000a81548173ffffffffffffffffffffffffffffffffffffffff021916908373ffffffffffffffffffffffffffffffffffffffff160217905550507fecb395b2a2ceb57177a24a711e761771826a6a5c10c88fcba80bceca4a92e44683600160008673ffffffffffffffffffffffffffffffffffffffff1673ffffffffffffffffffffffffffffffffffffffff1681526020019081526020016000206005016040516122f99291906156e6565b60405180910390a161230a83613dec565b9050612316565b600090505b92915050565b606060058054806020026020016040519081016040528092919081815260200182805480156123a057602002820191906000526020600020905b8160009054906101000a900473ffffffffffffffffffffffffffffffffffffffff1673ffffffffffffffffffffffffffffffffffffffff1681526020019060010190808311612356575b5050505050905090565b6060600680548060200260200160405190810160405280929190818152602001828054801561242e57602002820191906000526020600020905b8160009054906101000a900473ffffffffffffffffffffffffffffffffffffffff1673ffffffffffffffffffffffffffffffffffffffff16815260200190600101908083116123e4575b5050505050905090565b6000600115156000803373ffffffffffffffffffffffffffffffffffffffff1673ffffffffffffffffffffffffffffffffffffffff16815260200190815260200160002060040160009054906101000a900460ff161515141561257b576000803373ffffffffffffffffffffffffffffffffffffffff1673ffffffffffffffffffffffffffffffffffffffff16815260200190815260200160002060008082016000905560018201600090556002820160006101000a81549067ffffffffffffffff02191690556002820160086101000a81549061ffff021916905560038201600090556004820160006101000a81549060ff021916905550507fa332e7b06782060530f8d1575fcf83b5e831fe3dd09c85e53b0351a7c38ceeac336040516125619190615757565b60405180910390a1612574600533612912565b90506125b7565b7fa332e7b06782060530f8d1575fcf83b5e831fe3dd09c85e53b0351a7c38ceeac336040516125aa9190615785565b60405180910390a1600090505b90565b6125c2614482565b6125ca614482565b60008090505b83518167ffffffffffffffff16101561263457612609848267ffffffffffffffff16815181106125fc57fe5b6020026020010151611bd4565b828267ffffffffffffffff166032811061261f57fe5b602002018190525080806001019150506125d0565b5080915050919050565b60007f3000000000000000000000000000000000000000000000000000000000000000600160003373ffffffffffffffffffffffffffffffffffffffff1673ffffffffffffffffffffffffffffffffffffffff16815260200190815260200160002060090160019054906101000a900460f81b7effffffffffffffffffffffffffffffffffffffffffffffffffffffffffffff191614156128ce5743600160003373ffffffffffffffffffffffffffffffffffffffff1673ffffffffffffffffffffffffffffffffffffffff1681526020019081526020016000206001018190555084600160003373ffffffffffffffffffffffffffffffffffffffff1673ffffffffffffffffffffffffffffffffffffffff16815260200190815260200160002060020160146101000a81548167ffffffffffffffff021916908367ffffffffffffffff16021790555083600160003373ffffffffffffffffffffffffffffffffffffffff1673ffffffffffffffffffffffffffffffffffffffff168152602001908152602001600020600201601c6101000a81548161ffff021916908361ffff1602179055508267ffffffffffffffff16600160003373ffffffffffffffffffffffffffffffffffffffff1673ffffffffffffffffffffffffffffffffffffffff1681526020019081526020016000206003018190555081600160003373ffffffffffffffffffffffffffffffffffffffff1673ffffffffffffffffffffffffffffffffffffffff168152602001908152602001600020600401908051906020019061288d9291906142d4565b507fa332e7b06782060530f8d1575fcf83b5e831fe3dd09c85e53b0351a7c38ceeac336040516128bd919061565c565b60405180910390a16001905061290a565b7fa332e7b06782060530f8d1575fcf83b5e831fe3dd09c85e53b0351a7c38ceeac336040516128fd91906155d2565b60405180910390a1600090505b949350505050565b600080600090505b83805490508167ffffffffffffffff161015612aaf578273ffffffffffffffffffffffffffffffffffffffff16848267ffffffffffffffff168154811061295d57fe5b9060005260206000200160009054906101000a900473ffffffffffffffffffffffffffffffffffffffff1673ffffffffffffffffffffffffffffffffffffffff161415612aa257836001858054905003815481106129b757fe5b9060005260206000200160009054906101000a900473ffffffffffffffffffffffffffffffffffffffff16848267ffffffffffffffff16815481106129f857fe5b9060005260206000200160006101000a81548173ffffffffffffffffffffffffffffffffffffffff021916908373ffffffffffffffffffffffffffffffffffffffff16021790555083600185805490500381548110612a5357fe5b9060005260206000200160006101000a81549073ffffffffffffffffffffffffffffffffffffffff021916905560018481818054905003915081612a9791906144b0565b506001915050612ab5565b808060010191505061291a565b50600090505b92915050565b6000806006805490501415612af2577f32000000000000000000000000000000000000000000000000000000000000009050613058565b60008090505b6006805490508167ffffffffffffffff16101561303357600060068267ffffffffffffffff1681548110612b2857fe5b9060005260206000200160009054906101000a900473ffffffffffffffffffffffffffffffffffffffff1690506000808573ffffffffffffffffffffffffffffffffffffffff1673ffffffffffffffffffffffffffffffffffffffff16815260200190815260200160002060020160009054906101000a900467ffffffffffffffff1667ffffffffffffffff16600160008373ffffffffffffffffffffffffffffffffffffffff1673ffffffffffffffffffffffffffffffffffffffff16815260200190815260200160002060020160149054906101000a900467ffffffffffffffff1667ffffffffffffffff1611158015612ccb57506000808573ffffffffffffffffffffffffffffffffffffffff1673ffffffffffffffffffffffffffffffffffffffff16815260200190815260200160002060020160089054906101000a900461ffff1661ffff16600160008373ffffffffffffffffffffffffffffffffffffffff1673ffffffffffffffffffffffffffffffffffffffff168152602001908152602001600020600201601c9054906101000a900461ffff1661ffff1611155b8015612d5a57506000808573ffffffffffffffffffffffffffffffffffffffff1673ffffffffffffffffffffffffffffffffffffffff16815260200190815260200160002060030154600160008373ffffffffffffffffffffffffffffffffffffffff1673ffffffffffffffffffffffffffffffffffffffff1681526020019081526020016000206003015410155b156130255760008060008673ffffffffffffffffffffffffffffffffffffffff1673ffffffffffffffffffffffffffffffffffffffff16815260200190815260200160002060040160006101000a81548160ff021916908315150217905550612dc4600585612912565b5083600160008373ffffffffffffffffffffffffffffffffffffffff1673ffffffffffffffffffffffffffffffffffffffff16815260200190815260200160002060020160006101000a81548173ffffffffffffffffffffffffffffffffffffffff021916908373ffffffffffffffffffffffffffffffffffffffff1602179055507f3100000000000000000000000000000000000000000000000000000000000000600160008373ffffffffffffffffffffffffffffffffffffffff1673ffffffffffffffffffffffffffffffffffffffff16815260200190815260200160002060090160016101000a81548160ff021916908360f81c0217905550612ecc600682612912565b50600160008273ffffffffffffffffffffffffffffffffffffffff1673ffffffffffffffffffffffffffffffffffffffff16815260200190815260200160002060030154600260008373ffffffffffffffffffffffffffffffffffffffff1673ffffffffffffffffffffffffffffffffffffffff1681526020019081526020016000206000828254019250508190555060078190806001815401808255809150509060018203906000526020600020016000909192909190916101000a81548173ffffffffffffffffffffffffffffffffffffffff021916908373ffffffffffffffffffffffffffffffffffffffff160217905550507f654163525cabcfa0ce95ecb1f232c75746c89688c42e7e2d52df90d770fc9e578185604051612ff3929190615568565b60405180910390a17f300000000000000000000000000000000000000000000000000000000000000092505050613058565b508080600101915050612af8565b507f310000000000000000000000000000000000000000000000000000000000000090505b919050565b6000806005805490501415613094577f3200000000000000000000000000000000000000000000000000000000000000905061368f565b60008090505b6005805490508167ffffffffffffffff16101561366a57600060058267ffffffffffffffff16815481106130ca57fe5b9060005260206000200160009054906101000a900473ffffffffffffffffffffffffffffffffffffffff169050600073ffffffffffffffffffffffffffffffffffffffff168173ffffffffffffffffffffffffffffffffffffffff16141580156131865750600115156000808373ffffffffffffffffffffffffffffffffffffffff1673ffffffffffffffffffffffffffffffffffffffff16815260200190815260200160002060040160009054906101000a900460ff161515145b1561365c576000808273ffffffffffffffffffffffffffffffffffffffff1673ffffffffffffffffffffffffffffffffffffffff16815260200190815260200160002060020160089054906101000a900461ffff1661ffff16600160008673ffffffffffffffffffffffffffffffffffffffff1673ffffffffffffffffffffffffffffffffffffffff168152602001908152602001600020600201601c9054906101000a900461ffff1661ffff161115801561330157506000808273ffffffffffffffffffffffffffffffffffffffff1673ffffffffffffffffffffffffffffffffffffffff16815260200190815260200160002060020160009054906101000a900467ffffffffffffffff1667ffffffffffffffff16600160008673ffffffffffffffffffffffffffffffffffffffff1673ffffffffffffffffffffffffffffffffffffffff16815260200190815260200160002060020160149054906101000a900467ffffffffffffffff1667ffffffffffffffff1611155b801561339057506000808273ffffffffffffffffffffffffffffffffffffffff1673ffffffffffffffffffffffffffffffffffffffff16815260200190815260200160002060030154600160008673ffffffffffffffffffffffffffffffffffffffff1673ffffffffffffffffffffffffffffffffffffffff1681526020019081526020016000206003015410155b1561365b5760008060008373ffffffffffffffffffffffffffffffffffffffff1673ffffffffffffffffffffffffffffffffffffffff16815260200190815260200160002060040160006101000a81548160ff0219169083151502179055506133fa600582612912565b5080600160008673ffffffffffffffffffffffffffffffffffffffff1673ffffffffffffffffffffffffffffffffffffffff16815260200190815260200160002060020160006101000a81548173ffffffffffffffffffffffffffffffffffffffff021916908373ffffffffffffffffffffffffffffffffffffffff1602179055507f3100000000000000000000000000000000000000000000000000000000000000600160008673ffffffffffffffffffffffffffffffffffffffff1673ffffffffffffffffffffffffffffffffffffffff16815260200190815260200160002060090160016101000a81548160ff021916908360f81c0217905550613502600685612912565b50600160008573ffffffffffffffffffffffffffffffffffffffff1673ffffffffffffffffffffffffffffffffffffffff16815260200190815260200160002060030154600260008673ffffffffffffffffffffffffffffffffffffffff1673ffffffffffffffffffffffffffffffffffffffff1681526020019081526020016000206000828254019250508190555060078490806001815401808255809150509060018203906000526020600020016000909192909190916101000a81548173ffffffffffffffffffffffffffffffffffffffff021916908373ffffffffffffffffffffffffffffffffffffffff160217905550507f654163525cabcfa0ce95ecb1f232c75746c89688c42e7e2d52df90d770fc9e578482604051613629929190615568565b60405180910390a17f30000000000000000000000000000000000000000000000000000000000000009250505061368f565b5b50808060010191505061309a565b507f310000000000000000000000000000000000000000000000000000000000000090505b919050565b60008090505b6008805490508167ffffffffffffffff161015613b8d57600060088267ffffffffffffffff16815481106136ca57fe5b9060005260206000200160009054906101000a900473ffffffffffffffffffffffffffffffffffffffff169050600160008273ffffffffffffffffffffffffffffffffffffffff1673ffffffffffffffffffffffffffffffffffffffff16815260200190815260200160002060070180549050600160008373ffffffffffffffffffffffffffffffffffffffff1673ffffffffffffffffffffffffffffffffffffffff16815260200190815260200160002060060160009054906101000a900467ffffffffffffffff1667ffffffffffffffff161115613b7857600160008273ffffffffffffffffffffffffffffffffffffffff1673ffffffffffffffffffffffffffffffffffffffff16815260200190815260200160002060020160009054906101000a900473ffffffffffffffffffffffffffffffffffffffff1673ffffffffffffffffffffffffffffffffffffffff168373ffffffffffffffffffffffffffffffffffffffff1614613b73577f654163525cabcfa0ce95ecb1f232c75746c89688c42e7e2d52df90d770fc9e57818460405161386a9291906154f0565b60405180910390a1600160008273ffffffffffffffffffffffffffffffffffffffff1673ffffffffffffffffffffffffffffffffffffffff1681526020019081526020016000206007018390806001815401808255809150509060018203906000526020600020016000909192909190916101000a81548173ffffffffffffffffffffffffffffffffffffffff021916908373ffffffffffffffffffffffffffffffffffffffff16021790555050600160008273ffffffffffffffffffffffffffffffffffffffff1673ffffffffffffffffffffffffffffffffffffffff1681526020019081526020016000206008016000908060018154018082558091505090600182039060005260206000209060209182820401919006909192909190916101000a81548160ff0219169083151502179055505060008060008573ffffffffffffffffffffffffffffffffffffffff1673ffffffffffffffffffffffffffffffffffffffff16815260200190815260200160002060040160006101000a81548160ff021916908315150217905550613a05600584612912565b506001600060088467ffffffffffffffff1681548110613a2157fe5b9060005260206000200160009054906101000a900473ffffffffffffffffffffffffffffffffffffffff1673ffffffffffffffffffffffffffffffffffffffff1673ffffffffffffffffffffffffffffffffffffffff16815260200190815260200160002060060160009054906101000a900467ffffffffffffffff1667ffffffffffffffff166001600060088567ffffffffffffffff1681548110613ac357fe5b9060005260206000200160009054906101000a900473ffffffffffffffffffffffffffffffffffffffff1673ffffffffffffffffffffffffffffffffffffffff1673ffffffffffffffffffffffffffffffffffffffff168152602001908152602001600020600701805490501415613b6d577fa332e7b06782060530f8d1575fcf83b5e831fe3dd09c85e53b0351a7c38ceeac81604051613b649190615600565b60405180910390a15b50613b8d565b613b7e565b50613b80565b505b808060010191505061369a565b5050565b60008060009050600080905060008090505b600160008673ffffffffffffffffffffffffffffffffffffffff1673ffffffffffffffffffffffffffffffffffffffff168152602001908152602001600020600801805490508167ffffffffffffffff161015613c915760011515600160008773ffffffffffffffffffffffffffffffffffffffff1673ffffffffffffffffffffffffffffffffffffffff1681526020019081526020016000206008018267ffffffffffffffff1681548110613c5557fe5b90600052602060002090602091828204019190069054906101000a900460ff1615151415613c84576001820191505b8080600101915050613ba3565b50600160008573ffffffffffffffffffffffffffffffffffffffff1673ffffffffffffffffffffffffffffffffffffffff16815260200190815260200160002060060160009054906101000a900467ffffffffffffffff1667ffffffffffffffff168167ffffffffffffffff1610613de25760018060008673ffffffffffffffffffffffffffffffffffffffff1673ffffffffffffffffffffffffffffffffffffffff16815260200190815260200160002060090160006101000a81548160ff0219169083151502179055507fecb395b2a2ceb57177a24a711e761771826a6a5c10c88fcba80bceca4a92e44684600160008773ffffffffffffffffffffffffffffffffffffffff1673ffffffffffffffffffffffffffffffffffffffff168152602001908152602001600020600501604051613dcf9291906157e1565b60405180910390a1613de0846141e8565b505b8192505050919050565b600080600160008473ffffffffffffffffffffffffffffffffffffffff1673ffffffffffffffffffffffffffffffffffffffff16815260200190815260200160002060060160009054906101000a900467ffffffffffffffff16905060008090506000600190505b6005805490508167ffffffffffffffff16116141a457600060056001830367ffffffffffffffff1681548110613e8657fe5b9060005260206000200160009054906101000a900473ffffffffffffffffffffffffffffffffffffffff169050600160008773ffffffffffffffffffffffffffffffffffffffff1673ffffffffffffffffffffffffffffffffffffffff16815260200190815260200160002060020160009054906101000a900473ffffffffffffffffffffffffffffffffffffffff1673ffffffffffffffffffffffffffffffffffffffff168173ffffffffffffffffffffffffffffffffffffffff161461412b577f654163525cabcfa0ce95ecb1f232c75746c89688c42e7e2d52df90d770fc9e578682604051613f799291906154f0565b60405180910390a18280600101935050600160008773ffffffffffffffffffffffffffffffffffffffff1673ffffffffffffffffffffffffffffffffffffffff1681526020019081526020016000206007018190806001815401808255809150509060018203906000526020600020016000909192909190916101000a81548173ffffffffffffffffffffffffffffffffffffffff021916908373ffffffffffffffffffffffffffffffffffffffff16021790555050600160008773ffffffffffffffffffffffffffffffffffffffff1673ffffffffffffffffffffffffffffffffffffffff1681526020019081526020016000206008016000908060018154018082558091505090600182039060005260206000209060209182820401919006909192909190916101000a81548160ff0219169083151502179055505060008060008373ffffffffffffffffffffffffffffffffffffffff1673ffffffffffffffffffffffffffffffffffffffff16815260200190815260200160002060040160006101000a81548160ff02191690831515021790555061411c600582612912565b50818060019003925050614131565b50614197565b8367ffffffffffffffff168367ffffffffffffffff1610156141535750614197565b7fa332e7b06782060530f8d1575fcf83b5e831fe3dd09c85e53b0351a7c38ceeac866040516141829190615600565b60405180910390a160019450505050506141e3565b8080600101915050613e54565b507fa332e7b06782060530f8d1575fcf83b5e831fe3dd09c85e53b0351a7c38ceeac846040516141d491906157b3565b60405180910390a16000925050505b919050565b60006141f5600883612912565b506000600160008473ffffffffffffffffffffffffffffffffffffffff1673ffffffffffffffffffffffffffffffffffffffff16815260200190815260200160002060010181905550919050565b50805460018160011615610100020316600290046000825580601f106142695750614288565b601f01602090049060005260206000209081019061428791906144dc565b5b50565b50805460008255906000526020600020908101906142a991906144dc565b50565b50805460008255601f0160209004906000526020600020908101906142d191906144dc565b50565b828054600181600116156101000203166002900490600052602060002090601f016020900481019282601f1061431557805160ff1916838001178555614343565b82800160010185558215614343579182015b82811115614342578251825591602001919060010190614327565b5b50905061435091906144dc565b5090565b6040518061258001604052806032905b61436c614501565b8152602001906001900390816143645790505090565b6040518060c001604052806000815260200160008152602001600067ffffffffffffffff168152602001600061ffff168152602001600081526020016000151581525090565b604051806101a001604052806000815260200160008152602001600073ffffffffffffffffffffffffffffffffffffffff168152602001600067ffffffffffffffff168152602001600061ffff168152602001600081526020016060815260200160608152602001600067ffffffffffffffff168152602001606081526020016060815260200160001515815260200160007effffffffffffffffffffffffffffffffffffffffffffffffffffffffffffff191681525090565b6040518061514001604052806032905b61449a614547565b8152602001906001900390816144925790505090565b8154818355818111156144d7578183600052602060002091820191016144d691906144dc565b5b505050565b6144fe91905b808211156144fa5760008160009055506001016144e2565b5090565b90565b6040518060c001604052806000815260200160008152602001600067ffffffffffffffff168152602001600061ffff168152602001600081526020016000151581525090565b604051806101a001604052806000815260200160008152602001600073ffffffffffffffffffffffffffffffffffffffff168152602001600067ffffffffffffffff168152602001600061ffff168152602001600081526020016060815260200160608152602001600067ffffffffffffffff168152602001606081526020016060815260200160001515815260200160007effffffffffffffffffffffffffffffffffffffffffffffffffffffffffffff191681525090565b60008135905061461081615d16565b92915050565b60008135905061462581615d2d565b92915050565b600082601f83011261463c57600080fd5b813561464f61464a82615a81565b615a54565b9150818183526020840193506020810190508385602084028201111561467457600080fd5b60005b838110156146a4578161468a8882614616565b845260208401935060208301925050600181019050614677565b5050505092915050565b6000813590506146bd81615d44565b92915050565b600082601f8301126146d457600080fd5b81356146e76146e282615aa9565b615a54565b9150808252602083016020830185838301111561470357600080fd5b61470e838284615cc3565b50505092915050565b60008135905061472681615d5b565b92915050565b60008135905061473b81615d72565b92915050565b60006020828403121561475357600080fd5b600061476184828501614601565b91505092915050565b60006020828403121561477c57600080fd5b600061478a84828501614616565b91505092915050565b600080604083850312156147a657600080fd5b60006147b485828601614616565b92505060206147c5858286016146ae565b9150509250929050565b600080604083850312156147e257600080fd5b60006147f085828601614616565b925050602083013567ffffffffffffffff81111561480d57600080fd5b614819858286016146c3565b9150509250929050565b60006020828403121561483557600080fd5b600082013567ffffffffffffffff81111561484f57600080fd5b61485b8482850161462b565b91505092915050565b60008060006060848603121561487957600080fd5b60006148878682870161472c565b935050602061489886828701614717565b92505060406148a98682870161472c565b9150509250925092565b600080600080608085870312156148c957600080fd5b60006148d78782880161472c565b94505060206148e887828801614717565b93505060406148f98782880161472c565b925050606085013567ffffffffffffffff81111561491657600080fd5b614922878288016146c3565b91505092959194509250565b600061493a838361498a565b60208301905092915050565b60006149528383614b8e565b60208301905092915050565b600061496a83836151bf565b60c08301905092915050565b60006149828383615368565b905092915050565b61499381615c2d565b82525050565b6149a281615c2d565b82525050565b60006149b382615b2d565b6149bd8185615bc1565b93506149c883615ae2565b8060005b838110156149f95781516149e0888261492e565b97506149eb83615b7c565b9250506001810190506149cc565b5085935050505092915050565b6000614a1182615b22565b614a1b8185615bb0565b9350614a2683615ad5565b8060005b83811015614a57578151614a3e888261492e565b9750614a4983615b6f565b925050600181019050614a2a565b5085935050505092915050565b6000614a6f82615b38565b614a798185615bd2565b9350614a8483615aef565b8060005b83811015614ab5578151614a9c8882614946565b9750614aa783615b89565b925050600181019050614a88565b5085935050505092915050565b614acb81615b43565b614ad58184615be3565b9250614ae082615afc565b8060005b83811015614b11578151614af8878261495e565b9650614b0383615b96565b925050600181019050614ae4565b505050505050565b6000614b2482615b4e565b614b2e8185615bee565b935083602082028501614b4085615b06565b8060005b85811015614b7c5784840389528151614b5d8582614976565b9450614b6883615ba3565b925060208a01995050600181019050614b44565b50829750879550505050505092915050565b614b9781615c3f565b82525050565b614ba681615c3f565b82525050565b614bb581615c4b565b82525050565b614bc481615c4b565b82525050565b6000614bd582615b64565b614bdf8185615c0a565b9350614bef818560208601615cd2565b614bf881615d05565b840191505092915050565b6000614c0e82615b59565b614c188185615bf9565b9350614c28818560208601615cd2565b614c3181615d05565b840191505092915050565b6000614c4782615b59565b614c518185615c0a565b9350614c61818560208601615cd2565b614c6a81615d05565b840191505092915050565b600081546001811660008114614c925760018114614cb857614cfc565b607f6002830416614ca38187615c0a565b955060ff198316865260208601935050614cfc565b60028204614cc68187615c0a565b9550614cd185615b10565b60005b82811015614cf357815481890152600182019150602081019050614cd4565b80880195505050505b505092915050565b6000614d11601983615c0a565b91507f50726f766964657220556e61626c6520746f20557064617465000000000000006000830152602082019050919050565b6000614d51601883615c0a565b91507f5265717565737420556e61626c6520746f2055706461746500000000000000006000830152602082019050919050565b6000614d91601183615c0a565b91507f456e6f7567682056616c696461746f72730000000000000000000000000000006000830152602082019050919050565b6000614dd1601083615c0a565b91507f50726f76696465722055706461746564000000000000000000000000000000006000830152602082019050919050565b6000614e11600f83615c0a565b91507f52657175657374205570646174656400000000000000000000000000000000006000830152602082019050919050565b6000614e51601f83615c0a565b91507f56616c69646174696f6e2041737369676e656420746f2050726f7669646572006000830152602082019050919050565b6000614e91600f83615c0a565b91507f526571756573742053746f7070656400000000000000000000000000000000006000830152602082019050919050565b6000614ed1601683615c0a565b91507f5265717565737420556e61626c6520746f2053746f70000000000000000000006000830152602082019050919050565b6000614f11601d83615c0a565b91507f5265717565737420436f6d7075746174696f6e20436f6d706c657465640000006000830152602082019050919050565b6000614f51600e83615c0a565b91507f50726f76696465722041646465640000000000000000000000000000000000006000830152602082019050919050565b6000614f91601083615c0a565b91507f50726f76696465722053746f70706564000000000000000000000000000000006000830152602082019050919050565b6000614fd1601083615c0a565b91507f56616c696461746f72205369676e6564000000000000000000000000000000006000830152602082019050919050565b6000615011601783615c0a565b91507f50726f766964657220556e61626c6520746f2053746f700000000000000000006000830152602082019050919050565b6000615051601583615c0a565b91507f4e6f7420456e6f7567682056616c696461746f727300000000000000000000006000830152602082019050919050565b6000615091601083615c0a565b91507f526571756573742041737369676e6564000000000000000000000000000000006000830152602082019050919050565b60006150d1601383615c0a565b91507f56616c69646174696f6e20436f6d706c657465000000000000000000000000006000830152602082019050919050565b6000615111600d83615c0a565b91507f52657175657374204164646564000000000000000000000000000000000000006000830152602082019050919050565b60c08201600082015161515a60008501826154b4565b50602082015161516d60208501826154b4565b50604082015161518060408501826154d2565b5060608201516151936060850182615496565b5060808201516151a660808501826154b4565b5060a08201516151b960a0850182614b8e565b50505050565b60c0820160008201516151d560008501826154b4565b5060208201516151e860208501826154b4565b5060408201516151fb60408501826154d2565b50606082015161520e6060850182615496565b50608082015161522160808501826154b4565b5060a082015161523460a0850182614b8e565b50505050565b60006101a08301600083015161525360008601826154b4565b50602083015161526660208601826154b4565b506040830151615279604086018261498a565b50606083015161528c60608601826154d2565b50608083015161529f6080860182615496565b5060a08301516152b260a08601826154b4565b5060c083015184820360c08601526152ca8282614c03565b91505060e083015184820360e08601526152e48282614c03565b9150506101008301516152fb6101008601826154d2565b506101208301518482036101208601526153158282614a06565b9150506101408301518482036101408601526153318282614a64565b915050610160830151615348610160860182614b8e565b5061018083015161535d610180860182614bac565b508091505092915050565b60006101a08301600083015161538160008601826154b4565b50602083015161539460208601826154b4565b5060408301516153a7604086018261498a565b5060608301516153ba60608601826154d2565b5060808301516153cd6080860182615496565b5060a08301516153e060a08601826154b4565b5060c083015184820360c08601526153f88282614c03565b91505060e083015184820360e08601526154128282614c03565b9150506101008301516154296101008601826154d2565b506101208301518482036101208601526154438282614a06565b91505061014083015184820361014086015261545f8282614a64565b915050610160830151615476610160860182614b8e565b5061018083015161548b610180860182614bac565b508091505092915050565b61549f81615c77565b82525050565b6154ae81615c77565b82525050565b6154bd81615ca5565b82525050565b6154cc81615ca5565b82525050565b6154db81615caf565b82525050565b6154ea81615caf565b82525050565b60006060820190506155056000830185614999565b6155126020830184614999565b818103604083015261552381614e44565b90509392505050565b60006060820190506155416000830185614999565b61554e6020830184614999565b818103604083015261555f81614fc4565b90509392505050565b600060608201905061557d6000830185614999565b61558a6020830184614999565b818103604083015261559b81615084565b90509392505050565b60006040820190506155b96000830184614999565b81810360208301526155ca81614d04565b905092915050565b60006040820190506155e76000830184614999565b81810360208301526155f881614d44565b905092915050565b60006040820190506156156000830184614999565b818103602083015261562681614d84565b905092915050565b60006040820190506156436000830184614999565b818103602083015261565481614dc4565b905092915050565b60006040820190506156716000830184614999565b818103602083015261568281614e04565b905092915050565b600060408201905061569f6000830184614999565b81810360208301526156b081614e84565b905092915050565b60006040820190506156cd6000830184614999565b81810360208301526156de81614ec4565b905092915050565b60006060820190506156fb6000830185614999565b818103602083015261570c81614f04565b905081810360408301526157208184614c75565b90509392505050565b600060408201905061573e6000830184614999565b818103602083015261574f81614f44565b905092915050565b600060408201905061576c6000830184614999565b818103602083015261577d81614f84565b905092915050565b600060408201905061579a6000830184614999565b81810360208301526157ab81615004565b905092915050565b60006040820190506157c86000830184614999565b81810360208301526157d981615044565b905092915050565b60006060820190506157f66000830185614999565b8181036020830152615807816150c4565b9050818103604083015261581b8184614c75565b90509392505050565b60006060820190506158396000830185614999565b818103602083015261584a81615104565b9050818103604083015261585e8184614bca565b90509392505050565b6000602082019050818103600083015261588181846149a8565b905092915050565b60006125808201905061589f6000830184614ac2565b92915050565b600060208201905081810360008301526158bf8184614b19565b905092915050565b60006020820190506158dc6000830184614b9d565b92915050565b600060c0820190506158f76000830184615144565b92915050565b60006020820190508181036000830152615917818461523a565b905092915050565b600060208201905061593460008301846154c3565b92915050565b600061016082019050615950600083018e6154c3565b61595d602083018d6154c3565b61596a604083018c614999565b615977606083018b6154e1565b615984608083018a6154a5565b61599160a08301896154c3565b81810360c08301526159a38188614c3c565b905081810360e08301526159b78187614c3c565b90506159c76101008301866154e1565b6159d5610120830185614b9d565b6159e3610140830184614bbb565b9c9b505050505050505050505050565b600060c082019050615a0860008301896154c3565b615a1560208301886154c3565b615a2260408301876154e1565b615a2f60608301866154a5565b615a3c60808301856154c3565b615a4960a0830184614b9d565b979650505050505050565b6000604051905081810181811067ffffffffffffffff82111715615a7757600080fd5b8060405250919050565b600067ffffffffffffffff821115615a9857600080fd5b602082029050602081019050919050565b600067ffffffffffffffff821115615ac057600080fd5b601f19601f8301169050602081019050919050565b6000602082019050919050565b6000602082019050919050565b6000602082019050919050565b6000819050919050565b6000819050919050565b60008160005260206000209050919050565b600081519050919050565b600081519050919050565b600081519050919050565b600060329050919050565b600060329050919050565b600081519050919050565b600081519050919050565b6000602082019050919050565b6000602082019050919050565b6000602082019050919050565b6000602082019050919050565b6000602082019050919050565b600082825260208201905092915050565b600082825260208201905092915050565b600082825260208201905092915050565b600081905092915050565b600081905092915050565b600082825260208201905092915050565b600082825260208201905092915050565b6000615c2682615c85565b9050919050565b6000615c3882615c85565b9050919050565b60008115159050919050565b60007fff0000000000000000000000000000000000000000000000000000000000000082169050919050565b600061ffff82169050919050565b600073ffffffffffffffffffffffffffffffffffffffff82169050919050565b6000819050919050565b600067ffffffffffffffff82169050919050565b82818337600083830152505050565b60005b83811015615cf0578082015181840152602081019050615cd5565b83811115615cff576000848401525b50505050565b6000601f19601f8301169050919050565b615d1f81615c1b565b8114615d2a57600080fd5b50565b615d3681615c2d565b8114615d4157600080fd5b50565b615d4d81615c3f565b8114615d5857600080fd5b50565b615d6481615c77565b8114615d6f57600080fd5b50565b615d7b81615caf565b8114615d8657600080fd5b5056fea265627a7a723058205c302469fcc57f924306d24747cd95ec32e1b242aaa841a1563542466080f5926c6578706572696d656e74616cf50037",
  "source": "/////////////////////////////////////////////////////////////////////////////////////\n//version 2.0.4\n//Author: Taurus, Samuel Pritchett\n//Copyright: tlu4@lsu.edu\n//\n//comments updated on Apr.2019\n//fixed validateReqeust Logic: validator list is updated when selection, \n//                      signature list is updated when result submiteed, to avoid multi-submission\n//did not change function parameter, should not break anything\n///////////////////////////////////////////////////////////////////////////////////////\n//NOTE:\n//This design uses account address as the identifier, meaning each address could only have one req/prov associated.\n//When submit new or update existing req/prov, previous record are overwriten.\n//Each address could only have one req or prov, not at same time.\n//On the other hand, reqID and provID is just a counter, not an identifier. Update or resubmition results in new reqID/provID.\n\n//TODO: add conflict detection of the address. Check whether existing req or prov from your address is 'not complete',(being proccessed).\n////////////////////////////////////////////////////////////////////////////////////\n\npragma solidity ^0.5.0;\npragma experimental ABIEncoderV2;           //enable returning self-defined type, \n                                            //do not disable, provider is returned for debuging reason.\n\ncontract TaskContract {\n    //list\n    mapping (address => Provider) public providerList;   //provAddr => provider struct\n    mapping (address => Request)  public requestList;    //reqAddr => request struct\n    mapping (address => uint256)  public balanceList;    //reqAddr => balance   \n \n    //ID - counter\n    uint256 private providerCount;                       //+1 each time\n    uint256 private requestCount;\n\n    constructor() public {                               //sol 5.0 syntax\n        providerCount = 0;\n        requestCount = 0;\n    }\n\n    struct Request {\n        uint256 reqID;                      //requestID is not identifier, just a counter\n        uint256 blockNumber;                //record the time of submission\n        address payable provider;           //record the provider assigned to this request\n        uint64  time;                       //maximum time requirements                 TODO: determine the unit and format\n        uint16  target;                     //target 0-100.00                           TODO: determine the unit and format\n        uint256 price;                      //the max amount he willing to pay          TODO: determine the unit and format\n        bytes   dataID;                     //dataID used to fetch the off-chain data, interact with ipfs\n        bytes   resultID;                   //dataID to fetch the off-chain result, via ipfs\n        uint64  numValidations;             //user defined the number of validation, TODO: fix this as 3 \n        address payable []  validators;     //validators' addr, update when assigned the task to validators\n        bool[]  signatures;                 //true or false array, update only when validator submit result\n        bool    isValid;                    //the final flag\n        byte    status;                     //one byte indicating the status: 0: 'pending', 1:'providing', 2: 'validating', 3: 'complete'\n        //mapping (address => bool)validationList;   //no way to know if a specific address is in this mapping\n                                                    //but this can be useful together with validator []array\n    }\n\n    struct Provider {\n        uint256 provID;                     //just a counter\n        uint256 blockNumber;                //record the time of submission\n        uint64  maxTime;                    //max time he is willing to accept, maxTime of Prov's should be larger than Req's to successfully assign\n        uint16  maxTarget;                  //max target he can provide\n        uint256 minPrice;                   //lowest price he can accept\n        bool    available;                  //if ready to be assigned\n    }\n\n\n    //two types of events, only difference is # of returned address\n    //no need seperate events for each type, just put whatever info passed in bytes info\n    event IPFSInfo          (address payable reqAddr, bytes info, bytes extra);\n    event SystemInfo        (address payable reqAddr, bytes info);\n    event PairingInfo       (address payable reqAddr, address payable provAddr, bytes info);\n\n\n    //Pools stores the address of req or prov, thus indicate the stages.\n    address payable [] providerPool;        //provAddr only when more providers > req, or empty\n    address payable [] pendingPool;         //reqAddr only when more requests > prov, or empty\n    address payable [] providingPool;       //reqAddr\n    address payable [] validatingPool;      //reqAddr\n    /////////////////////////////////////////////////////////////////////////////////////\n\n    \n    // Function called to become a provider. Add address on List, and Pool if not instantly assigned. \n    // NOTE: cannot use to update pending providers. \n    // TIPS on gas cost: don't create local copy and write back, modify the storage directly.\n    // gas cost 165K without event / 167K with event / 92K overwrite\n    function startProviding(uint64 maxTime, uint16 maxTarget, uint64 minPrice) public returns (bool) {\n        if(providerList[msg.sender].blockNumber == 0){                  //if this is new\n            // register a new provider object in the List and map              \n            providerList[msg.sender].provID         = providerCount;    //cost 50k per item edit\n            providerList[msg.sender].blockNumber    = block.number;           \n            providerList[msg.sender].maxTime        = maxTime;\n            providerList[msg.sender].maxTime        = maxTime;       \n            providerList[msg.sender].maxTarget      = maxTarget;\n            providerList[msg.sender].minPrice       = minPrice;\n            providerList[msg.sender].available      = true;             //turn on the flag at LAST in case error\n            // ready for the next       \n            providerPool.push(msg.sender);\n            emit SystemInfo (msg.sender, \"Provider Added\");\n            providerCount++;\n            if(validatingPool.length != 0){                           //need to update how validation works before we can prioritize it here\n                findValidation(msg.sender);\n            }\n            assignProvider(msg.sender);                                 //try an instant assignment trial\n            return true;\n        } \n        else {                                                          //this address has been recorded before\n            return updateProvider(maxTime, maxTarget, minPrice);               //this could be an update\n            /*  //this is deprecated, use updateFunction instead.\n            if(providerList[msg.sender].available == true){             //can only modify available provider\n                providerList[msg.sender].blockNumber    = block.number;         \n                providerList[msg.sender].maxTime        = maxTime;       \n                providerList[msg.sender].maxTarget      = maxTarget;\n                providerList[msg.sender].minPrice       = minPrice;\n                emit SystemInfo(msg.sender,'Provider Updated');\n                assignProvider(msg.sender);\n                return true;\n            }*/\n        }\n    }\n    // Stop a provider. Must be sent from the provider address or it will be failed.\n    function stopProviding() public returns (bool) {\n        // If the sender is currently an active provider\n        if (providerList[msg.sender].available == true){               //can only stop available provider              \n            delete providerList[msg.sender];                           //delete from List\n            emit SystemInfo(msg.sender, 'Provider Stopped');\n            return ArrayPop(providerPool, msg.sender);                 //delete from Pool                \n        }\n        else{   \n            emit SystemInfo(msg.sender, 'Provider Unable to Stop');\n            return false;\n        }\n    }\n    //update a provider, you must know the provID and must sent from right addr\n    function updateProvider(uint64 maxTime, uint16 maxTarget, uint64 minPrice) public returns (bool) {      \n        if(providerList[msg.sender].available == true){                //can only modify available provider\n            providerList[msg.sender].blockNumber    = block.number;         \n            providerList[msg.sender].maxTime        = maxTime;       \n            providerList[msg.sender].maxTarget      = maxTarget;\n            providerList[msg.sender].minPrice       = minPrice;\n            emit SystemInfo(msg.sender,'Provider Updated');\n            assignProvider(msg.sender);\n            return true;\n        }\n        else{\n            emit SystemInfo(msg.sender, 'Provider Unable to Update');\n            return false;\n        }\n    }\n\n    // Send a request from user to blockchain.\n    // Assumes price is including the cost for verification\n    function startRequest(uint64 time, uint16 target, uint64 price, bytes memory dataID) payable public returns (bool) {\n        if(requestList[msg.sender].blockNumber == 0){   //never submitted before\n            //register on List\n            requestList[msg.sender].reqID         = requestCount;\n            requestList[msg.sender].blockNumber   = block.number;  \n            requestList[msg.sender].provider      = address(0);      \n            requestList[msg.sender].time          = time;    \n            requestList[msg.sender].target        = target;\n            requestList[msg.sender].price         = price;\n            requestList[msg.sender].dataID        = dataID;\n            requestList[msg.sender].numValidations = 3;//fixed 3 for testing reasons\n            requestList[msg.sender].status = '0' ;     //pending = 0x30, is in ascii not number 0\n            pendingPool.push(msg.sender);\n            emit IPFSInfo (msg.sender, \"Request Added\", dataID);\n            \n            requestCount++;     \n            assignRequest(msg.sender);                  //try an instant assignment\n            return true;\n        } else {    //submitted before\n            return updateRequest(time, target, price, dataID);\n            /*if(requestList[msg.sender].status == '0' ){                   //can only update pending request\n                requestList[msg.sender].blockNumber    = block.number;         \n                requestList[msg.sender].time        = time;       \n                requestList[msg.sender].target      = target;\n                requestList[msg.sender].price       = price;\n                requestList[msg.sender].dataID      = dataID;\n                emit SystemInfo(msg.sender, 'Request Updated');\n                return true;\n            }*/\n        }\n    }\n    function stopRequest() public returns (bool){\n        if (requestList[msg.sender].status == '0'){                   //can only cancel owned pending request, ('0' = 0x30)            \n            delete requestList[msg.sender];                           //delete from List             \n            emit SystemInfo(msg.sender, 'Request Stopped');\n            return ArrayPop(pendingPool, msg.sender);                 //delete from Pool   \n        }\n        else{\n            emit SystemInfo(msg.sender, 'Request Unable to Stop');\n            return false;\n        }\n    }\n    function updateRequest(uint64 time, uint16 target, uint64 price, bytes memory dataID) payable public returns (bool) {      \n        if(requestList[msg.sender].status == '0' ){                   //can only update pending request\n            requestList[msg.sender].blockNumber    = block.number;         \n            requestList[msg.sender].time        = time;       \n            requestList[msg.sender].target      = target;\n            requestList[msg.sender].price       = price;\n            requestList[msg.sender].dataID      = dataID;\n            emit SystemInfo(msg.sender, 'Request Updated');\n            return true;\n        }\n        else{\n            emit SystemInfo(msg.sender, 'Request Unable to Update');\n            return false;\n        }\n    }\n\n    // Search in the requestPool, find a job for current provider. Triggered by startProviding\n    // Returns: note: return value all in ascii format\n    //          0: successfully assigned\n    //          1: searched all providers but find no match\n    //          2: no available provider right now\n    //          3: failure during poping pool\n    function assignProvider(address payable provAddr) private returns (byte){\n        if(pendingPool.length == 0) return '2';     //no pending requests\n        else {\n            //search throught the requestPool\n            for (uint64 i = 0; i < pendingPool.length; i++){  \n                address payable reqAddr = pendingPool[i];     //save the re-usable reqID , save gas by avoiding multiple read\n                if( requestList[reqAddr].time     <= providerList[provAddr].maxTime &&\n                    requestList[reqAddr].target   <= providerList[provAddr].maxTarget &&\n                    requestList[reqAddr].price    >= providerList[provAddr].minPrice){\n                        //meet the requirement, assign the task\n                        //update provider\n                        providerList[provAddr].available = false;\n                        ArrayPop(providerPool, provAddr);\n\n                        //update request\n                        requestList[reqAddr].provider = provAddr;\n                        requestList[reqAddr].status = '1';    //providing\n                        ArrayPop(pendingPool, reqAddr);\n\n                        //update balanceList            addr here is requester's\n                        balanceList[reqAddr] += requestList[reqAddr].price; \n\n                        providingPool.push(reqAddr);                       \n                        //status move from pending to providing\n                        emit PairingInfo(reqAddr, provAddr, \"Request Assigned\");\n                        return '0';                   \n                }                \n            }\n            //after for loop and no match\n            return '1';\n        }\n    }\n\n    // Assigning one task to one of the available providers. Only called from requestTask (private)\n    // Search in the providerPool, if no match in the end, return false\n    //could only assign one task at a time\n    //auto sel the first searching result for now, no comparation between multiple availability.\n    //TODO: need ot add preference next patch\n    // Returns: 0: successfully assigned\n    //          1: searched all providers but find no match\n    //          2: no available provider right now\n    //          3: failure during poping pool\n    function assignRequest(address payable reqAddr) private returns (byte) {\n        //provider availability is checked in pool not in list\n        if (providerPool.length == 0)   return '2';\n        else {            //if any provider in pool\n            for (uint64 i = 0; i < providerPool.length; i++) {      \n                address payable provAddr  = providerPool[i];   // save the provider's addr, reusable and save gas cost\n                if (provAddr != address(0) && providerList[provAddr].available == true){\n                    // Check if request conditions meet the providers requirements\n                    if (requestList[reqAddr].target <= providerList[provAddr].maxTarget && \n                        requestList[reqAddr].time <= providerList[provAddr].maxTime && \n                        requestList[reqAddr].price >= providerList[provAddr].minPrice) {\n                        \n                        //update provider:\n                        providerList[provAddr].available = false;\n                        ArrayPop(providerPool, provAddr);\n\n                        //update request\n                        requestList[reqAddr].provider = provAddr;\n                        requestList[reqAddr].status = '1';    //providing\n                        ArrayPop(pendingPool, reqAddr);\n\n                        //update balanceList              \n                        balanceList[reqAddr] += requestList[reqAddr].price; \n\n                        providingPool.push(reqAddr);\n                        emit PairingInfo(reqAddr, provAddr, \"Request Assigned\"); // Let provider listen for this event to see he was selected\n                        return '0';\n                    }\n                }\n            }\n            // No provider was found matching the criteria -- request failed\n            // TODO: how to return payment is to be discussed in future.\n            //requestList[reqID].addr.transfer(requestList[reqID].price); // Returns the ether to the sender\n            return '1';\n        }\n    }\n\n\n    // Provider will call this when they are done and the result data is available.\n    // This will invoke the validation stage. Only when the request got enough validators,\n    // that req could be moved from pool and marked. Or that req stays providing\n    function completeRequest(address payable reqAddr, bytes memory resultID) public returns (bool) {\n        // Confirm msg.sender is actually the provider of the task he claims\n        if (msg.sender == requestList[reqAddr].provider) {\n            //change request obj\n            requestList[reqAddr].status = '2';    //validating\n            requestList[reqAddr].resultID = resultID;\n            //move from providing pool to validating Pool.\n            ArrayPop(providingPool, reqAddr);\n            validatingPool.push(reqAddr);\n            //release provider (not necessarily depend on provider) back into providerPool\n            providerList[msg.sender].available = true;\n            providerPool.push(msg.sender);\n            emit IPFSInfo(reqAddr, 'Request Computation Completed',requestList[reqAddr].resultID);\n            //start validation process\n            return validateRequest(reqAddr);\n        }\n        else {\n            return false;\n        }\n    }\n\n    // Called by completeRequest before finalizing stuff. NOTE: must have no validators right now\n    // Try to find as many as possible qualified validators\n    // Returns false if there wasnt enough free providers to send out the required number of validation requests\n    // need validation from 1/10 of nodes -- could change\n    function validateRequest(address payable reqAddr) private returns (bool) {\n        uint64 numValidatorsNeeded = requestList[reqAddr].numValidations; \n        uint64 validatorsFound = 0;\n        //select # of available provider from the pool and force em to do the validation\n        for (uint64 i = 1; i <= providerPool.length; i++) {\n            address payable provID = providerPool[i - 1]; //get provider ID\n            //TODO: check whether selected validator capable with parameters (time, accuracy,....)\n            if(provID != requestList[reqAddr].provider){   //validator and computer cannot be same\n                emit PairingInfo(reqAddr, provID, 'Validation Assigned to Provider');\n                validatorsFound++;\n                //remove the providers availablity and pop from pool\n                requestList[reqAddr].validators.push(provID);\n                requestList[reqAddr].signatures.push(false);    //push false to hold position\n                providerList[provID].available = false;\n                ArrayPop(providerPool, provID);\n                i--;\n                     \n                //NOTE [IMPORTANT] : pop array while looping this array is very dangerous\n                //because popping will change the sequence of the elements thus will skip some item.\n                //[deprecated] ArrayPop(providerPool, provID);\n                //solution: only pop after looping through all the pool\n    \n            } else continue;    //skip the provider/computer itself\n            \n            //check whether got enough validator\n            if(validatorsFound < numValidatorsNeeded){\n                continue;\n            }\n            else{       //enough validator\n                emit SystemInfo(reqAddr, 'Enough Validators');\n               // ArrayPop(providerPool, requestList[reqAddr].validators);\n                return true;\n                break;\n            }\n            //loop until certain # of validators selected\n        }   \n        //exit loop without enough validators\n       // ArrayPopArray(providerPool, requestList[reqAddr].validators);  //not sure if necessary , for safety\n        emit SystemInfo(reqAddr, 'Not Enough Validators');\n        return false;\n    }\n\n    // needs to be more secure by ensuring the submission is coming from someone legit \n    // similar to completeTask but this will sign the validation list of the target Task\n    // TODO: the money part is ommited for now\n    function submitValidation(address payable reqAddr, bool result) public returns (bool) {       \n        if(msg.sender != requestList[reqAddr].provider) {     //validator cannot be provider\n            for (uint64 i = 0; i<requestList[reqAddr].validators.length; i++){\n                if(requestList[reqAddr].validators[i] == msg.sender     // vali must be previous validator assigned\n                && requestList[reqAddr].signatures[i] == false){    // not yet signed\n                    \n                    requestList[reqAddr].signatures[i] = result;        //length is matched, this prevent multi-submission and can update his own\n                    providerList[msg.sender].available = true;          //release validator\n                    providerPool.push(msg.sender);\n                    emit PairingInfo(reqAddr, msg.sender, 'Validator Signed');\n                }\n                else continue;   //either submitted already or not find , go for next\n            }\n            checkValidation(reqAddr);\n        }\n        else   //submit vali from provider\n            return false;\n\n        // Pay the validator \n        // uint partialPayment = requestList[reqID].price / 100; // amount each validator is paid\n        // msg.sender.transfer(partialPayment);\n        // balanceList[requestList[reqID].addr] -= partialPayment;\n    }\n    \n    //TODO: what if result is invalid, we got 3 false signature, will stuck here.\n    function checkValidation(address payable reqAddr) private returns (bool) {\n        // Add up successful validations\n        bool flag = false;\n        uint64 successCount = 0;\n        for (uint64 i=0; i<requestList[reqAddr].signatures.length; i++) {\n           if (requestList[reqAddr].signatures[i] == true) successCount += 1;\n        }\n        // if 2/3 of validation attempts were successful\n        // TODO: determine the fraction\n        \n        if (successCount  >= requestList[reqAddr].numValidations) { \n            // if 2/3 of validations were valid then provider gets remainder of money\n            //requestList[reqID].provider.transfer(payment); \n            //balanceList[requestList[reqID].addr] -= payment;\n            //TODO: [important] leave out the payment part for now.\n            requestList[reqAddr].isValid = true; // Task was successfully completed! \n            emit IPFSInfo(reqAddr, 'Validation Complete', requestList[reqAddr].resultID);\n            //flag = ArrayPop(validatingPool, reqAddr);\n            finalizeRequest(reqAddr);\n        }\n        /*\n        // otherwise, work was invalid, the providers payment goes back to requester\n        //else {\n            //requestList[reqID].addr.transfer(payment);\n            //balanceList[requestList[reqID].addr] -= payment;\n        //}\n        // EVENT: task is done whether successful or not\n        //emit TaskCompleted(requestList[reqID].addr, reqID);\n\n        // popout from pool\n        */\n        return flag;\n    }\n\n\n    // called by startProviding if the validatingPool is not empty\n    // assigns the new provider to validate a task\n    // IDEA: Could be modified so that any available provider could call. For now it assumes only used on new providers in startProviding\n    function findValidation(address payable provAddr) private {\n        for(uint64 i = 0; i < validatingPool.length; i++){  //search the entire validatingpool\n            address payable reqAddr = validatingPool[i]; //set reqAddr current task\n            if(requestList[reqAddr].numValidations > requestList[reqAddr].validators.length){ //check to see if the task has enough validators\n                //since the provAddr is a new provider, we don't need to check if he is already a validator, should be impossible unless bug exists\n                if(provAddr != requestList[reqAddr].provider){ //check to make sure he is not the computer\n                    emit PairingInfo(reqAddr, provAddr, 'Validation Assigned to Provider');\n                    requestList[reqAddr].validators.push(provAddr);\n                    requestList[reqAddr].signatures.push(false);    //extend length to match length of validator list\n                    providerList[provAddr].available = false;\n                    ArrayPop(providerPool, provAddr);\n\n\n                    //alert task owner if their task now has enough validators\n                    if(requestList[validatingPool[i]].validators.length == requestList[validatingPool[i]].numValidations){\n                        emit SystemInfo(reqAddr, 'Enough Validators');\n                    }\n\n                    break;\n\n                }\n                //else he is computer, did nothing\n            }\n            else continue; //this req has already got enough, check next\n        }\n    }\n\n    // finalize the completed result, move everything out of current pools\n    // TODO: handle any potential payment\n    function finalizeRequest(address payable reqAddr) private returns (bool) {\n        ArrayPop(validatingPool, reqAddr);\n        //delete related record\n        requestList[reqAddr].blockNumber = 0;\n    }\n/////////////////////////////////////////////////////////////////////\n    // Used to dynamically remove elements from array of open provider spaces. \n    // Using a swap and delete method, search for the desired addr throughout the whole array\n    // delete the desired and swap the hole with last element\n    function ArrayPop(address payable [] storage array, address payable target) private returns (bool) {\n        for(uint64 i = 0; i < array.length; i++){\n            if (array[i] == target) {\n                //swap last element with hole\n                array[i] = array[array.length-1];\n                //delete last item\n                delete array[array.length-1];\n                //decrease size\n                array.length -= 1;\n                return true;\n            }\n        }\n        return false;   //fail to search: no matching in pool\n    }\n    function ArrayPopArray(address payable[] storage array, address payable[] memory targetArray) private returns (bool){\n        bool flag = true;\n        for (uint64 j = 0;j<targetArray.length;j++){\n            flag = flag && ArrayPop(array, targetArray[j]);\n        }\n        return flag;\n    }\n    /////////////////////////////////////////////////////////////////////////////////\n    //some helpers defined here\n\n    function getProvider(address payable ID) public view returns(Provider memory){\n        return providerList[ID];\n    }\n    function getRequest(address payable ID) public view returns (Request memory){\n\t    return requestList[ID];\n    }\n    function getProviderCount() public view returns (uint256){\n        return providerCount;\n    }\n    function getRequestCount() public view returns (uint256){\n        return requestCount;\n    }\n\n    function getProviderPool() public view returns (address payable[] memory){\n        return providerPool;\n    }\n    function getPendingPool() public view returns (address payable[] memory){\n        return pendingPool;\n    }\n    function getValidatingPool() public view returns (address payable[] memory){\n        return validatingPool;\n    }\n    function getProvidingPool() public view returns (address payable[] memory){\n        return providingPool;\n    }\n\n    function getProviderPoolSize() public view returns (uint256){\n        return providerPool.length;\n    }\n    function getRequestPoolSize() public view returns (uint256){\n        return pendingPool.length;\n    }\n\n\n    //function getBalance(address addr) public view returns (uint256){\n    //    return balanceList[addr];\n    //}\n    function listRequests(address payable[] memory IDList) public view returns(Request[50] memory){\n\t    Request[50] memory allRequest;\n\t    for (uint64 i = 0; i < IDList.length; i++){\n\t\t    allRequest[i] = getRequest(IDList[i]);\n\t    }\n\t    return allRequest;\n    }\n    function listProviders(address payable[] memory IDList) public view returns(Provider[50] memory){\n        Provider[50] memory allProvider;\n        //address addr;\n        for (uint64 i = 0; i < IDList.length;i++){\n            allProvider[i] = getProvider(IDList[i]);\n        }\n        return allProvider;\n    }\n/*    function listAllRequests() public view returns(Request[50] memory){\n\t    Request[50] memory allRequest;\n\t    for (uint64 i = 0; i < requestCount; i++){\n\t\t    allRequest[i] = getRequest(i);\n\t    }\n\t    return allRequest;\n    }\n    function listAllProviders() public view returns(Provider[50] memory){\n\t    Provider[50] memory allProvider;\n\t    for (uint64 i = 0; i < providerCount; i++){\n\t\t    allProvider[i] = getProvider(i);\n\t    }\n\t    return allProvider;\n    }\n*/\n\n}\n",
  "sourcePath": "/home/pedriv/Documents/gitLab/bcai_v2.0/contracts/bcai_2.0.sol",
  "compiler": {
    "name": "solc",
    "version": "0.5.8+commit.23d335f2.Emscripten.clang"
  },
  "schemaVersion": "3.0.10",
  "updatedAt": "2019-06-17T18:51:55.625Z",
  "devdoc": {
    "methods": {}
  },
  "userdoc": {
    "methods": {
      "getProvider(address)": {
        "notice": "//////////////////////////////////////////////////////////////////////////////"
      },
      "startProviding(uint64,uint16,uint64)": {
        "notice": "//////////////////////////////////////////////////////////////////////////////////"
      }
    }
  }
}