{
  "contractName": "TaskContract",
  "abi": [
    {
      "constant": true,
      "inputs": [
        {
          "name": "",
          "type": "address"
        }
      ],
      "name": "requestList",
      "outputs": [
        {
          "name": "reqID",
          "type": "uint256"
        },
        {
          "name": "blockNumber",
          "type": "uint256"
        },
        {
          "name": "provider",
          "type": "address"
        },
        {
          "name": "time",
          "type": "uint64"
        },
        {
          "name": "target",
          "type": "uint16"
        },
        {
          "name": "price",
          "type": "uint256"
        },
        {
          "name": "dataID",
          "type": "bytes"
        },
        {
          "name": "resultID",
          "type": "bytes"
        },
        {
          "name": "numValidations",
          "type": "uint64"
        },
        {
          "name": "isValid",
          "type": "bool"
        },
        {
          "name": "status",
          "type": "bytes1"
        }
      ],
      "payable": false,
      "stateMutability": "view",
      "type": "function"
    },
    {
      "constant": true,
      "inputs": [
        {
          "name": "",
          "type": "address"
        }
      ],
      "name": "providerList",
      "outputs": [
        {
          "name": "provID",
          "type": "uint256"
        },
        {
          "name": "blockNumber",
          "type": "uint256"
        },
        {
          "name": "maxTime",
          "type": "uint64"
        },
        {
          "name": "maxTarget",
          "type": "uint16"
        },
        {
          "name": "minPrice",
          "type": "uint256"
        },
        {
          "name": "available",
          "type": "bool"
        }
      ],
      "payable": false,
      "stateMutability": "view",
      "type": "function"
    },
    {
      "constant": true,
      "inputs": [
        {
          "name": "",
          "type": "address"
        }
      ],
      "name": "balanceList",
      "outputs": [
        {
          "name": "",
          "type": "uint256"
        }
      ],
      "payable": false,
      "stateMutability": "view",
      "type": "function"
    },
    {
      "inputs": [],
      "payable": false,
      "stateMutability": "nonpayable",
      "type": "constructor"
    },
    {
      "anonymous": false,
      "inputs": [
        {
          "indexed": false,
          "name": "reqAddr",
          "type": "address"
        },
        {
          "indexed": false,
          "name": "info",
          "type": "bytes"
        },
        {
          "indexed": false,
          "name": "extra",
          "type": "bytes"
        }
      ],
      "name": "IPFSInfo",
      "type": "event"
    },
    {
      "anonymous": false,
      "inputs": [
        {
          "indexed": false,
          "name": "reqAddr",
          "type": "address"
        },
        {
          "indexed": false,
          "name": "info",
          "type": "bytes"
        }
      ],
      "name": "SystemInfo",
      "type": "event"
    },
    {
      "anonymous": false,
      "inputs": [
        {
          "indexed": false,
          "name": "reqAddr",
          "type": "address"
        },
        {
          "indexed": false,
          "name": "provAddr",
          "type": "address"
        },
        {
          "indexed": false,
          "name": "info",
          "type": "bytes"
        }
      ],
      "name": "PairingInfo",
      "type": "event"
    },
    {
      "anonymous": false,
      "inputs": [
        {
          "indexed": false,
          "name": "reqAddr",
          "type": "address"
        },
        {
          "indexed": false,
          "name": "provAddr",
          "type": "address"
        },
        {
          "indexed": false,
          "name": "info",
          "type": "bytes"
        },
        {
          "indexed": false,
          "name": "extra",
          "type": "bytes"
        }
      ],
      "name": "PairingInfoLong",
      "type": "event"
    },
    {
      "constant": false,
      "inputs": [
        {
          "name": "maxTime",
          "type": "uint64"
        },
        {
          "name": "maxTarget",
          "type": "uint16"
        },
        {
          "name": "minPrice",
          "type": "uint64"
        }
      ],
      "name": "startProviding",
      "outputs": [
        {
          "name": "",
          "type": "bool"
        }
      ],
      "payable": false,
      "stateMutability": "nonpayable",
      "type": "function"
    },
    {
      "constant": false,
      "inputs": [],
      "name": "stopProviding",
      "outputs": [
        {
          "name": "",
          "type": "bool"
        }
      ],
      "payable": false,
      "stateMutability": "nonpayable",
      "type": "function"
    },
    {
      "constant": false,
      "inputs": [
        {
          "name": "maxTime",
          "type": "uint64"
        },
        {
          "name": "maxTarget",
          "type": "uint16"
        },
        {
          "name": "minPrice",
          "type": "uint64"
        }
      ],
      "name": "updateProvider",
      "outputs": [
        {
          "name": "",
          "type": "bool"
        }
      ],
      "payable": false,
      "stateMutability": "nonpayable",
      "type": "function"
    },
    {
      "constant": false,
      "inputs": [
        {
          "name": "time",
          "type": "uint64"
        },
        {
          "name": "target",
          "type": "uint16"
        },
        {
          "name": "price",
          "type": "uint64"
        },
        {
          "name": "dataID",
          "type": "bytes"
        }
      ],
      "name": "startRequest",
      "outputs": [
        {
          "name": "",
          "type": "bool"
        }
      ],
      "payable": true,
      "stateMutability": "payable",
      "type": "function"
    },
    {
      "constant": false,
      "inputs": [],
      "name": "stopRequest",
      "outputs": [
        {
          "name": "",
          "type": "bool"
        }
      ],
      "payable": false,
      "stateMutability": "nonpayable",
      "type": "function"
    },
    {
      "constant": false,
      "inputs": [
        {
          "name": "time",
          "type": "uint64"
        },
        {
          "name": "target",
          "type": "uint16"
        },
        {
          "name": "price",
          "type": "uint64"
        },
        {
          "name": "dataID",
          "type": "bytes"
        }
      ],
      "name": "updateRequest",
      "outputs": [
        {
          "name": "",
          "type": "bool"
        }
      ],
      "payable": true,
      "stateMutability": "payable",
      "type": "function"
    },
    {
      "constant": false,
      "inputs": [
        {
          "name": "reqAddr",
          "type": "address"
        },
        {
          "name": "resultID",
          "type": "bytes"
        }
      ],
      "name": "completeRequest",
      "outputs": [
        {
          "name": "",
          "type": "bool"
        }
      ],
      "payable": false,
      "stateMutability": "nonpayable",
      "type": "function"
    },
    {
      "constant": false,
      "inputs": [
        {
          "name": "reqAddr",
          "type": "address"
        },
        {
          "name": "result",
          "type": "bool"
        }
      ],
      "name": "submitValidation",
      "outputs": [
        {
          "name": "",
          "type": "bool"
        }
      ],
      "payable": false,
      "stateMutability": "nonpayable",
      "type": "function"
    },
    {
      "constant": true,
      "inputs": [
        {
          "name": "ID",
          "type": "address"
        }
      ],
      "name": "getProvider",
      "outputs": [
        {
          "components": [
            {
              "name": "provID",
              "type": "uint256"
            },
            {
              "name": "blockNumber",
              "type": "uint256"
            },
            {
              "name": "maxTime",
              "type": "uint64"
            },
            {
              "name": "maxTarget",
              "type": "uint16"
            },
            {
              "name": "minPrice",
              "type": "uint256"
            },
            {
              "name": "available",
              "type": "bool"
            }
          ],
          "name": "",
          "type": "tuple"
        }
      ],
      "payable": false,
      "stateMutability": "view",
      "type": "function"
    },
    {
      "constant": true,
      "inputs": [
        {
          "name": "ID",
          "type": "address"
        }
      ],
      "name": "getRequest",
      "outputs": [
        {
          "components": [
            {
              "name": "reqID",
              "type": "uint256"
            },
            {
              "name": "blockNumber",
              "type": "uint256"
            },
            {
              "name": "provider",
              "type": "address"
            },
            {
              "name": "time",
              "type": "uint64"
            },
            {
              "name": "target",
              "type": "uint16"
            },
            {
              "name": "price",
              "type": "uint256"
            },
            {
              "name": "dataID",
              "type": "bytes"
            },
            {
              "name": "resultID",
              "type": "bytes"
            },
            {
              "name": "numValidations",
              "type": "uint64"
            },
            {
              "name": "validators",
              "type": "address[]"
            },
            {
              "name": "signatures",
              "type": "bool[]"
            },
            {
              "name": "isValid",
              "type": "bool"
            },
            {
              "name": "status",
              "type": "bytes1"
            }
          ],
          "name": "",
          "type": "tuple"
        }
      ],
      "payable": false,
      "stateMutability": "view",
      "type": "function"
    },
    {
      "constant": true,
      "inputs": [],
      "name": "getProviderCount",
      "outputs": [
        {
          "name": "",
          "type": "uint256"
        }
      ],
      "payable": false,
      "stateMutability": "view",
      "type": "function"
    },
    {
      "constant": true,
      "inputs": [],
      "name": "getRequestCount",
      "outputs": [
        {
          "name": "",
          "type": "uint256"
        }
      ],
      "payable": false,
      "stateMutability": "view",
      "type": "function"
    },
    {
      "constant": true,
      "inputs": [],
      "name": "getProviderPool",
      "outputs": [
        {
          "name": "",
          "type": "address[]"
        }
      ],
      "payable": false,
      "stateMutability": "view",
      "type": "function"
    },
    {
      "constant": true,
      "inputs": [],
      "name": "getPendingPool",
      "outputs": [
        {
          "name": "",
          "type": "address[]"
        }
      ],
      "payable": false,
      "stateMutability": "view",
      "type": "function"
    },
    {
      "constant": true,
      "inputs": [],
      "name": "getValidatingPool",
      "outputs": [
        {
          "name": "",
          "type": "address[]"
        }
      ],
      "payable": false,
      "stateMutability": "view",
      "type": "function"
    },
    {
      "constant": true,
      "inputs": [],
      "name": "getProvidingPool",
      "outputs": [
        {
          "name": "",
          "type": "address[]"
        }
      ],
      "payable": false,
      "stateMutability": "view",
      "type": "function"
    },
    {
      "constant": true,
      "inputs": [],
      "name": "getProviderPoolSize",
      "outputs": [
        {
          "name": "",
          "type": "uint256"
        }
      ],
      "payable": false,
      "stateMutability": "view",
      "type": "function"
    },
    {
      "constant": true,
      "inputs": [],
      "name": "getRequestPoolSize",
      "outputs": [
        {
          "name": "",
          "type": "uint256"
        }
      ],
      "payable": false,
      "stateMutability": "view",
      "type": "function"
    }
  ],
  "bytecode": "0x608060405234801561001057600080fd5b506000600381905550600060048190555061584d80620000316000396000f3fe60806040526004361061012a5760003560e01c8063353b2a1f116100ab57806363c1dff71161006f57806363c1dff7146104465780636ca43b8d146104835780639e723b97146104c0578063a9ecaae7146104eb578063b277493414610516578063dafcc3b2146105415761012a565b8063353b2a1f1461035d5780633fad18341461038857806346ce4175146103b357806355f21eb7146103de5780635c4c8c4e1461041b5761012a565b8063189258de116100f2578063189258de146102505780631f1dab451461028d5780632ddfdbcc146102b857806332c5200d146102f55780633432d0f5146103205761012a565b8063040d27621461012f5780630708799e1461015a57806308931765146101a15780630b6dbd5f146101de5780630e1e4a3c1461020e575b600080fd5b34801561013b57600080fd5b50610144610571565b60405161015191906153d3565b60405180910390f35b34801561016657600080fd5b50610181600480360361017c9190810190614543565b6107c8565b6040516101989b9a99989796959493929190615446565b60405180910390f35b3480156101ad57600080fd5b506101c860048036036101c39190810190614625565b6109c2565b6040516101d591906153d3565b60405180910390f35b6101f860048036036101f39190810190614674565b610c06565b60405161020591906153d3565b60405180910390f35b34801561021a57600080fd5b5061023560048036036102309190810190614543565b611091565b604051610247969594939291906154ff565b60405180910390f35b34801561025c57600080fd5b5061027760048036036102729190810190614543565b6110fc565b604051610284919061542b565b60405180910390f35b34801561029957600080fd5b506102a2611114565b6040516102af91906153b1565b60405180910390f35b3480156102c457600080fd5b506102df60048036036102da9190810190614625565b6111a2565b6040516102ec91906153d3565b60405180910390f35b34801561030157600080fd5b5061030a6114d7565b60405161031791906153b1565b60405180910390f35b34801561032c57600080fd5b5061034760048036036103429190810190614595565b611565565b60405161035491906153d3565b60405180910390f35b34801561036957600080fd5b50610372611946565b60405161037f919061542b565b60405180910390f35b34801561039457600080fd5b5061039d611953565b6040516103aa919061542b565b60405180910390f35b3480156103bf57600080fd5b506103c861195d565b6040516103d5919061542b565b60405180910390f35b3480156103ea57600080fd5b506104056004803603610400919081019061456c565b611967565b60405161041291906153ee565b60405180910390f35b34801561042757600080fd5b50610430611a4a565b60405161043d919061542b565b60405180910390f35b34801561045257600080fd5b5061046d6004803603610468919081019061456c565b611a57565b60405161047a9190615409565b60405180910390f35b34801561048f57600080fd5b506104aa60048036036104a591908101906145d1565b611e6e565b6040516104b791906153d3565b60405180910390f35b3480156104cc57600080fd5b506104d561219f565b6040516104e291906153b1565b60405180910390f35b3480156104f757600080fd5b5061050061222d565b60405161050d91906153b1565b60405180910390f35b34801561052257600080fd5b5061052b6122bb565b60405161053891906153d3565b60405180910390f35b61055b60048036036105569190810190614674565b61243d565b60405161056891906153d3565b60405180910390f35b60007f3000000000000000000000000000000000000000000000000000000000000000600160003373ffffffffffffffffffffffffffffffffffffffff1673ffffffffffffffffffffffffffffffffffffffff16815260200190815260200160002060090160019054906101000a900460f81b7effffffffffffffffffffffffffffffffffffffffffffffffffffffffffffff1916141561078957600160003373ffffffffffffffffffffffffffffffffffffffff1673ffffffffffffffffffffffffffffffffffffffff16815260200190815260200160002060008082016000905560018201600090556002820160006101000a81549073ffffffffffffffffffffffffffffffffffffffff02191690556002820160146101000a81549067ffffffffffffffff021916905560028201601c6101000a81549061ffff021916905560038201600090556004820160006106cb9190614224565b6005820160006106db9190614224565b6006820160006101000a81549067ffffffffffffffff0219169055600782016000610706919061426c565b600882016000610716919061428d565b6009820160006101000a81549060ff02191690556009820160016101000a81549060ff021916905550507fa332e7b06782060530f8d1575fcf83b5e831fe3dd09c85e53b0351a7c38ceeac3360405161076f91906151d4565b60405180910390a1610782600633612711565b90506107c5565b7fa332e7b06782060530f8d1575fcf83b5e831fe3dd09c85e53b0351a7c38ceeac336040516107b89190615202565b60405180910390a1600090505b90565b60016020528060005260406000206000915090508060000154908060010154908060020160009054906101000a900473ffffffffffffffffffffffffffffffffffffffff16908060020160149054906101000a900467ffffffffffffffff169080600201601c9054906101000a900461ffff1690806003015490806004018054600181600116156101000203166002900480601f0160208091040260200160405190810160405280929190818152602001828054600181600116156101000203166002900480156108da5780601f106108af576101008083540402835291602001916108da565b820191906000526020600020905b8154815290600101906020018083116108bd57829003601f168201915b505050505090806005018054600181600116156101000203166002900480601f0160208091040260200160405190810160405280929190818152602001828054600181600116156101000203166002900480156109785780601f1061094d57610100808354040283529160200191610978565b820191906000526020600020905b81548152906001019060200180831161095b57829003601f168201915b5050505050908060060160009054906101000a900467ffffffffffffffff16908060090160009054906101000a900460ff16908060090160019054906101000a900460f81b90508b565b6000600115156000803373ffffffffffffffffffffffffffffffffffffffff1673ffffffffffffffffffffffffffffffffffffffff16815260200190815260200160002060040160009054906101000a900460ff1615151415610bc357436000803373ffffffffffffffffffffffffffffffffffffffff1673ffffffffffffffffffffffffffffffffffffffff16815260200190815260200160002060010181905550836000803373ffffffffffffffffffffffffffffffffffffffff1673ffffffffffffffffffffffffffffffffffffffff16815260200190815260200160002060020160006101000a81548167ffffffffffffffff021916908367ffffffffffffffff160217905550826000803373ffffffffffffffffffffffffffffffffffffffff1673ffffffffffffffffffffffffffffffffffffffff16815260200190815260200160002060020160086101000a81548161ffff021916908361ffff1602179055508167ffffffffffffffff166000803373ffffffffffffffffffffffffffffffffffffffff1673ffffffffffffffffffffffffffffffffffffffff168152602001908152602001600020600301819055507fa332e7b06782060530f8d1575fcf83b5e831fe3dd09c85e53b0351a7c38ceeac33604051610ba89190615178565b60405180910390a1610bb9336128ba565b5060019050610bff565b7fa332e7b06782060530f8d1575fcf83b5e831fe3dd09c85e53b0351a7c38ceeac33604051610bf291906150ee565b60405180910390a1600090505b9392505050565b600080600160003373ffffffffffffffffffffffffffffffffffffffff1673ffffffffffffffffffffffffffffffffffffffff16815260200190815260200160002060010154141561107a57600454600160003373ffffffffffffffffffffffffffffffffffffffff1673ffffffffffffffffffffffffffffffffffffffff1681526020019081526020016000206000018190555043600160003373ffffffffffffffffffffffffffffffffffffffff1673ffffffffffffffffffffffffffffffffffffffff168152602001908152602001600020600101819055506000600160003373ffffffffffffffffffffffffffffffffffffffff1673ffffffffffffffffffffffffffffffffffffffff16815260200190815260200160002060020160006101000a81548173ffffffffffffffffffffffffffffffffffffffff021916908373ffffffffffffffffffffffffffffffffffffffff16021790555084600160003373ffffffffffffffffffffffffffffffffffffffff1673ffffffffffffffffffffffffffffffffffffffff16815260200190815260200160002060020160146101000a81548167ffffffffffffffff021916908367ffffffffffffffff16021790555083600160003373ffffffffffffffffffffffffffffffffffffffff1673ffffffffffffffffffffffffffffffffffffffff168152602001908152602001600020600201601c6101000a81548161ffff021916908361ffff1602179055508267ffffffffffffffff16600160003373ffffffffffffffffffffffffffffffffffffffff1673ffffffffffffffffffffffffffffffffffffffff1681526020019081526020016000206003018190555081600160003373ffffffffffffffffffffffffffffffffffffffff1673ffffffffffffffffffffffffffffffffffffffff1681526020019081526020016000206004019080519060200190610ed19291906142b5565b5060018060003373ffffffffffffffffffffffffffffffffffffffff1673ffffffffffffffffffffffffffffffffffffffff16815260200190815260200160002060060160006101000a81548167ffffffffffffffff021916908367ffffffffffffffff1602179055507f3000000000000000000000000000000000000000000000000000000000000000600160003373ffffffffffffffffffffffffffffffffffffffff1673ffffffffffffffffffffffffffffffffffffffff16815260200190815260200160002060090160016101000a81548160ff021916908360f81c021790555060063390806001815401808255809150509060018203906000526020600020016000909192909190916101000a81548173ffffffffffffffffffffffffffffffffffffffff021916908373ffffffffffffffffffffffffffffffffffffffff160217905550507fecb395b2a2ceb57177a24a711e761771826a6a5c10c88fcba80bceca4a92e446338360405161104d92919061536e565b60405180910390a160046000815480929190600101919050555061107033612f75565b5060019050611089565b6110868585858561243d565b90505b949350505050565b60006020528060005260406000206000915090508060000154908060010154908060020160009054906101000a900467ffffffffffffffff16908060020160089054906101000a900461ffff16908060030154908060040160009054906101000a900460ff16905086565b60026020528060005260406000206000915090505481565b6060600780548060200260200160405190810160405280929190818152602001828054801561119857602002820191906000526020600020905b8160009054906101000a900473ffffffffffffffffffffffffffffffffffffffff1673ffffffffffffffffffffffffffffffffffffffff168152602001906001019080831161114e575b5050505050905090565b6000806000803373ffffffffffffffffffffffffffffffffffffffff1673ffffffffffffffffffffffffffffffffffffffff1681526020019081526020016000206001015414156114c2576003546000803373ffffffffffffffffffffffffffffffffffffffff1673ffffffffffffffffffffffffffffffffffffffff16815260200190815260200160002060000181905550436000803373ffffffffffffffffffffffffffffffffffffffff1673ffffffffffffffffffffffffffffffffffffffff16815260200190815260200160002060010181905550836000803373ffffffffffffffffffffffffffffffffffffffff1673ffffffffffffffffffffffffffffffffffffffff16815260200190815260200160002060020160006101000a81548167ffffffffffffffff021916908367ffffffffffffffff160217905550826000803373ffffffffffffffffffffffffffffffffffffffff1673ffffffffffffffffffffffffffffffffffffffff16815260200190815260200160002060020160086101000a81548161ffff021916908361ffff1602179055508167ffffffffffffffff166000803373ffffffffffffffffffffffffffffffffffffffff1673ffffffffffffffffffffffffffffffffffffffff1681526020019081526020016000206003018190555060016000803373ffffffffffffffffffffffffffffffffffffffff1673ffffffffffffffffffffffffffffffffffffffff16815260200190815260200160002060040160006101000a81548160ff02191690831515021790555060053390806001815401808255809150509060018203906000526020600020016000909192909190916101000a81548173ffffffffffffffffffffffffffffffffffffffff021916908373ffffffffffffffffffffffffffffffffffffffff160217905550507fa332e7b06782060530f8d1575fcf83b5e831fe3dd09c85e53b0351a7c38ceeac3360405161147e9190615273565b60405180910390a16003600081548092919060010191905055506000600880549050146114af576114ae336135ef565b5b6114b8336128ba565b50600190506114d0565b6114cd8484846109c2565b90505b9392505050565b6060600880548060200260200160405190810160405280929190818152602001828054801561155b57602002820191906000526020600020905b8160009054906101000a900473ffffffffffffffffffffffffffffffffffffffff1673ffffffffffffffffffffffffffffffffffffffff1681526020019060010190808311611511575b5050505050905090565b6000600160008473ffffffffffffffffffffffffffffffffffffffff1673ffffffffffffffffffffffffffffffffffffffff16815260200190815260200160002060020160009054906101000a900473ffffffffffffffffffffffffffffffffffffffff1673ffffffffffffffffffffffffffffffffffffffff163373ffffffffffffffffffffffffffffffffffffffff16146119365760008090505b600160008573ffffffffffffffffffffffffffffffffffffffff1673ffffffffffffffffffffffffffffffffffffffff168152602001908152602001600020600701805490508167ffffffffffffffff161015611926573373ffffffffffffffffffffffffffffffffffffffff16600160008673ffffffffffffffffffffffffffffffffffffffff1673ffffffffffffffffffffffffffffffffffffffff1681526020019081526020016000206007018267ffffffffffffffff16815481106116c757fe5b9060005260206000200160009054906101000a900473ffffffffffffffffffffffffffffffffffffffff1673ffffffffffffffffffffffffffffffffffffffff1614801561178f575060001515600160008673ffffffffffffffffffffffffffffffffffffffff1673ffffffffffffffffffffffffffffffffffffffff1681526020019081526020016000206008018267ffffffffffffffff168154811061176b57fe5b90600052602060002090602091828204019190069054906101000a900460ff161515145b156119135782600160008673ffffffffffffffffffffffffffffffffffffffff1673ffffffffffffffffffffffffffffffffffffffff1681526020019081526020016000206008018267ffffffffffffffff16815481106117ec57fe5b90600052602060002090602091828204019190066101000a81548160ff02191690831515021790555060016000803373ffffffffffffffffffffffffffffffffffffffff1673ffffffffffffffffffffffffffffffffffffffff16815260200190815260200160002060040160006101000a81548160ff02191690831515021790555060053390806001815401808255809150509060018203906000526020600020016000909192909190916101000a81548173ffffffffffffffffffffffffffffffffffffffff021916908373ffffffffffffffffffffffffffffffffffffffff160217905550507f654163525cabcfa0ce95ecb1f232c75746c89688c42e7e2d52df90d770fc9e578433604051611906929190615061565b60405180910390a1611918565b611919565b5b8080600101915050611602565b5061193083613b2f565b5061193f565b60009050611940565b5b92915050565b6000600580549050905090565b6000600454905090565b6000600354905090565b61196f614335565b6000808373ffffffffffffffffffffffffffffffffffffffff1673ffffffffffffffffffffffffffffffffffffffff1681526020019081526020016000206040518060c001604052908160008201548152602001600182015481526020016002820160009054906101000a900467ffffffffffffffff1667ffffffffffffffff1667ffffffffffffffff1681526020016002820160089054906101000a900461ffff1661ffff1661ffff168152602001600382015481526020016004820160009054906101000a900460ff1615151515815250509050919050565b6000600680549050905090565b611a5f61437b565b600160008373ffffffffffffffffffffffffffffffffffffffff1673ffffffffffffffffffffffffffffffffffffffff168152602001908152602001600020604051806101a001604052908160008201548152602001600182015481526020016002820160009054906101000a900473ffffffffffffffffffffffffffffffffffffffff1673ffffffffffffffffffffffffffffffffffffffff1673ffffffffffffffffffffffffffffffffffffffff1681526020016002820160149054906101000a900467ffffffffffffffff1667ffffffffffffffff1667ffffffffffffffff16815260200160028201601c9054906101000a900461ffff1661ffff1661ffff16815260200160038201548152602001600482018054600181600116156101000203166002900480601f016020809104026020016040519081016040528092919081815260200182805460018160011615610100020316600290048015611c095780601f10611bde57610100808354040283529160200191611c09565b820191906000526020600020905b815481529060010190602001808311611bec57829003601f168201915b50505050508152602001600582018054600181600116156101000203166002900480601f016020809104026020016040519081016040528092919081815260200182805460018160011615610100020316600290048015611cab5780601f10611c8057610100808354040283529160200191611cab565b820191906000526020600020905b815481529060010190602001808311611c8e57829003601f168201915b505050505081526020016006820160009054906101000a900467ffffffffffffffff1667ffffffffffffffff1667ffffffffffffffff16815260200160078201805480602002602001604051908101604052809291908181526020018280548015611d6b57602002820191906000526020600020905b8160009054906101000a900473ffffffffffffffffffffffffffffffffffffffff1673ffffffffffffffffffffffffffffffffffffffff1681526020019060010190808311611d21575b5050505050815260200160088201805480602002602001604051908101604052809291908181526020018280548015611de857602002820191906000526020600020906000905b82829054906101000a900460ff16151581526020019060010190602082600001049283019260010382029150808411611db25790505b505050505081526020016009820160009054906101000a900460ff161515151581526020016009820160019054906101000a900460f81b7effffffffffffffffffffffffffffffffffffffffffffffffffffffffffffff19167effffffffffffffffffffffffffffffffffffffffffffffffffffffffffffff1916815250509050919050565b6000600160008473ffffffffffffffffffffffffffffffffffffffff1673ffffffffffffffffffffffffffffffffffffffff16815260200190815260200160002060020160009054906101000a900473ffffffffffffffffffffffffffffffffffffffff1673ffffffffffffffffffffffffffffffffffffffff163373ffffffffffffffffffffffffffffffffffffffff161415612194577f3200000000000000000000000000000000000000000000000000000000000000600160008573ffffffffffffffffffffffffffffffffffffffff1673ffffffffffffffffffffffffffffffffffffffff16815260200190815260200160002060090160016101000a81548160ff021916908360f81c021790555081600160008573ffffffffffffffffffffffffffffffffffffffff1673ffffffffffffffffffffffffffffffffffffffff1681526020019081526020016000206005019080519060200190611fd79291906142b5565b50611fe3600784612711565b5060088390806001815401808255809150509060018203906000526020600020016000909192909190916101000a81548173ffffffffffffffffffffffffffffffffffffffff021916908373ffffffffffffffffffffffffffffffffffffffff1602179055505060016000803373ffffffffffffffffffffffffffffffffffffffff1673ffffffffffffffffffffffffffffffffffffffff16815260200190815260200160002060040160006101000a81548160ff02191690831515021790555060053390806001815401808255809150509060018203906000526020600020016000909192909190916101000a81548173ffffffffffffffffffffffffffffffffffffffff021916908373ffffffffffffffffffffffffffffffffffffffff160217905550507fecb395b2a2ceb57177a24a711e761771826a6a5c10c88fcba80bceca4a92e44683600160008673ffffffffffffffffffffffffffffffffffffffff1673ffffffffffffffffffffffffffffffffffffffff16815260200190815260200160002060050160405161217c929190615230565b60405180910390a161218d83613d8a565b9050612199565b600090505b92915050565b6060600580548060200260200160405190810160405280929190818152602001828054801561222357602002820191906000526020600020905b8160009054906101000a900473ffffffffffffffffffffffffffffffffffffffff1673ffffffffffffffffffffffffffffffffffffffff16815260200190600101908083116121d9575b5050505050905090565b606060068054806020026020016040519081016040528092919081815260200182805480156122b157602002820191906000526020600020905b8160009054906101000a900473ffffffffffffffffffffffffffffffffffffffff1673ffffffffffffffffffffffffffffffffffffffff1681526020019060010190808311612267575b5050505050905090565b6000600115156000803373ffffffffffffffffffffffffffffffffffffffff1673ffffffffffffffffffffffffffffffffffffffff16815260200190815260200160002060040160009054906101000a900460ff16151514156123fe576000803373ffffffffffffffffffffffffffffffffffffffff1673ffffffffffffffffffffffffffffffffffffffff16815260200190815260200160002060008082016000905560018201600090556002820160006101000a81549067ffffffffffffffff02191690556002820160086101000a81549061ffff021916905560038201600090556004820160006101000a81549060ff021916905550507fa332e7b06782060530f8d1575fcf83b5e831fe3dd09c85e53b0351a7c38ceeac336040516123e491906152a1565b60405180910390a16123f7600533612711565b905061243a565b7fa332e7b06782060530f8d1575fcf83b5e831fe3dd09c85e53b0351a7c38ceeac3360405161242d91906152cf565b60405180910390a1600090505b90565b60007f3000000000000000000000000000000000000000000000000000000000000000600160003373ffffffffffffffffffffffffffffffffffffffff1673ffffffffffffffffffffffffffffffffffffffff16815260200190815260200160002060090160019054906101000a900460f81b7effffffffffffffffffffffffffffffffffffffffffffffffffffffffffffff191614156126cd5743600160003373ffffffffffffffffffffffffffffffffffffffff1673ffffffffffffffffffffffffffffffffffffffff1681526020019081526020016000206001018190555084600160003373ffffffffffffffffffffffffffffffffffffffff1673ffffffffffffffffffffffffffffffffffffffff16815260200190815260200160002060020160146101000a81548167ffffffffffffffff021916908367ffffffffffffffff16021790555083600160003373ffffffffffffffffffffffffffffffffffffffff1673ffffffffffffffffffffffffffffffffffffffff168152602001908152602001600020600201601c6101000a81548161ffff021916908361ffff1602179055508267ffffffffffffffff16600160003373ffffffffffffffffffffffffffffffffffffffff1673ffffffffffffffffffffffffffffffffffffffff1681526020019081526020016000206003018190555081600160003373ffffffffffffffffffffffffffffffffffffffff1673ffffffffffffffffffffffffffffffffffffffff168152602001908152602001600020600401908051906020019061268c9291906142b5565b507fa332e7b06782060530f8d1575fcf83b5e831fe3dd09c85e53b0351a7c38ceeac336040516126bc91906151a6565b60405180910390a160019050612709565b7fa332e7b06782060530f8d1575fcf83b5e831fe3dd09c85e53b0351a7c38ceeac336040516126fc919061511c565b60405180910390a1600090505b949350505050565b600080600090505b83805490508167ffffffffffffffff1610156128ae578273ffffffffffffffffffffffffffffffffffffffff16848267ffffffffffffffff168154811061275c57fe5b9060005260206000200160009054906101000a900473ffffffffffffffffffffffffffffffffffffffff1673ffffffffffffffffffffffffffffffffffffffff1614156128a157836001858054905003815481106127b657fe5b9060005260206000200160009054906101000a900473ffffffffffffffffffffffffffffffffffffffff16848267ffffffffffffffff16815481106127f757fe5b9060005260206000200160006101000a81548173ffffffffffffffffffffffffffffffffffffffff021916908373ffffffffffffffffffffffffffffffffffffffff1602179055508360018580549050038154811061285257fe5b9060005260206000200160006101000a81549073ffffffffffffffffffffffffffffffffffffffff0219169055600184818180549050039150816128969190614435565b5060019150506128b4565b8080600101915050612719565b50600090505b92915050565b60008060068054905014156128f1577f32000000000000000000000000000000000000000000000000000000000000009050612f70565b60008090505b6006805490508167ffffffffffffffff161015612f4b57600060068267ffffffffffffffff168154811061292757fe5b9060005260206000200160009054906101000a900473ffffffffffffffffffffffffffffffffffffffff169050600073ffffffffffffffffffffffffffffffffffffffff168173ffffffffffffffffffffffffffffffffffffffff1614158015612a2257507f3100000000000000000000000000000000000000000000000000000000000000600160008373ffffffffffffffffffffffffffffffffffffffff1673ffffffffffffffffffffffffffffffffffffffff16815260200190815260200160002060090160019054906101000a900460f81b7effffffffffffffffffffffffffffffffffffffffffffffffffffffffffffff191614155b8015612aed57506000808573ffffffffffffffffffffffffffffffffffffffff1673ffffffffffffffffffffffffffffffffffffffff16815260200190815260200160002060020160009054906101000a900467ffffffffffffffff1667ffffffffffffffff16600160008373ffffffffffffffffffffffffffffffffffffffff1673ffffffffffffffffffffffffffffffffffffffff16815260200190815260200160002060020160149054906101000a900467ffffffffffffffff1667ffffffffffffffff1611155b8015612ba057506000808573ffffffffffffffffffffffffffffffffffffffff1673ffffffffffffffffffffffffffffffffffffffff16815260200190815260200160002060020160089054906101000a900461ffff1661ffff16600160008373ffffffffffffffffffffffffffffffffffffffff1673ffffffffffffffffffffffffffffffffffffffff168152602001908152602001600020600201601c9054906101000a900461ffff1661ffff1611155b8015612c2f57506000808573ffffffffffffffffffffffffffffffffffffffff1673ffffffffffffffffffffffffffffffffffffffff16815260200190815260200160002060030154600160008373ffffffffffffffffffffffffffffffffffffffff1673ffffffffffffffffffffffffffffffffffffffff1681526020019081526020016000206003015410155b15612f3d5760008060008673ffffffffffffffffffffffffffffffffffffffff1673ffffffffffffffffffffffffffffffffffffffff16815260200190815260200160002060040160006101000a81548160ff021916908315150217905550612c99600585612711565b5083600160008373ffffffffffffffffffffffffffffffffffffffff1673ffffffffffffffffffffffffffffffffffffffff16815260200190815260200160002060020160006101000a81548173ffffffffffffffffffffffffffffffffffffffff021916908373ffffffffffffffffffffffffffffffffffffffff1602179055507f3100000000000000000000000000000000000000000000000000000000000000600160008373ffffffffffffffffffffffffffffffffffffffff1673ffffffffffffffffffffffffffffffffffffffff16815260200190815260200160002060090160016101000a81548160ff021916908360f81c0217905550612da1600682612711565b50600160008273ffffffffffffffffffffffffffffffffffffffff1673ffffffffffffffffffffffffffffffffffffffff16815260200190815260200160002060030154600260008373ffffffffffffffffffffffffffffffffffffffff1673ffffffffffffffffffffffffffffffffffffffff1681526020019081526020016000206000828254019250508190555060078190806001815401808255809150509060018203906000526020600020016000909192909190916101000a81548173ffffffffffffffffffffffffffffffffffffffff021916908373ffffffffffffffffffffffffffffffffffffffff160217905550507f2b88768874d596259d3041253784b3217c58817182fb311f4152008bc32b6f398185600160008573ffffffffffffffffffffffffffffffffffffffff1673ffffffffffffffffffffffffffffffffffffffff168152602001908152602001600020600401604051612f0b9392919061509d565b60405180910390a17f300000000000000000000000000000000000000000000000000000000000000092505050612f70565b5080806001019150506128f7565b507f310000000000000000000000000000000000000000000000000000000000000090505b919050565b6000806005805490501415612fac577f320000000000000000000000000000000000000000000000000000000000000090506135ea565b60008090505b6005805490508167ffffffffffffffff1610156135c557600060058267ffffffffffffffff1681548110612fe257fe5b9060005260206000200160009054906101000a900473ffffffffffffffffffffffffffffffffffffffff169050600073ffffffffffffffffffffffffffffffffffffffff168173ffffffffffffffffffffffffffffffffffffffff161415801561309e5750600115156000808373ffffffffffffffffffffffffffffffffffffffff1673ffffffffffffffffffffffffffffffffffffffff16815260200190815260200160002060040160009054906101000a900460ff161515145b156135b7576000808273ffffffffffffffffffffffffffffffffffffffff1673ffffffffffffffffffffffffffffffffffffffff16815260200190815260200160002060020160089054906101000a900461ffff1661ffff16600160008673ffffffffffffffffffffffffffffffffffffffff1673ffffffffffffffffffffffffffffffffffffffff168152602001908152602001600020600201601c9054906101000a900461ffff1661ffff161115801561321957506000808273ffffffffffffffffffffffffffffffffffffffff1673ffffffffffffffffffffffffffffffffffffffff16815260200190815260200160002060020160009054906101000a900467ffffffffffffffff1667ffffffffffffffff16600160008673ffffffffffffffffffffffffffffffffffffffff1673ffffffffffffffffffffffffffffffffffffffff16815260200190815260200160002060020160149054906101000a900467ffffffffffffffff1667ffffffffffffffff1611155b80156132a857506000808273ffffffffffffffffffffffffffffffffffffffff1673ffffffffffffffffffffffffffffffffffffffff16815260200190815260200160002060030154600160008673ffffffffffffffffffffffffffffffffffffffff1673ffffffffffffffffffffffffffffffffffffffff1681526020019081526020016000206003015410155b156135b65760008060008373ffffffffffffffffffffffffffffffffffffffff1673ffffffffffffffffffffffffffffffffffffffff16815260200190815260200160002060040160006101000a81548160ff021916908315150217905550613312600582612711565b5080600160008673ffffffffffffffffffffffffffffffffffffffff1673ffffffffffffffffffffffffffffffffffffffff16815260200190815260200160002060020160006101000a81548173ffffffffffffffffffffffffffffffffffffffff021916908373ffffffffffffffffffffffffffffffffffffffff1602179055507f3100000000000000000000000000000000000000000000000000000000000000600160008673ffffffffffffffffffffffffffffffffffffffff1673ffffffffffffffffffffffffffffffffffffffff16815260200190815260200160002060090160016101000a81548160ff021916908360f81c021790555061341a600685612711565b50600160008573ffffffffffffffffffffffffffffffffffffffff1673ffffffffffffffffffffffffffffffffffffffff16815260200190815260200160002060030154600260008673ffffffffffffffffffffffffffffffffffffffff1673ffffffffffffffffffffffffffffffffffffffff1681526020019081526020016000206000828254019250508190555060078490806001815401808255809150509060018203906000526020600020016000909192909190916101000a81548173ffffffffffffffffffffffffffffffffffffffff021916908373ffffffffffffffffffffffffffffffffffffffff160217905550507f2b88768874d596259d3041253784b3217c58817182fb311f4152008bc32b6f398482600160008873ffffffffffffffffffffffffffffffffffffffff1673ffffffffffffffffffffffffffffffffffffffff1681526020019081526020016000206004016040516135849392919061509d565b60405180910390a17f3000000000000000000000000000000000000000000000000000000000000000925050506135ea565b5b508080600101915050612fb2565b507f310000000000000000000000000000000000000000000000000000000000000090505b919050565b60008090505b6008805490508167ffffffffffffffff161015613b2b57600060088267ffffffffffffffff168154811061362557fe5b9060005260206000200160009054906101000a900473ffffffffffffffffffffffffffffffffffffffff169050600160008273ffffffffffffffffffffffffffffffffffffffff1673ffffffffffffffffffffffffffffffffffffffff16815260200190815260200160002060070180549050600160008373ffffffffffffffffffffffffffffffffffffffff1673ffffffffffffffffffffffffffffffffffffffff16815260200190815260200160002060060160009054906101000a900467ffffffffffffffff1667ffffffffffffffff161115613b1657600160008273ffffffffffffffffffffffffffffffffffffffff1673ffffffffffffffffffffffffffffffffffffffff16815260200190815260200160002060020160009054906101000a900473ffffffffffffffffffffffffffffffffffffffff1673ffffffffffffffffffffffffffffffffffffffff168373ffffffffffffffffffffffffffffffffffffffff1614613b11577f2b88768874d596259d3041253784b3217c58817182fb311f4152008bc32b6f398184600160008573ffffffffffffffffffffffffffffffffffffffff1673ffffffffffffffffffffffffffffffffffffffff16815260200190815260200160002060050160405161380893929190615010565b60405180910390a1600160008273ffffffffffffffffffffffffffffffffffffffff1673ffffffffffffffffffffffffffffffffffffffff1681526020019081526020016000206007018390806001815401808255809150509060018203906000526020600020016000909192909190916101000a81548173ffffffffffffffffffffffffffffffffffffffff021916908373ffffffffffffffffffffffffffffffffffffffff16021790555050600160008273ffffffffffffffffffffffffffffffffffffffff1673ffffffffffffffffffffffffffffffffffffffff1681526020019081526020016000206008016000908060018154018082558091505090600182039060005260206000209060209182820401919006909192909190916101000a81548160ff0219169083151502179055505060008060008573ffffffffffffffffffffffffffffffffffffffff1673ffffffffffffffffffffffffffffffffffffffff16815260200190815260200160002060040160006101000a81548160ff0219169083151502179055506139a3600584612711565b506001600060088467ffffffffffffffff16815481106139bf57fe5b9060005260206000200160009054906101000a900473ffffffffffffffffffffffffffffffffffffffff1673ffffffffffffffffffffffffffffffffffffffff1673ffffffffffffffffffffffffffffffffffffffff16815260200190815260200160002060060160009054906101000a900467ffffffffffffffff1667ffffffffffffffff166001600060088567ffffffffffffffff1681548110613a6157fe5b9060005260206000200160009054906101000a900473ffffffffffffffffffffffffffffffffffffffff1673ffffffffffffffffffffffffffffffffffffffff1673ffffffffffffffffffffffffffffffffffffffff168152602001908152602001600020600701805490501415613b0b577fa332e7b06782060530f8d1575fcf83b5e831fe3dd09c85e53b0351a7c38ceeac81604051613b02919061514a565b60405180910390a15b50613b2b565b613b1c565b50613b1e565b505b80806001019150506135f5565b5050565b60008060009050600080905060008090505b600160008673ffffffffffffffffffffffffffffffffffffffff1673ffffffffffffffffffffffffffffffffffffffff168152602001908152602001600020600801805490508167ffffffffffffffff161015613c2f5760011515600160008773ffffffffffffffffffffffffffffffffffffffff1673ffffffffffffffffffffffffffffffffffffffff1681526020019081526020016000206008018267ffffffffffffffff1681548110613bf357fe5b90600052602060002090602091828204019190069054906101000a900460ff1615151415613c22576001820191505b8080600101915050613b41565b50600160008573ffffffffffffffffffffffffffffffffffffffff1673ffffffffffffffffffffffffffffffffffffffff16815260200190815260200160002060060160009054906101000a900467ffffffffffffffff1667ffffffffffffffff168167ffffffffffffffff1610613d805760018060008673ffffffffffffffffffffffffffffffffffffffff1673ffffffffffffffffffffffffffffffffffffffff16815260200190815260200160002060090160006101000a81548160ff0219169083151502179055507fecb395b2a2ceb57177a24a711e761771826a6a5c10c88fcba80bceca4a92e44684600160008773ffffffffffffffffffffffffffffffffffffffff1673ffffffffffffffffffffffffffffffffffffffff168152602001908152602001600020600501604051613d6d92919061532b565b60405180910390a1613d7e846141c9565b505b8192505050919050565b600080600160008473ffffffffffffffffffffffffffffffffffffffff1673ffffffffffffffffffffffffffffffffffffffff16815260200190815260200160002060060160009054906101000a900467ffffffffffffffff16905060008090506000600190505b6005805490508167ffffffffffffffff161161418557600060056001830367ffffffffffffffff1681548110613e2457fe5b9060005260206000200160009054906101000a900473ffffffffffffffffffffffffffffffffffffffff169050600160008773ffffffffffffffffffffffffffffffffffffffff1673ffffffffffffffffffffffffffffffffffffffff16815260200190815260200160002060020160009054906101000a900473ffffffffffffffffffffffffffffffffffffffff1673ffffffffffffffffffffffffffffffffffffffff168173ffffffffffffffffffffffffffffffffffffffff161461410c577f2b88768874d596259d3041253784b3217c58817182fb311f4152008bc32b6f398682600160008a73ffffffffffffffffffffffffffffffffffffffff1673ffffffffffffffffffffffffffffffffffffffff168152602001908152602001600020600501604051613f5a93929190615010565b60405180910390a18280600101935050600160008773ffffffffffffffffffffffffffffffffffffffff1673ffffffffffffffffffffffffffffffffffffffff1681526020019081526020016000206007018190806001815401808255809150509060018203906000526020600020016000909192909190916101000a81548173ffffffffffffffffffffffffffffffffffffffff021916908373ffffffffffffffffffffffffffffffffffffffff16021790555050600160008773ffffffffffffffffffffffffffffffffffffffff1673ffffffffffffffffffffffffffffffffffffffff1681526020019081526020016000206008016000908060018154018082558091505090600182039060005260206000209060209182820401919006909192909190916101000a81548160ff0219169083151502179055505060008060008373ffffffffffffffffffffffffffffffffffffffff1673ffffffffffffffffffffffffffffffffffffffff16815260200190815260200160002060040160006101000a81548160ff0219169083151502179055506140fd600582612711565b50818060019003925050614112565b50614178565b8367ffffffffffffffff168367ffffffffffffffff1610156141345750614178565b7fa332e7b06782060530f8d1575fcf83b5e831fe3dd09c85e53b0351a7c38ceeac86604051614163919061514a565b60405180910390a160019450505050506141c4565b8080600101915050613df2565b507fa332e7b06782060530f8d1575fcf83b5e831fe3dd09c85e53b0351a7c38ceeac846040516141b591906152fd565b60405180910390a16000925050505b919050565b60006141d6600883612711565b506000600160008473ffffffffffffffffffffffffffffffffffffffff1673ffffffffffffffffffffffffffffffffffffffff16815260200190815260200160002060010181905550919050565b50805460018160011615610100020316600290046000825580601f1061424a5750614269565b601f0160209004906000526020600020908101906142689190614461565b5b50565b508054600082559060005260206000209081019061428a9190614461565b50565b50805460008255601f0160209004906000526020600020908101906142b29190614461565b50565b828054600181600116156101000203166002900490600052602060002090601f016020900481019282601f106142f657805160ff1916838001178555614324565b82800160010185558215614324579182015b82811115614323578251825591602001919060010190614308565b5b5090506143319190614461565b5090565b6040518060c001604052806000815260200160008152602001600067ffffffffffffffff168152602001600061ffff168152602001600081526020016000151581525090565b604051806101a001604052806000815260200160008152602001600073ffffffffffffffffffffffffffffffffffffffff168152602001600067ffffffffffffffff168152602001600061ffff168152602001600081526020016060815260200160608152602001600067ffffffffffffffff168152602001606081526020016060815260200160001515815260200160007effffffffffffffffffffffffffffffffffffffffffffffffffffffffffffff191681525090565b81548183558181111561445c5781836000526020600020918201910161445b9190614461565b5b505050565b61448391905b8082111561447f576000816000905550600101614467565b5090565b90565b600081359050614495816157a0565b92915050565b6000813590506144aa816157b7565b92915050565b6000813590506144bf816157ce565b92915050565b600082601f8301126144d657600080fd5b81356144e96144e48261558d565b615560565b9150808252602083016020830185838301111561450557600080fd5b61451083828461574d565b50505092915050565b600081359050614528816157e5565b92915050565b60008135905061453d816157fc565b92915050565b60006020828403121561455557600080fd5b600061456384828501614486565b91505092915050565b60006020828403121561457e57600080fd5b600061458c8482850161449b565b91505092915050565b600080604083850312156145a857600080fd5b60006145b68582860161449b565b92505060206145c7858286016144b0565b9150509250929050565b600080604083850312156145e457600080fd5b60006145f28582860161449b565b925050602083013567ffffffffffffffff81111561460f57600080fd5b61461b858286016144c5565b9150509250929050565b60008060006060848603121561463a57600080fd5b60006146488682870161452e565b935050602061465986828701614519565b925050604061466a8682870161452e565b9150509250925092565b6000806000806080858703121561468a57600080fd5b60006146988782880161452e565b94505060206146a987828801614519565b93505060406146ba8782880161452e565b925050606085013567ffffffffffffffff8111156146d757600080fd5b6146e3878288016144c5565b91505092959194509250565b60006146fb838361471f565b60208301905092915050565b60006147138383614857565b60208301905092915050565b614728816156b7565b82525050565b614737816156b7565b82525050565b6000614748826155fd565b6147528185615661565b935061475d836155c6565b8060005b8381101561478e57815161477588826146ef565b975061478083615636565b925050600181019050614761565b5085935050505092915050565b60006147a6826155f2565b6147b08185615650565b93506147bb836155b9565b8060005b838110156147ec5781516147d388826146ef565b97506147de83615629565b9250506001810190506147bf565b5085935050505092915050565b600061480482615608565b61480e8185615672565b9350614819836155d3565b8060005b8381101561484a5781516148318882614707565b975061483c83615643565b92505060018101905061481d565b5085935050505092915050565b614860816156c9565b82525050565b61486f816156c9565b82525050565b61487e816156d5565b82525050565b61488d816156d5565b82525050565b600061489e8261561e565b6148a88185615694565b93506148b881856020860161575c565b6148c18161578f565b840191505092915050565b60006148d782615613565b6148e18185615683565b93506148f181856020860161575c565b6148fa8161578f565b840191505092915050565b600061491082615613565b61491a8185615694565b935061492a81856020860161575c565b6149338161578f565b840191505092915050565b60008154600181166000811461495b5760018114614981576149c5565b607f600283041661496c8187615694565b955060ff1983168652602086019350506149c5565b6002820461498f8187615694565b955061499a856155e0565b60005b828110156149bc5781548189015260018201915060208101905061499d565b80880195505050505b505092915050565b60006149da601983615694565b91507f50726f766964657220556e61626c6520746f20557064617465000000000000006000830152602082019050919050565b6000614a1a601883615694565b91507f5265717565737420556e61626c6520746f2055706461746500000000000000006000830152602082019050919050565b6000614a5a601183615694565b91507f456e6f7567682056616c696461746f72730000000000000000000000000000006000830152602082019050919050565b6000614a9a601083615694565b91507f50726f76696465722055706461746564000000000000000000000000000000006000830152602082019050919050565b6000614ada600f83615694565b91507f52657175657374205570646174656400000000000000000000000000000000006000830152602082019050919050565b6000614b1a601f83615694565b91507f56616c69646174696f6e2041737369676e656420746f2050726f7669646572006000830152602082019050919050565b6000614b5a600f83615694565b91507f526571756573742053746f7070656400000000000000000000000000000000006000830152602082019050919050565b6000614b9a601683615694565b91507f5265717565737420556e61626c6520746f2053746f70000000000000000000006000830152602082019050919050565b6000614bda601d83615694565b91507f5265717565737420436f6d7075746174696f6e20436f6d706c657465640000006000830152602082019050919050565b6000614c1a600e83615694565b91507f50726f76696465722041646465640000000000000000000000000000000000006000830152602082019050919050565b6000614c5a601083615694565b91507f50726f76696465722053746f70706564000000000000000000000000000000006000830152602082019050919050565b6000614c9a601083615694565b91507f56616c696461746f72205369676e6564000000000000000000000000000000006000830152602082019050919050565b6000614cda601783615694565b91507f50726f766964657220556e61626c6520746f2053746f700000000000000000006000830152602082019050919050565b6000614d1a601583615694565b91507f4e6f7420456e6f7567682056616c696461746f727300000000000000000000006000830152602082019050919050565b6000614d5a601083615694565b91507f526571756573742041737369676e6564000000000000000000000000000000006000830152602082019050919050565b6000614d9a601383615694565b91507f56616c69646174696f6e20436f6d706c657465000000000000000000000000006000830152602082019050919050565b6000614dda600d83615694565b91507f52657175657374204164646564000000000000000000000000000000000000006000830152602082019050919050565b60c082016000820151614e236000850182614fd4565b506020820151614e366020850182614fd4565b506040820151614e496040850182614ff2565b506060820151614e5c6060850182614fb6565b506080820151614e6f6080850182614fd4565b5060a0820151614e8260a0850182614857565b50505050565b60006101a083016000830151614ea16000860182614fd4565b506020830151614eb46020860182614fd4565b506040830151614ec7604086018261471f565b506060830151614eda6060860182614ff2565b506080830151614eed6080860182614fb6565b5060a0830151614f0060a0860182614fd4565b5060c083015184820360c0860152614f1882826148cc565b91505060e083015184820360e0860152614f3282826148cc565b915050610100830151614f49610100860182614ff2565b50610120830151848203610120860152614f63828261479b565b915050610140830151848203610140860152614f7f82826147f9565b915050610160830151614f96610160860182614857565b50610180830151614fab610180860182614875565b508091505092915050565b614fbf81615701565b82525050565b614fce81615701565b82525050565b614fdd8161572f565b82525050565b614fec8161572f565b82525050565b614ffb81615739565b82525050565b61500a81615739565b82525050565b6000608082019050615025600083018661472e565b615032602083018561472e565b818103604083015261504381614b0d565b90508181036060830152615057818461493e565b9050949350505050565b6000606082019050615076600083018561472e565b615083602083018461472e565b818103604083015261509481614c8d565b90509392505050565b60006080820190506150b2600083018661472e565b6150bf602083018561472e565b81810360408301526150d081614d4d565b905081810360608301526150e4818461493e565b9050949350505050565b6000604082019050615103600083018461472e565b8181036020830152615114816149cd565b905092915050565b6000604082019050615131600083018461472e565b818103602083015261514281614a0d565b905092915050565b600060408201905061515f600083018461472e565b818103602083015261517081614a4d565b905092915050565b600060408201905061518d600083018461472e565b818103602083015261519e81614a8d565b905092915050565b60006040820190506151bb600083018461472e565b81810360208301526151cc81614acd565b905092915050565b60006040820190506151e9600083018461472e565b81810360208301526151fa81614b4d565b905092915050565b6000604082019050615217600083018461472e565b818103602083015261522881614b8d565b905092915050565b6000606082019050615245600083018561472e565b818103602083015261525681614bcd565b9050818103604083015261526a818461493e565b90509392505050565b6000604082019050615288600083018461472e565b818103602083015261529981614c0d565b905092915050565b60006040820190506152b6600083018461472e565b81810360208301526152c781614c4d565b905092915050565b60006040820190506152e4600083018461472e565b81810360208301526152f581614ccd565b905092915050565b6000604082019050615312600083018461472e565b818103602083015261532381614d0d565b905092915050565b6000606082019050615340600083018561472e565b818103602083015261535181614d8d565b90508181036040830152615365818461493e565b90509392505050565b6000606082019050615383600083018561472e565b818103602083015261539481614dcd565b905081810360408301526153a88184614893565b90509392505050565b600060208201905081810360008301526153cb818461473d565b905092915050565b60006020820190506153e86000830184614866565b92915050565b600060c0820190506154036000830184614e0d565b92915050565b600060208201905081810360008301526154238184614e88565b905092915050565b60006020820190506154406000830184614fe3565b92915050565b60006101608201905061545c600083018e614fe3565b615469602083018d614fe3565b615476604083018c61472e565b615483606083018b615001565b615490608083018a614fc5565b61549d60a0830189614fe3565b81810360c08301526154af8188614905565b905081810360e08301526154c38187614905565b90506154d3610100830186615001565b6154e1610120830185614866565b6154ef610140830184614884565b9c9b505050505050505050505050565b600060c0820190506155146000830189614fe3565b6155216020830188614fe3565b61552e6040830187615001565b61553b6060830186614fc5565b6155486080830185614fe3565b61555560a0830184614866565b979650505050505050565b6000604051905081810181811067ffffffffffffffff8211171561558357600080fd5b8060405250919050565b600067ffffffffffffffff8211156155a457600080fd5b601f19601f8301169050602081019050919050565b6000602082019050919050565b6000602082019050919050565b6000602082019050919050565b60008160005260206000209050919050565b600081519050919050565b600081519050919050565b600081519050919050565b600081519050919050565b600081519050919050565b6000602082019050919050565b6000602082019050919050565b6000602082019050919050565b600082825260208201905092915050565b600082825260208201905092915050565b600082825260208201905092915050565b600082825260208201905092915050565b600082825260208201905092915050565b60006156b08261570f565b9050919050565b60006156c28261570f565b9050919050565b60008115159050919050565b60007fff0000000000000000000000000000000000000000000000000000000000000082169050919050565b600061ffff82169050919050565b600073ffffffffffffffffffffffffffffffffffffffff82169050919050565b6000819050919050565b600067ffffffffffffffff82169050919050565b82818337600083830152505050565b60005b8381101561577a57808201518184015260208101905061575f565b83811115615789576000848401525b50505050565b6000601f19601f8301169050919050565b6157a9816156a5565b81146157b457600080fd5b50565b6157c0816156b7565b81146157cb57600080fd5b50565b6157d7816156c9565b81146157e257600080fd5b50565b6157ee81615701565b81146157f957600080fd5b50565b61580581615739565b811461581057600080fd5b5056fea265627a7a72305820773375a32a209300f2e155eb1fd4414741c95e4dabc326b46ce51a6427a863e36c6578706572696d656e74616cf50037",
  "source": "/////////////////////////////////////////////////////////////////////////////////////\n//version 3.0.0\n//Author: Taurus, Samuel Pritchett\n//Copyright: tlu4@lsu.edu\n//\n//update from 2.1 -> 3.0, keep alignment with the project version v3.0, which is a stable release version.\n//NOTE: at the time Aug, 2019 the amount of contract code is close to its limit,\n//      adding more functions may result in a failure in deployment.\n//update Apr. 2019: fixed validateReqeust Logic: validator list is updated when selection,\n//      signature list is updated when result submitted, to avoid multi-submission\n//      did not change function parameter, should not break anything.\n///////////////////////////////////////////////////////////////////////////////////////\n//NOTE:\n//This design uses account address as the identifier, meaning each address could only have one req/prov associated.\n//When submit new or update existing req/prov, previous record are overwriten.\n//Each address could only have one req or prov, not at same time.\n//On the other hand, reqID and provID is just a counter, not an identifier. Update or resubmition results in new reqID/provID.\n\n//TODO: add conflict detection of the address. Check whether existing req or prov from your address is 'not complete',(being proccessed).\n//TODO: Aug.2019, add a hard-reset function. Totally remove one request or stop provider from the pool\n//      , no matter their status (being processed or pending), because sometimes, one will stuck in the pool.\n////////////////////////////////////////////////////////////////////////////////////\n\npragma solidity ^0.5.0;\npragma experimental ABIEncoderV2;           //enable returning self-defined type, used in helper return provider and request\n                                            //do not disable, provider is returned for debuging reason.\n\ncontract TaskContract {\n    //list\n    mapping (address => Provider) public providerList;   //provAddr => provider struct\n    mapping (address => Request)  public requestList;    //reqAddr => request struct\n    mapping (address => uint256)  public balanceList;    //reqAddr => balance\n\n    //ID - counter\n    uint256 private providerCount;                       //+1 each time\n    uint256 private requestCount;\n\n    constructor() public {                               //sol 5.0 syntax\n        providerCount = 0;\n        requestCount = 0;\n    }\n\n    struct Request {\n        uint256 reqID;                      //requestID is not identifier, just a counter\n        uint256 blockNumber;                //record the time of submission\n        address payable provider;           //record the provider assigned to this request\n        uint64  time;                       //maximum time requirements                 TODO: determine the unit and format\n        uint16  target;                     //target 0-100.00                           TODO: determine the unit and format\n        uint256 price;                      //the max amount he willing to pay          TODO: determine the unit and format\n        bytes   dataID;                     //dataID used to fetch the off-chain data, interact with ipfs\n        bytes   resultID;                   //dataID to fetch the off-chain result, via ipfs\n        uint64  numValidations;             //user defined the number of validation, TODO: fix this as 3\n        address payable[] validators;       //validators' addr, update when assigned the task to validators\n        bool[]  signatures;                 //true or false array, update only when validator submit result\n        bool    isValid;                    //the final flag\n        byte    status;                     //one byte indicating the status: 0: 'pending', 1:'providing', 2: 'validating', 3: 'complete'\n        //mapping (address => bool)validationList;   //no way to know if a specific address is in this mapping\n                                                    //but this can be useful together with validator []array\n    }\n\n    struct Provider {\n        uint256 provID;                     //just a counter\n        uint256 blockNumber;                //record the time of submission\n        uint64  maxTime;                    //maxTime of Prov's should be larger than Req's to successfully assign\n        uint16  maxTarget;                  //max target he can provide\n        uint256 minPrice;                   //lowest price he can accept\n        bool    available;                  //if ready to be assigned\n    }\n\n    //should try best to reduce type of events in order to remove unnecessary confusion. -> reuse events with same format\n    //no need seperate events for each type, just put whatever info passed in bytes info\n    event IPFSInfo          (address payable reqAddr, bytes info, bytes extra);\n    event SystemInfo        (address payable reqAddr, bytes info);          //systemInfo is only informative, not trigger anything.\n    event PairingInfo       (address payable reqAddr, address payable provAddr, bytes info);\n    //NOTE: [by TaoLu] extra here are actually dataID, which can also be accessed via reqAddr.\n    //      extra may not be necessary but it makes easier of app to handle info. This retains the tradeoff of gas cost and easyness.\n    event PairingInfoLong   (address payable reqAddr, address payable provAddr, bytes info, bytes extra);\n\n\n    //Pools stores the address of req or prov, thus indicate the stages.\n    address payable[] providerPool;        //provAddr only when more providers > req, or empty\n    address payable[] pendingPool;         //reqAddr only when more requests > prov, or empty\n    address payable[] providingPool;       //reqAddr\n    address payable[] validatingPool;      //reqAddr\n    /////////////////////////////////////////////////////////////////////////////////////\n\n\n    // Function called to become a provider. Add address on List, and Pool if not instantly assigned.\n    // TIPS on gas cost: don't create local copy and write back, modify the storage directly.\n    //      gas cost 165K without event / 167K with event / 92K overwrite\n    function startProviding(uint64 maxTime, uint16 maxTarget, uint64 minPrice) public returns (bool) {\n        if(providerList[msg.sender].blockNumber == 0){                  //if this is new\n            // register a new provider object in the List and map\n            providerList[msg.sender].provID         = providerCount;    //cost 50k per item edit\n            providerList[msg.sender].blockNumber    = block.number;\n            providerList[msg.sender].maxTime        = maxTime;\n            providerList[msg.sender].maxTarget      = maxTarget;\n            providerList[msg.sender].minPrice       = minPrice;\n            providerList[msg.sender].available      = true;             //turn on the flag at LAST in case error\n            // ready for the next\n            providerPool.push(msg.sender);\n            emit SystemInfo (msg.sender, \"Provider Added\");\n            providerCount++;\n            if(validatingPool.length != 0){                             //need to update how validation works before we can prioritize it here\n                findValidation(msg.sender);\n            }\n            assignProvider(msg.sender);                                 //try an instant assignment trial\n            return true;\n        }\n        else {                                                          //this address has been recorded before\n            return updateProvider(maxTime, maxTarget, minPrice);        //this could be an update\n        }\n    }\n    // Stop a provider. Must be sent from the provider address or it will be failed.\n    function stopProviding() public returns (bool) {\n        // If the sender is currently an active provider\n        if (providerList[msg.sender].available == true){               //can only stop available provider\n            delete providerList[msg.sender];                           //delete from List\n            emit SystemInfo(msg.sender, 'Provider Stopped');\n            return ArrayPop(providerPool, msg.sender);                 //delete from Pool\n        }\n        else{\n            emit SystemInfo(msg.sender, 'Provider Unable to Stop');\n            return false;\n        }\n    }\n    //update a provider, you must know the provID and must sent from right addr\n    function updateProvider(uint64 maxTime, uint16 maxTarget, uint64 minPrice) public returns (bool) {\n        if(providerList[msg.sender].available == true){                //can only modify available provider\n            providerList[msg.sender].blockNumber    = block.number;\n            providerList[msg.sender].maxTime        = maxTime;\n            providerList[msg.sender].maxTarget      = maxTarget;\n            providerList[msg.sender].minPrice       = minPrice;\n            emit SystemInfo(msg.sender,'Provider Updated');\n            assignProvider(msg.sender);\n            return true;\n        }\n        else{\n            emit SystemInfo(msg.sender, 'Provider Unable to Update');\n            return false;\n        }\n    }\n\n    // Send a request from user to blockchain. Assumes price is including the cost for verification\n    // NOTE: use bytes memory as argument will increase the gas cost, one alternative will be uint type, may consifer in future.\n    function startRequest(uint64 time, uint16 target, uint64 price, bytes memory dataID) public payable returns (bool) {\n        if(requestList[msg.sender].blockNumber == 0){   //never submitted before\n            //register on List\n            requestList[msg.sender].reqID         = requestCount;\n            requestList[msg.sender].blockNumber   = block.number;\n            requestList[msg.sender].provider      = address(0);\n            requestList[msg.sender].time          = time;\n            requestList[msg.sender].target        = target;\n            requestList[msg.sender].price         = price;\n            requestList[msg.sender].dataID        = dataID;\n            requestList[msg.sender].numValidations = 1;//fixed 3 for testing reasons >> TL: changed this to demo settings\n            requestList[msg.sender].status = '0';       //pending = 0x30, is in ascii not number 0\n            pendingPool.push(msg.sender);\n            emit IPFSInfo (msg.sender, \"Request Added\", dataID);\n\n            requestCount++;\n            assignRequest(msg.sender);                  //try an instant assignment\n            return true;\n        } else {    //submitted before\n            return updateRequest(time, target, price, dataID);\n        }\n    }\n    function stopRequest() public returns (bool){\n        if (requestList[msg.sender].status == '0'){          //can only cancel owned pending request, ('0' = 0x30)\n            delete requestList[msg.sender];                  //delete from List\n            emit SystemInfo(msg.sender, 'Request Stopped');\n            return ArrayPop(pendingPool, msg.sender);        //delete from Pool\n        }\n        else{\n            emit SystemInfo(msg.sender, 'Request Unable to Stop');\n            return false;\n        }\n    }\n    function updateRequest(uint64 time, uint16 target, uint64 price, bytes memory dataID) public payable returns (bool) {\n        if(requestList[msg.sender].status == '0' ){                   //can only update pending request\n            requestList[msg.sender].blockNumber    = block.number;\n            requestList[msg.sender].time        = time;\n            requestList[msg.sender].target      = target;\n            requestList[msg.sender].price       = price;\n            requestList[msg.sender].dataID      = dataID;\n            emit SystemInfo(msg.sender, 'Request Updated');\n            return true;\n        }\n        else{\n            emit SystemInfo(msg.sender, 'Request Unable to Update');\n            return false;\n        }\n    }\n\n    // Search in the requestPool, find a job for current provider. Triggered by startProviding\n    // Returns: note: return value all in ascii format\n    //          0: successfully assigned\n    //          1: searched all providers but find no match\n    //          2: no available provider right now\n    //          3: failure during poping pool\n    function assignProvider(address payable provAddr) private returns (byte){\n        if(pendingPool.length == 0) return '2';     //no pending requests\n        else {   //search throught the requestPool\n            for (uint64 i = 0; i < pendingPool.length; i++){\n                address payable reqAddr = pendingPool[i];     //save the re-usable reqID , save gas by avoiding multiple read\n                if( (reqAddr != address(0) && requestList[reqAddr].status != '1') &&\n                    requestList[reqAddr].time <= providerList[provAddr].maxTime &&\n                    requestList[reqAddr].target <= providerList[provAddr].maxTarget &&\n                    requestList[reqAddr].price >= providerList[provAddr].minPrice){\n                        //meet the requirement, assign the task\n                        //update provider\n                        providerList[provAddr].available = false;\n                        ArrayPop(providerPool, provAddr);\n                        //update request\n                        requestList[reqAddr].provider = provAddr;\n                        requestList[reqAddr].status = '1';    //providing\n                        ArrayPop(pendingPool, reqAddr);\n                        //update balanceList            addr here is requester's\n                        balanceList[reqAddr] += requestList[reqAddr].price;\n                        providingPool.push(reqAddr);\n                        //status move from pending to providing\n                        emit PairingInfoLong(reqAddr, provAddr, \"Request Assigned\", requestList[reqAddr].dataID);\n                        return '0';\n                }\n            }\n            //after for loop and no match\n            return '1';\n        }\n    }\n\n    // Assigning one task to one of the available providers. Only called from requestTask (private)\n    // Search in the providerPool, if no match in the end, return false\n    //could only assign one task at a time\n    //auto sel the first searching result for now, no comparation between multiple availability.\n    //TODO: need ot add preference next patch\n    // Returns: 0: successfully assigned\n    //          1: searched all providers but find no match\n    //          2: no available provider right now\n    //          3: failure during poping pool\n    function assignRequest(address payable reqAddr) private returns (byte) {\n        //provider availability is checked in pool not in list\n        if (providerPool.length == 0)   return '2';\n        else {            //if any provider in pool\n            for (uint64 i = 0; i < providerPool.length; i++) {\n                address payable provAddr = providerPool[i];   // save the provider's addr, reusable and save gas cost\n                if (provAddr != address(0) && providerList[provAddr].available == true){\n                    // Check if request conditions meet the providers requirements\n                    if (requestList[reqAddr].target <= providerList[provAddr].maxTarget &&\n                        requestList[reqAddr].time <= providerList[provAddr].maxTime &&\n                        requestList[reqAddr].price >= providerList[provAddr].minPrice) {\n                        //update provider:\n                        providerList[provAddr].available = false;\n                        ArrayPop(providerPool, provAddr);\n                        //update request\n                        requestList[reqAddr].provider = provAddr;\n                        requestList[reqAddr].status = '1';    //providing\n                        ArrayPop(pendingPool, reqAddr);\n                        //update balanceList\n                        balanceList[reqAddr] += requestList[reqAddr].price;\n                        providingPool.push(reqAddr);\n                        // Let provider listen for this event to see he was selected\n                        emit PairingInfoLong(reqAddr, provAddr, \"Request Assigned\", requestList[reqAddr].dataID);\n                        return '0';\n                    }\n                }\n            }\n            // No provider was found matching the criteria -- request failed\n            // TODO: how to return payment is to be discussed in future.\n            //requestList[reqID].addr.transfer(requestList[reqID].price); // Returns the ether to the sender\n            return '1';\n        }\n    }\n\n\n    // Provider will call this when they are done and the result data is available.\n    // This will invoke the validation stage. Only when the request got enough validators,\n    // that req could be moved from pool and marked. Or that req stays providing\n    function completeRequest(address payable reqAddr, bytes memory resultID) public returns (bool) {\n        // Confirm msg.sender is actually the provider of the task he claims\n        if (msg.sender == requestList[reqAddr].provider) {\n            //change request obj\n            requestList[reqAddr].status = '2';    //validating\n            requestList[reqAddr].resultID = resultID;\n            //move from providing pool to validating Pool.\n            ArrayPop(providingPool, reqAddr);\n            validatingPool.push(reqAddr);\n            //release provider (not necessarily depend on provider) back into providerPool\n            providerList[msg.sender].available = true;\n            providerPool.push(msg.sender);\n            emit IPFSInfo(reqAddr, 'Request Computation Completed',requestList[reqAddr].resultID);\n            //start validation process\n            return validateRequest(reqAddr);\n        }\n        else {\n            return false;\n        }\n    }\n\n    //this will be seperated in the futurte when timeing out is possilbe for connections and the provider must\n    //stay available untill the data has been passed to all who are involved in this transaction\n    /*function releaseProvieder() public {\n        providerList[msg.sender].available = true;\n        providerPool.push(msg.sender);\n    }\n    */\n\n    // Called by completeRequest before finalizing stuff. NOTE: must have no validators right now\n    // Try to find as many as possible qualified validators\n    // Returns false if there wasnt enough free providers to send out the required number of validation requests\n    // need validation from 1/10 of nodes -- could change\n    function validateRequest(address payable reqAddr) private returns (bool) {\n        uint64 numValidatorsNeeded = requestList[reqAddr].numValidations;\n        uint64 validatorsFound = 0;\n        //select # of available provider from the pool and force em to do the validation\n        for (uint64 i = 1; i <= providerPool.length; i++) {\n            address payable provID = providerPool[i - 1]; //get provider ID\n            //TODO: check whether selected validator capable with parameters (time, accuracy,....)\n            if(provID != requestList[reqAddr].provider){   //validator and computer cannot be same\n                emit PairingInfoLong(reqAddr, provID, 'Validation Assigned to Provider', requestList[reqAddr].resultID);\n                validatorsFound++;\n                //remove the providers availablity and pop from pool\n                requestList[reqAddr].validators.push(provID);\n                requestList[reqAddr].signatures.push(false);    //push false to hold position\n                providerList[provID].available = false;\n                ArrayPop(providerPool, provID);\n                i--;\n\n                //NOTE [IMPORTANT] : pop array while looping this array is very dangerous, use cause.\n                //Because popping will change the sequence of the elements thus will skip some item.\n                // Arraypop will always fill the hole with the last item, thus decrease i immediately will check the freshly swapped item.\n                // This works for now, but it hurts the priority. The last item jumped the queue. The sequence in list does not reflect priority.\n\n\n            } else continue;    //skip the provider/computer itself\n            //check whether got enough validator\n            if(validatorsFound < numValidatorsNeeded){\n                continue;\n            }\n            else{       //enough validator\n                emit SystemInfo(reqAddr, 'Enough Validators');\n                return true;\n            }\n            //loop until certain # of validators selected\n        }\n        //exit loop without enough validators\n        emit SystemInfo(reqAddr, 'Not Enough Validators');\n        return false;\n    }\n\n    // needs to be more secure by ensuring the submission is coming from someone legit\n    // similar to completeTask but this will sign the validation list of the target Task\n    // TODO: the money part is ommited for now\n    function submitValidation(address payable reqAddr, bool result) public returns (bool) {\n        if(msg.sender != requestList[reqAddr].provider) {     //validator cannot be provider\n            for (uint64 i = 0; i<requestList[reqAddr].validators.length; i++){\n                if(requestList[reqAddr].validators[i] == msg.sender &&  // vali must be previous validator assigned\n                requestList[reqAddr].signatures[i] == false){        // not yet signed\n                    requestList[reqAddr].signatures[i] = result;        //length is matched, this prevent multi-submission and can update his own\n                    providerList[msg.sender].available = true;          //release validator\n                    providerPool.push(msg.sender);\n                    emit PairingInfo(reqAddr, msg.sender, 'Validator Signed');\n                }\n                else continue;   //either submitted already or not find , go for next\n            }\n            checkValidation(reqAddr);\n        }\n        else   //submit vali from provider\n            return false;\n\n        // Pay the validator\n        // uint partialPayment = requestList[reqID].price / 100; // amount each validator is paid\n        // msg.sender.transfer(partialPayment);\n        // balanceList[requestList[reqID].addr] -= partialPayment;\n    }\n\n    //TODO: what if result is invalid, we got 3 false signature, will stuck here.\n    function checkValidation(address payable reqAddr) private returns (bool) {\n        // Add up successful validations\n        bool flag = false;\n        uint64 successCount = 0;\n        for (uint64 i = 0; i<requestList[reqAddr].signatures.length; i++) {\n           if (requestList[reqAddr].signatures[i] == true) successCount += 1;\n        }\n        // if 2/3 of validation attempts were successful // TODO: determine the fraction\n        if (successCount >= requestList[reqAddr].numValidations) {\n            // if 2/3 of validations were valid then provider gets remainder of money\n            //requestList[reqID].provider.transfer(payment);\n            //balanceList[requestList[reqID].addr] -= payment;\n            //TODO: [important] leave out the payment part for now.\n            requestList[reqAddr].isValid = true; // Task was successfully completed!\n            emit IPFSInfo(reqAddr, 'Validation Complete', requestList[reqAddr].resultID);\n            //flag = ArrayPop(validatingPool, reqAddr);\n            finalizeRequest(reqAddr);\n        }\n        /*\n        // otherwise, work was invalid, the providers payment goes back to requester\n        //else {\n            //requestList[reqID].addr.transfer(payment);\n            //balanceList[requestList[reqID].addr] -= payment;\n        //}\n        // EVENT: task is done whether successful or not\n        //emit TaskCompleted(requestList[reqID].addr, reqID);\n\n        // popout from pool\n        */\n        return flag;\n    }\n\n\n    // called by startProviding if the validatingPool is not empty\n    // assigns the new provider to validate a task\n    // IDEA: Could be modified so that any available provider could call. For now it assumes only used on new providers in startProviding\n    function findValidation(address payable provAddr) private {\n        for(uint64 i = 0; i < validatingPool.length; i++){  //search the entire validatingpool\n            address payable reqAddr = validatingPool[i]; //set reqAddr current task\n            if(requestList[reqAddr].numValidations > requestList[reqAddr].validators.length){ //check to see if the task has enough validators\n                //since the provAddr is a new provider, we don't need to check if he is already a validator, should be impossible unless bug exists\n                if(provAddr != requestList[reqAddr].provider){ //check to make sure he is not the privider\n                    emit PairingInfoLong(reqAddr, provAddr, 'Validation Assigned to Provider',requestList[reqAddr].resultID);\n                    requestList[reqAddr].validators.push(provAddr);\n                    requestList[reqAddr].signatures.push(false);    //extend length to match length of validator list\n                    providerList[provAddr].available = false;\n                    ArrayPop(providerPool, provAddr);\n\n                    //alert task owner if their task now has enough validators\n                    if(requestList[validatingPool[i]].validators.length == requestList[validatingPool[i]].numValidations){\n                        emit SystemInfo(reqAddr, 'Enough Validators');\n                    }\n                    break;\n                }\n                //else he is privider, did nothing\n            }\n            else continue; //this req has already got enough, check next\n        }\n    }\n\n    // finalize the completed result, move everything out of current pools\n    // TODO: handle any potential payment\n    function finalizeRequest(address payable reqAddr) private returns (bool) {\n        ArrayPop(validatingPool, reqAddr);\n        //delete related record\n        requestList[reqAddr].blockNumber = 0;\n\n//these lines are used in attempt to empty the validators and signatures arrays for a given request\n//there is some buggy behavior regarding this section so it will be commented out for now\n//TODO: find a safe way for the validators and signatures to be cleared out\n/*        for(uint64 i = 2 ; i >= 0 ; i--){\n          delete requestList[reqAddr].validators[i];\n          requestList[reqAddr].signatures[i] = false;\n        }*/\n// by TaoLU: good comments, but I don't know how to fix for now.\n    }\n/////////////////////////////////////////////////////////////////////\n    // Used to dynamically remove elements from array of open provider spaces.\n    // Using a swap and delete method, search for the desired addr throughout the whole array\n    // delete the desired and swap the hole with last element\n    function ArrayPop(address payable[] storage array, address payable target) private returns (bool) {\n        for(uint64 i = 0; i < array.length; i++){\n            if (array[i] == target) {\n                array[i] = array[array.length-1];   //swap last element with hole\n                delete array[array.length-1];       //delete last item\n                array.length -= 1;                  //decrease size\n                return true;\n            }\n        }\n        return false;   //fail to search: no matching in pool\n    }\n    /* //used to be used in validateRequest, but deprecated now\n    function ArrayPopArray(address payable[] storage array, address payable[] memory targetArray) private returns (bool){\n        bool flag = true;\n        for (uint64 j = 0;j<targetArray.length;j++){\n            flag = flag && ArrayPop(array, targetArray[j]);\n        }\n        return flag;\n    }*/\n    /////////////////////////////////////////////////////////////////////////////////\n    //some helpers defined here\n    //NOTE: these helpers will use up the code space, (in Ethereum code lenght is limited)\n    //      can be removed in future to free up space.\n\n    function getProvider(address payable ID) public view returns(Provider memory){\n        return providerList[ID];\n    }\n    function getRequest(address payable ID) public view returns (Request memory){\n\t    return requestList[ID];\n    }\n    function getProviderCount() public view returns (uint256){\n        return providerCount;\n    }\n    function getRequestCount() public view returns (uint256){\n        return requestCount;\n    }\n\n    function getProviderPool() public view returns (address payable[] memory){\n        return providerPool;\n    }\n    function getPendingPool() public view returns (address payable[] memory){\n        return pendingPool;\n    }\n    function getValidatingPool() public view returns (address payable[] memory){\n        return validatingPool;\n    }\n    function getProvidingPool() public view returns (address payable[] memory){\n        return providingPool;\n    }\n\n    function getProviderPoolSize() public view returns (uint256){\n        return providerPool.length;\n    }\n    function getRequestPoolSize() public view returns (uint256){\n        return pendingPool.length;\n    }\n\n\n    //function getBalance(address addr) public view returns (uint256){\n    //    return balanceList[addr];\n    //}\n\n    /*\n    //used to be used in CLI interface, comment out for space.\n    function listRequests(address payable[] memory IDList) public view returns(Request[50] memory){\n\t    Request[50] memory allRequest;\n\t    for (uint64 i = 0; i < IDList.length; i++){\n\t\t    allRequest[i] = getRequest(IDList[i]);\n\t    }\n\t    return allRequest;\n    }\n    function listProviders(address payable[] memory IDList) public view returns(Provider[50] memory){\n        Provider[50] memory allProvider;\n        //address addr;\n        for (uint64 i = 0; i < IDList.length;i++){\n            allProvider[i] = getProvider(IDList[i]);\n        }\n        return allProvider;\n    }*/\n\n/*    function listAllRequests() public view returns(Request[50] memory){\n\t    Request[50] memory allRequest;\n\t    for (uint64 i = 0; i < requestCount; i++){\n\t\t    allRequest[i] = getRequest(i);\n\t    }\n\t    return allRequest;\n    }\n    function listAllProviders() public view returns(Provider[50] memory){\n\t    Provider[50] memory allProvider;\n\t    for (uint64 i = 0; i < providerCount; i++){\n\t\t    allProvider[i] = getProvider(i);\n\t    }\n\t    return allProvider;\n    }\n*/\n\n}\n",
  "sourcePath": "/home/pedriv/Documents/BCAI/bcai_deploy/contracts/bcai.sol",
  "compiler": {
    "name": "solc",
    "version": "0.5.8+commit.23d335f2.Emscripten.clang"
  },
  "schemaVersion": "3.0.10",
  "updatedAt": "2019-08-22T15:17:19.345Z",
  "devdoc": {
    "methods": {}
  },
  "userdoc": {
    "methods": {
      "getProvider(address)": {
        "notice": "//////////////////////////////////////////////////////////////////////////////"
      },
      "startProviding(uint64,uint16,uint64)": {
        "notice": "//////////////////////////////////////////////////////////////////////////////////"
      }
    }
  }
}